{
  "contractName": "EtherTreasury",
  "abi": [
    {
      "anonymous": false,
      "inputs": [
        {
          "indexed": true,
          "name": "callee",
          "type": "address"
        },
        {
          "indexed": false,
          "name": "newAllowance",
          "type": "uint256"
        }
      ],
      "name": "EtherAllowanceIncreased",
      "type": "event"
    },
    {
      "anonymous": false,
      "inputs": [
        {
          "indexed": true,
          "name": "callee",
          "type": "address"
        },
        {
          "indexed": true,
          "name": "to",
          "type": "address"
        },
        {
          "indexed": false,
          "name": "amount",
          "type": "uint256"
        }
      ],
      "name": "EtherSpent",
      "type": "event"
    },
    {
      "constant": false,
      "inputs": [
        {
          "name": "to",
          "type": "address"
        },
        {
          "name": "amount",
          "type": "uint256"
        }
      ],
      "name": "spend",
      "outputs": [],
      "payable": false,
      "stateMutability": "nonpayable",
      "type": "function"
    },
    {
      "constant": false,
      "inputs": [],
      "name": "increaseEtherAllowance",
      "outputs": [],
      "payable": false,
      "stateMutability": "nonpayable",
      "type": "function"
    }
  ],
  "bytecode": "0x608060405234801561001057600080fd5b506105a6806100206000396000f30060806040526004361061004c576000357c0100000000000000000000000000000000000000000000000000000000900463ffffffff1680639bca331114610051578063af7d6ca314610068575b600080fd5b34801561005d57600080fd5b506100666100b5565b005b34801561007457600080fd5b506100b3600480360381019080803573ffffffffffffffffffffffffffffffffffffffff169060200190929190803590602001909291905050506103ad565b005b6000803373ffffffffffffffffffffffffffffffffffffffff1673ffffffffffffffffffffffffffffffffffffffff16815260200190815260200160002060000160009054906101000a900460ff16151561010f57600080fd5b426101a56000803373ffffffffffffffffffffffffffffffffffffffff1673ffffffffffffffffffffffffffffffffffffffff168152602001908152602001600020600401546000803373ffffffffffffffffffffffffffffffffffffffff1673ffffffffffffffffffffffffffffffffffffffff1681526020019081526020016000206002015461055e90919063ffffffff16565b111515156101b257600080fd5b6000803373ffffffffffffffffffffffffffffffffffffffff1673ffffffffffffffffffffffffffffffffffffffff168152602001908152602001600020600301546004026000803373ffffffffffffffffffffffffffffffffffffffff1673ffffffffffffffffffffffffffffffffffffffff168152602001908152602001600020600101541115151561024657600080fd5b426000803373ffffffffffffffffffffffffffffffffffffffff1673ffffffffffffffffffffffffffffffffffffffff168152602001908152602001600020600201819055506000803373ffffffffffffffffffffffffffffffffffffffff1673ffffffffffffffffffffffffffffffffffffffff168152602001908152602001600020600301546000803373ffffffffffffffffffffffffffffffffffffffff1673ffffffffffffffffffffffffffffffffffffffff168152602001908152602001600020600101600082825401925050819055503373ffffffffffffffffffffffffffffffffffffffff167f9a84d21f16d3e4d2a06d85a995dec70b11b2535dd224083e9cc37981b5240b166000803373ffffffffffffffffffffffffffffffffffffffff1673ffffffffffffffffffffffffffffffffffffffff168152602001908152602001600020600101546040518082815260200191505060405180910390a2565b3073ffffffffffffffffffffffffffffffffffffffff163181111515156103d357600080fd5b600073ffffffffffffffffffffffffffffffffffffffff168273ffffffffffffffffffffffffffffffffffffffff161415151561040f57600080fd5b6000803373ffffffffffffffffffffffffffffffffffffffff1673ffffffffffffffffffffffffffffffffffffffff16815260200190815260200160002060010154811115151561045f57600080fd5b806000803373ffffffffffffffffffffffffffffffffffffffff1673ffffffffffffffffffffffffffffffffffffffff168152602001908152602001600020600101600082825403925050819055508173ffffffffffffffffffffffffffffffffffffffff166108fc829081150290604051600060405180830381858888f193505050501580156104f4573d6000803e3d6000fd5b508173ffffffffffffffffffffffffffffffffffffffff163373ffffffffffffffffffffffffffffffffffffffff167ff55ca25719cb074434c1ea78f384d736593dcb54b41c225854b329ec273426a7836040518082815260200191505060405180910390a35050565b6000818301905082811015151561057157fe5b809050929150505600a165627a7a7230582024becfff29777e46534430f7dfdf50eaa7309c85e3a446b6d65d3e800cf9d96d0029",
  "source": "pragma solidity ^0.4.24;\n//TODO: events\n\nimport \"./../node_modules/openzeppelin-solidity/contracts/math/SafeMath.sol\";\n\n/**\n * @title EtherTreasury\n * @author Rinke Hendriksen (rinkehendriksen@gmail.com)\n * @dev The Ether treasury registers who can spend funds and according to which parameters\n */\ncontract EtherTreasury {\n\n    using SafeMath for uint256;\n\n    mapping(address => etherAllowance) etherAllowanceRegistry;\n\n    struct etherAllowance {\n        bool isAllowed;\n        uint256 allowance;\n        uint256 whenUpdated;\n        uint256 budget;\n        uint256 budgetPeriod;\n    }\n\n    event EtherAllowanceIncreased(\n        address indexed callee,\n        uint256 newAllowance\n    );\n    event EtherSpent(\n        address indexed callee,\n        address indexed to,\n        uint256 amount\n    );\n\n\n    /**\n     * @dev can be called by an address with permission to spend to transfer Ether out of the DAO\n     * @param to The address to which the Ether of the DAO will go.\n     * @param amount The amount of Ethers which will be transferred.\n     */\n    function spend(address to, uint256 amount) public {\n        require(amount <= address(this).balance);\n        require(to != address(0));\n        require(amount <= etherAllowanceRegistry[msg.sender].allowance);\n        etherAllowanceRegistry[msg.sender].allowance -= amount;\n        to.transfer(amount);\n        emit EtherSpent(msg.sender, to, amount);\n    }\n\n    /**\n     * @dev can be called by an address with permission to spend to top-up the periodic allowance\n     */\n    function increaseEtherAllowance() {\n        require(etherAllowanceRegistry[msg.sender].isAllowed);\n        require(etherAllowanceRegistry[msg.sender].whenUpdated.add(etherAllowanceRegistry[msg.sender].budgetPeriod) <= now);\n        require(etherAllowanceRegistry[msg.sender].allowance <= 4 * etherAllowanceRegistry[msg.sender].budget);\n        etherAllowanceRegistry[msg.sender].whenUpdated = now;\n        etherAllowanceRegistry[msg.sender].allowance += etherAllowanceRegistry[msg.sender].budget;\n        emit EtherAllowanceIncreased(msg.sender, etherAllowanceRegistry[msg.sender].allowance);\n    }\n}\n",
  "sourcePath": "/home/rinke/DAPPS/SUBER/SuberDAO/contracts/EtherTreasury.sol",
  "compiler": {
    "name": "solc",
    "version": "0.4.24+commit.e67f0147.Emscripten.clang"
  },
  "schemaVersion": "2.0.0",
  "updatedAt": "2018-08-27T16:14:28.002Z"
}