{
  "contractName": "Master",
  "abi": [
    {
      "constant": true,
      "inputs": [],
      "name": "assemblyDuration",
      "outputs": [
        {
          "name": "",
          "type": "uint256"
        }
      ],
      "payable": false,
      "stateMutability": "view",
      "type": "function"
    },
    {
      "constant": true,
      "inputs": [],
      "name": "totalSupply",
      "outputs": [
        {
          "name": "",
          "type": "uint256"
        }
      ],
      "payable": false,
      "stateMutability": "view",
      "type": "function"
    },
    {
      "constant": true,
      "inputs": [],
      "name": "majorityQuotum",
      "outputs": [
        {
          "name": "",
          "type": "uint256"
        }
      ],
      "payable": false,
      "stateMutability": "view",
      "type": "function"
    },
    {
      "constant": false,
      "inputs": [
        {
          "name": "proposalId",
          "type": "bytes32"
        }
      ],
      "name": "makeFromCommitToRevealOrCancel",
      "outputs": [],
      "payable": false,
      "stateMutability": "nonpayable",
      "type": "function"
    },
    {
      "constant": true,
      "inputs": [],
      "name": "whenClosed",
      "outputs": [
        {
          "name": "",
          "type": "uint256"
        }
      ],
      "payable": false,
      "stateMutability": "view",
      "type": "function"
    },
    {
      "constant": true,
      "inputs": [],
      "name": "referendumQuotum",
      "outputs": [
        {
          "name": "",
          "type": "uint256"
        }
      ],
      "payable": false,
      "stateMutability": "view",
      "type": "function"
    },
    {
      "constant": false,
      "inputs": [
        {
          "name": "proposalId",
          "type": "bytes32"
        }
      ],
      "name": "makeFromRevealOrCancelToAccepted",
      "outputs": [],
      "payable": false,
      "stateMutability": "nonpayable",
      "type": "function"
    },
    {
      "constant": false,
      "inputs": [
        {
          "name": "proposalId",
          "type": "bytes32"
        },
        {
          "name": "secret",
          "type": "bytes32"
        },
        {
          "name": "myVote",
          "type": "bool"
        }
      ],
      "name": "ballotReveal",
      "outputs": [],
      "payable": false,
      "stateMutability": "nonpayable",
      "type": "function"
    },
    {
      "constant": false,
      "inputs": [
        {
          "name": "to",
          "type": "address"
        },
        {
          "name": "amount",
          "type": "uint256"
        }
      ],
      "name": "mint",
      "outputs": [],
      "payable": false,
      "stateMutability": "nonpayable",
      "type": "function"
    },
    {
      "constant": true,
      "inputs": [
        {
          "name": "",
          "type": "address"
        }
      ],
      "name": "tokenAllowanceRegistry",
      "outputs": [
        {
          "name": "isAllowed",
          "type": "bool"
        },
        {
          "name": "allowance",
          "type": "uint256"
        },
        {
          "name": "whenUpdated",
          "type": "uint256"
        },
        {
          "name": "budgetPeriod",
          "type": "uint256"
        },
        {
          "name": "budget",
          "type": "uint256"
        }
      ],
      "payable": false,
      "stateMutability": "view",
      "type": "function"
    },
    {
      "constant": true,
      "inputs": [],
      "name": "isUpgraded",
      "outputs": [
        {
          "name": "",
          "type": "bool"
        }
      ],
      "payable": false,
      "stateMutability": "view",
      "type": "function"
    },
    {
      "constant": false,
      "inputs": [],
      "name": "increaseTokenAllowance",
      "outputs": [],
      "payable": false,
      "stateMutability": "nonpayable",
      "type": "function"
    },
    {
      "constant": false,
      "inputs": [
        {
          "name": "proposalId",
          "type": "bytes32"
        }
      ],
      "name": "makeFromRevealOrCancelToRejected",
      "outputs": [],
      "payable": false,
      "stateMutability": "nonpayable",
      "type": "function"
    },
    {
      "constant": false,
      "inputs": [
        {
          "name": "proposalId",
          "type": "bytes32"
        }
      ],
      "name": "ballotSignal",
      "outputs": [],
      "payable": false,
      "stateMutability": "nonpayable",
      "type": "function"
    },
    {
      "constant": false,
      "inputs": [
        {
          "name": "proposalId",
          "type": "bytes32"
        }
      ],
      "name": "cancelSignal",
      "outputs": [],
      "payable": false,
      "stateMutability": "nonpayable",
      "type": "function"
    },
    {
      "constant": false,
      "inputs": [],
      "name": "declareAssembly",
      "outputs": [],
      "payable": false,
      "stateMutability": "nonpayable",
      "type": "function"
    },
    {
      "constant": false,
      "inputs": [
        {
          "name": "proposalId",
          "type": "bytes32"
        },
        {
          "name": "blindedVote",
          "type": "bytes32"
        }
      ],
      "name": "ballotCommit",
      "outputs": [],
      "payable": false,
      "stateMutability": "nonpayable",
      "type": "function"
    },
    {
      "constant": true,
      "inputs": [],
      "name": "statutaryGoalsHash",
      "outputs": [
        {
          "name": "",
          "type": "bytes32"
        }
      ],
      "payable": false,
      "stateMutability": "view",
      "type": "function"
    },
    {
      "constant": false,
      "inputs": [
        {
          "name": "proposalId",
          "type": "bytes32"
        },
        {
          "name": "secret",
          "type": "bytes32"
        },
        {
          "name": "myVote",
          "type": "bool"
        }
      ],
      "name": "cancelBallot",
      "outputs": [],
      "payable": false,
      "stateMutability": "nonpayable",
      "type": "function"
    },
    {
      "constant": true,
      "inputs": [],
      "name": "votingWindow",
      "outputs": [
        {
          "name": "",
          "type": "uint256"
        }
      ],
      "payable": false,
      "stateMutability": "view",
      "type": "function"
    },
    {
      "constant": true,
      "inputs": [],
      "name": "lastAssembly",
      "outputs": [
        {
          "name": "",
          "type": "uint256"
        }
      ],
      "payable": false,
      "stateMutability": "view",
      "type": "function"
    },
    {
      "constant": true,
      "inputs": [
        {
          "name": "",
          "type": "address"
        }
      ],
      "name": "lastProposed",
      "outputs": [
        {
          "name": "",
          "type": "uint256"
        }
      ],
      "payable": false,
      "stateMutability": "view",
      "type": "function"
    },
    {
      "constant": true,
      "inputs": [],
      "name": "revealOrCancelWindow",
      "outputs": [
        {
          "name": "",
          "type": "uint256"
        }
      ],
      "payable": false,
      "stateMutability": "view",
      "type": "function"
    },
    {
      "constant": false,
      "inputs": [
        {
          "name": "poorGuy",
          "type": "address"
        },
        {
          "name": "proposalId",
          "type": "bytes32"
        },
        {
          "name": "poorGuyVote",
          "type": "bool"
        },
        {
          "name": "poorGuyBlindedVote",
          "type": "bytes32"
        },
        {
          "name": "poorGuySecret",
          "type": "bytes32"
        }
      ],
      "name": "slash",
      "outputs": [],
      "payable": false,
      "stateMutability": "nonpayable",
      "type": "function"
    },
    {
      "constant": false,
      "inputs": [
        {
          "name": "proposalId",
          "type": "bytes32"
        },
        {
          "name": "_subject",
          "type": "bytes32"
        },
        {
          "name": "_effect",
          "type": "bytes32[1]"
        }
      ],
      "name": "makeFromDefaultToReferendum",
      "outputs": [],
      "payable": false,
      "stateMutability": "nonpayable",
      "type": "function"
    },
    {
      "constant": true,
      "inputs": [
        {
          "name": "",
          "type": "bytes32"
        }
      ],
      "name": "blindedVoteUsed",
      "outputs": [
        {
          "name": "",
          "type": "bool"
        }
      ],
      "payable": false,
      "stateMutability": "view",
      "type": "function"
    },
    {
      "constant": false,
      "inputs": [],
      "name": "payTribute",
      "outputs": [],
      "payable": true,
      "stateMutability": "payable",
      "type": "function"
    },
    {
      "constant": true,
      "inputs": [
        {
          "name": "",
          "type": "bytes32"
        }
      ],
      "name": "proposalRegistry",
      "outputs": [
        {
          "name": "tokensInFavor",
          "type": "uint256"
        },
        {
          "name": "tokensAgainst",
          "type": "uint256"
        },
        {
          "name": "subject",
          "type": "bytes32"
        },
        {
          "name": "status",
          "type": "uint8"
        },
        {
          "name": "closingTime",
          "type": "uint256"
        }
      ],
      "payable": false,
      "stateMutability": "view",
      "type": "function"
    },
    {
      "constant": false,
      "inputs": [],
      "name": "increaseEtherAllowance",
      "outputs": [],
      "payable": false,
      "stateMutability": "nonpayable",
      "type": "function"
    },
    {
      "constant": false,
      "inputs": [
        {
          "name": "proposalId",
          "type": "bytes32"
        }
      ],
      "name": "makeFromReferendumToCommit",
      "outputs": [],
      "payable": false,
      "stateMutability": "nonpayable",
      "type": "function"
    },
    {
      "constant": false,
      "inputs": [],
      "name": "endAssembly",
      "outputs": [],
      "payable": false,
      "stateMutability": "nonpayable",
      "type": "function"
    },
    {
      "constant": false,
      "inputs": [
        {
          "name": "to",
          "type": "address"
        },
        {
          "name": "amount",
          "type": "uint256"
        }
      ],
      "name": "spend",
      "outputs": [],
      "payable": false,
      "stateMutability": "nonpayable",
      "type": "function"
    },
    {
      "constant": false,
      "inputs": [
        {
          "name": "proposalId",
          "type": "bytes32"
        },
        {
          "name": "_subject",
          "type": "bytes32"
        },
        {
          "name": "_effect",
          "type": "bytes32[1]"
        }
      ],
      "name": "makeFromDefaultToCommit",
      "outputs": [],
      "payable": false,
      "stateMutability": "nonpayable",
      "type": "function"
    },
    {
      "constant": true,
      "inputs": [
        {
          "name": "_owner",
          "type": "address"
        }
      ],
      "name": "vouchersOf",
      "outputs": [
        {
          "name": "",
          "type": "uint256"
        }
      ],
      "payable": false,
      "stateMutability": "view",
      "type": "function"
    },
    {
      "constant": false,
      "inputs": [
        {
          "name": "proposalId",
          "type": "bytes32"
        }
      ],
      "name": "makeFromReferendumToRejected",
      "outputs": [],
      "payable": false,
      "stateMutability": "nonpayable",
      "type": "function"
    },
    {
      "constant": true,
      "inputs": [],
      "name": "assemblyInterval",
      "outputs": [
        {
          "name": "",
          "type": "uint256"
        }
      ],
      "payable": false,
      "stateMutability": "view",
      "type": "function"
    },
    {
      "constant": true,
      "inputs": [],
      "name": "statutaryRulesHash",
      "outputs": [
        {
          "name": "",
          "type": "bytes32"
        }
      ],
      "payable": false,
      "stateMutability": "view",
      "type": "function"
    },
    {
      "constant": true,
      "inputs": [],
      "name": "minimumVouchersToPropose",
      "outputs": [
        {
          "name": "",
          "type": "uint256"
        }
      ],
      "payable": false,
      "stateMutability": "view",
      "type": "function"
    },
    {
      "inputs": [
        {
          "name": "_statutaryGoalsHash",
          "type": "bytes32"
        },
        {
          "name": "_statutaryRulesHash",
          "type": "bytes32"
        },
        {
          "name": "lastVote",
          "type": "uint256"
        }
      ],
      "payable": false,
      "stateMutability": "nonpayable",
      "type": "constructor"
    },
    {
      "payable": true,
      "stateMutability": "payable",
      "type": "fallback"
    },
    {
      "anonymous": false,
      "inputs": [
        {
          "indexed": true,
          "name": "callee",
          "type": "address"
        },
        {
          "indexed": false,
          "name": "proposalId",
          "type": "bytes32"
        }
      ],
      "name": "logUpgraded",
      "type": "event"
    },
    {
      "anonymous": false,
      "inputs": [
        {
          "indexed": true,
          "name": "callee",
          "type": "address"
        },
        {
          "indexed": false,
          "name": "amount",
          "type": "uint256"
        }
      ],
      "name": "sponsorShipReceived",
      "type": "event"
    },
    {
      "anonymous": false,
      "inputs": [
        {
          "indexed": true,
          "name": "callee",
          "type": "address"
        },
        {
          "indexed": false,
          "name": "newAllowance",
          "type": "uint256"
        }
      ],
      "name": "EtherAllowanceIncreased",
      "type": "event"
    },
    {
      "anonymous": false,
      "inputs": [
        {
          "indexed": true,
          "name": "callee",
          "type": "address"
        },
        {
          "indexed": true,
          "name": "to",
          "type": "address"
        },
        {
          "indexed": false,
          "name": "amount",
          "type": "uint256"
        }
      ],
      "name": "EtherSpent",
      "type": "event"
    },
    {
      "anonymous": false,
      "inputs": [
        {
          "indexed": true,
          "name": "callee",
          "type": "address"
        },
        {
          "indexed": true,
          "name": "poorGuy",
          "type": "address"
        },
        {
          "indexed": false,
          "name": "amount",
          "type": "uint256"
        }
      ],
      "name": "Slashed",
      "type": "event"
    },
    {
      "anonymous": false,
      "inputs": [
        {
          "indexed": true,
          "name": "callee",
          "type": "address"
        }
      ],
      "name": "AssemblyDeclared",
      "type": "event"
    },
    {
      "anonymous": false,
      "inputs": [
        {
          "indexed": true,
          "name": "callee",
          "type": "address"
        }
      ],
      "name": "AssemblyCancelled",
      "type": "event"
    },
    {
      "anonymous": false,
      "inputs": [
        {
          "indexed": true,
          "name": "callee",
          "type": "address"
        },
        {
          "indexed": true,
          "name": "proposalId",
          "type": "bytes32"
        },
        {
          "indexed": false,
          "name": "newStatus",
          "type": "uint8"
        }
      ],
      "name": "ProposalStatusChanged",
      "type": "event"
    },
    {
      "anonymous": false,
      "inputs": [
        {
          "indexed": true,
          "name": "callee",
          "type": "address"
        },
        {
          "indexed": true,
          "name": "proposalId",
          "type": "bytes32"
        }
      ],
      "name": "ReferendumProposed",
      "type": "event"
    },
    {
      "anonymous": false,
      "inputs": [
        {
          "indexed": true,
          "name": "callee",
          "type": "address"
        },
        {
          "indexed": true,
          "name": "proposalId",
          "type": "bytes32"
        }
      ],
      "name": "ProposalProposed",
      "type": "event"
    },
    {
      "anonymous": false,
      "inputs": [
        {
          "indexed": true,
          "name": "callee",
          "type": "address"
        },
        {
          "indexed": true,
          "name": "proposalId",
          "type": "bytes32"
        }
      ],
      "name": "AcceptanceSignalled",
      "type": "event"
    },
    {
      "anonymous": false,
      "inputs": [
        {
          "indexed": true,
          "name": "callee",
          "type": "address"
        },
        {
          "indexed": true,
          "name": "proposalId",
          "type": "bytes32"
        },
        {
          "indexed": false,
          "name": "blindedVote",
          "type": "bytes32"
        }
      ],
      "name": "BallotCommitted",
      "type": "event"
    },
    {
      "anonymous": false,
      "inputs": [
        {
          "indexed": true,
          "name": "callee",
          "type": "address"
        },
        {
          "indexed": true,
          "name": "proposalId",
          "type": "bytes32"
        },
        {
          "indexed": false,
          "name": "vote",
          "type": "bool"
        },
        {
          "indexed": false,
          "name": "secret",
          "type": "bytes32"
        },
        {
          "indexed": false,
          "name": "amountOfVouchers",
          "type": "uint256"
        }
      ],
      "name": "BallotRevealed",
      "type": "event"
    },
    {
      "anonymous": false,
      "inputs": [
        {
          "indexed": true,
          "name": "callee",
          "type": "address"
        },
        {
          "indexed": true,
          "name": "proposalId",
          "type": "bytes32"
        },
        {
          "indexed": false,
          "name": "vote",
          "type": "bool"
        },
        {
          "indexed": false,
          "name": "secret",
          "type": "bytes32"
        },
        {
          "indexed": false,
          "name": "amountOfVouchers",
          "type": "uint256"
        }
      ],
      "name": "BallotCancelled",
      "type": "event"
    },
    {
      "anonymous": false,
      "inputs": [
        {
          "indexed": true,
          "name": "callee",
          "type": "address"
        },
        {
          "indexed": false,
          "name": "newAllowance",
          "type": "uint256"
        }
      ],
      "name": "TokenAllowanceIncreased",
      "type": "event"
    },
    {
      "anonymous": false,
      "inputs": [
        {
          "indexed": true,
          "name": "callee",
          "type": "address"
        },
        {
          "indexed": true,
          "name": "to",
          "type": "address"
        },
        {
          "indexed": false,
          "name": "amount",
          "type": "uint256"
        }
      ],
      "name": "Minted",
      "type": "event"
    },
    {
      "constant": false,
      "inputs": [
        {
          "name": "proposalId",
          "type": "bytes32"
        }
      ],
      "name": "setSuperUpgrade",
      "outputs": [],
      "payable": false,
      "stateMutability": "nonpayable",
      "type": "function"
    },
    {
      "constant": false,
      "inputs": [
        {
          "name": "proposalId",
          "type": "bytes32"
        }
      ],
      "name": "setReferendumQuotum",
      "outputs": [],
      "payable": false,
      "stateMutability": "nonpayable",
      "type": "function"
    },
    {
      "constant": false,
      "inputs": [
        {
          "name": "proposalId",
          "type": "bytes32"
        }
      ],
      "name": "setMajorityQuotum",
      "outputs": [],
      "payable": false,
      "stateMutability": "nonpayable",
      "type": "function"
    },
    {
      "constant": false,
      "inputs": [
        {
          "name": "proposalId",
          "type": "bytes32"
        }
      ],
      "name": "setMinimumVouchersToPropose",
      "outputs": [],
      "payable": false,
      "stateMutability": "nonpayable",
      "type": "function"
    },
    {
      "constant": false,
      "inputs": [
        {
          "name": "proposalId",
          "type": "bytes32"
        }
      ],
      "name": "setAssemblyInterval",
      "outputs": [],
      "payable": false,
      "stateMutability": "nonpayable",
      "type": "function"
    },
    {
      "constant": false,
      "inputs": [
        {
          "name": "proposalId",
          "type": "bytes32"
        }
      ],
      "name": "setVotingWindow",
      "outputs": [],
      "payable": false,
      "stateMutability": "nonpayable",
      "type": "function"
    },
    {
      "constant": false,
      "inputs": [
        {
          "name": "proposalId",
          "type": "bytes32"
        }
      ],
      "name": "setBalances",
      "outputs": [],
      "payable": false,
      "stateMutability": "nonpayable",
      "type": "function"
    },
    {
      "constant": false,
      "inputs": [
        {
          "name": "proposalId",
          "type": "bytes32"
        }
      ],
      "name": "setEtherPermission",
      "outputs": [],
      "payable": false,
      "stateMutability": "nonpayable",
      "type": "function"
    },
    {
      "constant": false,
      "inputs": [
        {
          "name": "proposalId",
          "type": "bytes32"
        }
      ],
      "name": "setEtherBudget",
      "outputs": [],
      "payable": false,
      "stateMutability": "nonpayable",
      "type": "function"
    },
    {
      "constant": false,
      "inputs": [
        {
          "name": "proposalId",
          "type": "bytes32"
        }
      ],
      "name": "setEtherPeriod",
      "outputs": [],
      "payable": false,
      "stateMutability": "nonpayable",
      "type": "function"
    },
    {
      "constant": false,
      "inputs": [
        {
          "name": "proposalId",
          "type": "bytes32"
        }
      ],
      "name": "setTokenPermission",
      "outputs": [],
      "payable": false,
      "stateMutability": "nonpayable",
      "type": "function"
    },
    {
      "constant": false,
      "inputs": [
        {
          "name": "proposalId",
          "type": "bytes32"
        }
      ],
      "name": "setTokenBudget",
      "outputs": [],
      "payable": false,
      "stateMutability": "nonpayable",
      "type": "function"
    },
    {
      "constant": false,
      "inputs": [
        {
          "name": "proposalId",
          "type": "bytes32"
        }
      ],
      "name": "setTokenPeriod",
      "outputs": [],
      "payable": false,
      "stateMutability": "nonpayable",
      "type": "function"
    },
    {
      "constant": false,
      "inputs": [
        {
          "name": "proposalId",
          "type": "bytes32"
        }
      ],
      "name": "setGoals",
      "outputs": [],
      "payable": false,
      "stateMutability": "nonpayable",
      "type": "function"
    },
    {
      "constant": false,
      "inputs": [
        {
          "name": "proposalId",
          "type": "bytes32"
        }
      ],
      "name": "setRules",
      "outputs": [],
      "payable": false,
      "stateMutability": "nonpayable",
      "type": "function"
    }
  ],
  "bytecode": "0x608060405262030d40600355620927c060045562180f606005556201dfb06006556202a3006007556201518060085560006009556000600a5534801561004457600080fd5b5060405160608062005b1d83398101806040528101908080519060200190929190805190602001909291908051906020019092919050505082601281600019169055508160138160001916905550505050615a7880620000a56000396000f30060806040526004361061027d576000357c0100000000000000000000000000000000000000000000000000000000900463ffffffff16806315b10b311461028257806318160ddd146102ad5780631bfff58b146102d85780631e955399146103095780631f92a8621461033457806325fb734a146103655780632d94a628146103965780632e1cfbed146103c757806337a2c516146103f257806338a02d0c1461041d57806338e5ba061461044e5780633b1a0af91461049957806340c10f19146104ca578063413cea251461051757806342c80fc91461058e57806348a475b5146105bd5780635245b801146105ee57806357ad4c7f146106055780635905d5c5146106365780635cad0fc0146106675780635e170518146106985780635e9c2699146106c95780635e9da234146106e057806368752b081461071f5780636aa59717146107525780636eaccb4b1461079d57806372a6300a146107ce578063776486a4146107f95780637d6067c614610824578063809bc7ca1461087b57806384320462146108ac578063850f2192146108d75780638848e84b146109505780638950ee2d146109be578063896b355514610a075780638d7e2c0d14610a1157806395cc40b914610a42578063987bbae714610ab95780639bca331114610aea578063a1ea669c14610b01578063a501e83114610b32578063ae8887d614610b63578063af7d6ca314610b7a578063b0c61b7014610bc7578063b4a0979b14610bf8578063be46ac4614610c66578063ce93da7414610c97578063d12d7d0714610cee578063d6811dbc14610d1f578063ec3f967414610d50578063ecae479114610d7b578063f918823f14610dae578063fdd55a4714610dd9575b600080fd5b34801561028e57600080fd5b50610297610e0a565b6040518082815260200191505060405180910390f35b3480156102b957600080fd5b506102c2610e10565b6040518082815260200191505060405180910390f35b3480156102e457600080fd5b506103076004803603810190808035600019169060200190929190505050610e19565b005b34801561031557600080fd5b5061031e611026565b6040518082815260200191505060405180910390f35b34801561034057600080fd5b50610363600480360381019080803560001916906020019092919050505061102c565b005b34801561037157600080fd5b506103946004803603810190808035600019169060200190929190505050611327565b005b3480156103a257600080fd5b506103c56004803603810190808035600019169060200190929190505050611580565b005b3480156103d357600080fd5b506103dc6116c9565b6040518082815260200191505060405180910390f35b3480156103fe57600080fd5b506104076116cf565b6040518082815260200191505060405180910390f35b34801561042957600080fd5b5061044c60048036038101908080356000191690602001909291905050506116d5565b005b34801561045a57600080fd5b506104976004803603810190808035600019169060200190929190803560001916906020019092919080351515906020019092919050505061185a565b005b3480156104a557600080fd5b506104c86004803603810190808035600019169060200190929190505050611cff565b005b3480156104d657600080fd5b50610515600480360381019080803573ffffffffffffffffffffffffffffffffffffffff16906020019092919080359060200190929190505050611f42565b005b34801561052357600080fd5b50610558600480360381019080803573ffffffffffffffffffffffffffffffffffffffff169060200190929190505050612093565b60405180861515151581526020018581526020018481526020018381526020018281526020019550505050505060405180910390f35b34801561059a57600080fd5b506105a36120d6565b604051808215151515815260200191505060405180910390f35b3480156105c957600080fd5b506105ec60048036038101908080356000191690602001909291905050506120e9565b005b3480156105fa57600080fd5b506106036122d9565b005b34801561061157600080fd5b50610634600480360381019080803560001916906020019092919050505061257f565b005b34801561064257600080fd5b506106656004803603810190808035600019169060200190929190505050612703565b005b34801561067357600080fd5b5061069660048036038101908080356000191690602001909291905050506128e8565b005b3480156106a457600080fd5b506106c76004803603810190808035600019169060200190929190505050612a8b565b005b3480156106d557600080fd5b506106de612e03565b005b3480156106ec57600080fd5b5061071d60048036038101908080356000191690602001909291908035600019169060200190929190505050612e88565b005b34801561072b57600080fd5b506107346131af565b60405180826000191660001916815260200191505060405180910390f35b34801561075e57600080fd5b5061079b600480360381019080803560001916906020019092919080356000191690602001909291908035151590602001909291905050506131b5565b005b3480156107a957600080fd5b506107cc6004803603810190808035600019169060200190929190505050613541565b005b3480156107da57600080fd5b506107e3613731565b6040518082815260200191505060405180910390f35b34801561080557600080fd5b5061080e613737565b6040518082815260200191505060405180910390f35b34801561083057600080fd5b50610865600480360381019080803573ffffffffffffffffffffffffffffffffffffffff16906020019092919050505061373d565b6040518082815260200191505060405180910390f35b34801561088757600080fd5b506108aa6004803603810190808035600019169060200190929190505050613755565b005b3480156108b857600080fd5b506108c16138f9565b6040518082815260200191505060405180910390f35b3480156108e357600080fd5b5061094e600480360381019080803573ffffffffffffffffffffffffffffffffffffffff1690602001909291908035600019169060200190929190803515159060200190929190803560001916906020019092919080356000191690602001909291905050506138ff565b005b34801561095c57600080fd5b506109bc600480360381019080803560001916906020019092919080356000191690602001909291908060200190600180602002604051908101604052809291908260016020028082843782019150505050509192919290505050613b7f565b005b3480156109ca57600080fd5b506109ed6004803603810190808035600019169060200190929190505050613cff565b604051808215151515815260200191505060405180910390f35b610a0f613d1f565b005b348015610a1d57600080fd5b50610a406004803603810190808035600019169060200190929190505050613d9a565b005b348015610a4e57600080fd5b50610a716004803603810190808035600019169060200190929190505050614112565b604051808681526020018581526020018460001916600019168152602001836007811115610a9b57fe5b60ff1681526020018281526020019550505050505060405180910390f35b348015610ac557600080fd5b50610ae86004803603810190808035600019169060200190929190505050614155565b005b348015610af657600080fd5b50610aff614373565b005b348015610b0d57600080fd5b50610b306004803603810190808035600019169060200190929190505050614674565b005b348015610b3e57600080fd5b50610b616004803603810190808035600019169060200190929190505050614857565b005b348015610b6f57600080fd5b50610b78614a75565b005b348015610b8657600080fd5b50610bc5600480360381019080803573ffffffffffffffffffffffffffffffffffffffff16906020019092919080359060200190929190505050614b44565b005b348015610bd357600080fd5b50610bf66004803603810190808035600019169060200190929190505050614cf7565b005b348015610c0457600080fd5b50610c64600480360381019080803560001916906020019092919080356000191690602001909291908060200190600180602002604051908101604052809291908260016020028082843782019150505050509192919290505050614e9b565b005b348015610c7257600080fd5b50610c9560048036038101908080356000191690602001909291905050506150d8565b005b348015610ca357600080fd5b50610cd8600480360381019080803573ffffffffffffffffffffffffffffffffffffffff1690602001909291905050506152f6565b6040518082815260200191505060405180910390f35b348015610cfa57600080fd5b50610d1d600480360381019080803560001916906020019092919050505061533f565b005b348015610d2b57600080fd5b50610d4e60048036038101908080356000191690602001909291905050506154e3565b005b348015610d5c57600080fd5b50610d65615605565b6040518082815260200191505060405180910390f35b348015610d8757600080fd5b50610d9061560b565b60405180826000191660001916815260200191505060405180910390f35b348015610dba57600080fd5b50610dc3615611565b6040518082815260200191505060405180910390f35b348015610de557600080fd5b50610e086004803603810190808035600019169060200190929190505050615617565b005b60065481565b60008054905090565b601060009054906101000a900460ff16151515610e3557600080fd5b8060046007811115610e4357fe5b600d6000836000191660001916815260200190815260200160002060040160009054906101000a900460ff166007811115610e7a57fe5b141515610e8657600080fd5b817f53555045525f555047524144450000000000000000000000000000000000000060001916600d600085600019166000191681526020019081526020016000206003015460001916141515610edb57600080fd5b600460055402600d600085600019166000191681526020019081526020016000206006016000815481101515610f0d57fe5b90600052602060002001546001900411151515610f2957600080fd5b6001601060006101000a81548160ff021916908315150217905550600d600084600019166000191681526020019081526020016000206006016000815481101515610f7057fe5b90600052602060002001546001900460118190555060056007811115610f9257fe5b600d6000836000191660001916815260200190815260200160002060040160009054906101000a900460ff166007811115610fc957fe5b50503373ffffffffffffffffffffffffffffffffffffffff167f6c24efcf011d4307695364bb80d6c4ff2a8ecc10c22c3a1c74a7889ede3dd7468260405180826000191660001916815260200191505060405180910390a2505050565b60045481565b601060009054906101000a900460ff1615151561104857600080fd5b806004600781111561105657fe5b600d6000836000191660001916815260200190815260200160002060040160009054906101000a900460ff16600781111561108d57fe5b14151561109957600080fd5b817f42414c414e43455300000000000000000000000000000000000000000000000060001916600d6000856000191660001916815260200190815260200160002060030154600019161415156110ee57600080fd5b61113d600d60008560001916600019168152602001908152602001600020600601600081548110151561111d57fe5b90600052602060002001546001900460005461583590919063ffffffff16565b600081905550611209600d60008560001916600019168152602001908152602001600020600601600081548110151561117257fe5b90600052602060002001546001900460016000600d6000886000191660001916815260200190815260200160002060060160018154811015156111b157fe5b90600052602060002001546001900473ffffffffffffffffffffffffffffffffffffffff1673ffffffffffffffffffffffffffffffffffffffff1681526020019081526020016000205461583590919063ffffffff16565b60016000600d60008760001916600019168152602001908152602001600020600601600181548110151561123957fe5b90600052602060002001546001900473ffffffffffffffffffffffffffffffffffffffff1673ffffffffffffffffffffffffffffffffffffffff168152602001908152602001600020819055506005600781111561129357fe5b600d6000836000191660001916815260200190815260200160002060040160009054906101000a900460ff1660078111156112ca57fe5b50503373ffffffffffffffffffffffffffffffffffffffff167f6c24efcf011d4307695364bb80d6c4ff2a8ecc10c22c3a1c74a7889ede3dd7468260405180826000191660001916815260200191505060405180910390a2505050565b601060009054906101000a900460ff1615151561134357600080fd5b806004600781111561135157fe5b600d6000836000191660001916815260200190815260200160002060040160009054906101000a900460ff16600781111561138857fe5b14151561139457600080fd5b817f415353454d424c595f504552494f44000000000000000000000000000000000060001916600d6000856000191660001916815260200190815260200160002060030154600019161415156113e957600080fd5b600554600460055402101515156113fc57fe5b600460055481151561140a57fe5b04600d60008560001916600019168152602001908152602001600020600601600081548110151561143757fe5b906000526020600020015460019004101580156114935750600460055402600d60008560001916600019168152602001908152602001600020600601600081548110151561148157fe5b90600052602060002001546001900411155b151561149e57600080fd5b600d6000846000191660001916815260200190815260200160002060060160008154811015156114ca57fe5b906000526020600020015460019004600581905550600560078111156114ec57fe5b600d6000836000191660001916815260200190815260200160002060040160009054906101000a900460ff16600781111561152357fe5b50503373ffffffffffffffffffffffffffffffffffffffff167f6c24efcf011d4307695364bb80d6c4ff2a8ecc10c22c3a1c74a7889ede3dd7468260405180826000191660001916815260200191505060405180910390a2505050565b6002600781111561158d57fe5b600d6000836000191660001916815260200190815260200160002060040160009054906101000a900460ff1660078111156115c457fe5b1415156115d057600080fd5b42600d6000836000191660001916815260200190815260200160002060050154111515156115fd57600080fd5b6008544201600d60008360001916600019168152602001908152602001600020600501819055506003600d6000836000191660001916815260200190815260200160002060040160006101000a81548160ff0219169083600781111561165f57fe5b021790555080600019163373ffffffffffffffffffffffffffffffffffffffff167f7cd3cb2d04af5d6a228dbe135cef8bd59865b1da6087526282b538e62e10be626003604051808260078111156116b357fe5b60ff16815260200191505060405180910390a350565b60115481565b60035481565b600360078111156116e257fe5b600d6000836000191660001916815260200190815260200160002060040160009054906101000a900460ff16600781111561171957fe5b14151561172557600080fd5b42600d60008360001916600019168152602001908152602001600020600501541115151561175257600080fd5b600454620f4240600d6000846000191660001916815260200190815260200160002060020154600d60008560001916600019168152602001908152602001600020600101548115156117a057fe5b0402101515156117af57600080fd5b600460078111156117bc57fe5b600d6000836000191660001916815260200190815260200160002060040160009054906101000a900460ff1660078111156117f357fe5b505080600019163373ffffffffffffffffffffffffffffffffffffffff167f7cd3cb2d04af5d6a228dbe135cef8bd59865b1da6087526282b538e62e10be6260046040518082600781111561184457fe5b60ff16815260200191505060405180910390a350565b6003600781111561186757fe5b600d6000856000191660001916815260200190815260200160002060040160009054906101000a900460ff16600781111561189e57fe5b1415156118aa57600080fd5b600d6000846000191660001916815260200190815260200160002060000160003373ffffffffffffffffffffffffffffffffffffffff1673ffffffffffffffffffffffffffffffffffffffff168152602001908152602001600020600001546000191681836040516020018083151515157f01000000000000000000000000000000000000000000000000000000000000000281526001018260001916600019168152602001925050506040516020818303038152906040526040518082805190602001908083835b6020831015156119985780518252602082019150602081019050602083039250611973565b6001836020036101000a0380198251168184511680821785525050505050509050019150506040518091039020600019161415156119d557600080fd5b600060048111156119e257fe5b600d6000856000191660001916815260200190815260200160002060000160003373ffffffffffffffffffffffffffffffffffffffff1673ffffffffffffffffffffffffffffffffffffffff16815260200190815260200160002060010160009054906101000a900460ff166004811115611a5957fe5b1480611ae6575060016004811115611a6d57fe5b600d6000856000191660001916815260200190815260200160002060000160003373ffffffffffffffffffffffffffffffffffffffff1673ffffffffffffffffffffffffffffffffffffffff16815260200190815260200160002060010160009054906101000a900460ff166004811115611ae457fe5b145b80611b72575060026004811115611af957fe5b600d6000856000191660001916815260200190815260200160002060000160003373ffffffffffffffffffffffffffffffffffffffff1673ffffffffffffffffffffffffffffffffffffffff16815260200190815260200160002060010160009054906101000a900460ff166004811115611b7057fe5b145b1515611b7d57600080fd5b60036004811115611b8a57fe5b600d6000856000191660001916815260200190815260200160002060000160003373ffffffffffffffffffffffffffffffffffffffff1673ffffffffffffffffffffffffffffffffffffffff16815260200190815260200160002060010160009054906101000a900460ff166004811115611c0157fe5b50508015611c4857611c42611c15336152f6565b600d600086600019166000191681526020019081526020016000206001015461584e90919063ffffffff16565b50611c83565b611c81611c54336152f6565b600d600086600019166000191681526020019081526020016000206002015461584e90919063ffffffff16565b505b82600019163373ffffffffffffffffffffffffffffffffffffffff167f3e5d76c126ee95f97bc31144c4ee6f56154b3ef9591ccd0ee2ac9e8663b883ab8385611ccb336152f6565b60405180841515151581526020018360001916600019168152602001828152602001935050505060405180910390a3505050565b601060009054906101000a900460ff16151515611d1b57600080fd5b8060046007811115611d2957fe5b600d6000836000191660001916815260200190815260200160002060040160009054906101000a900460ff166007811115611d6057fe5b141515611d6c57600080fd5b817f564f54494e475f57494e444f570000000000000000000000000000000000000060001916600d600085600019166000191681526020019081526020016000206003015460001916141515611dc157600080fd5b6004600754811515611dcf57fe5b04600d600085600019166000191681526020019081526020016000206006016000815481101515611dfc57fe5b90600052602060002001546001900410158015611e555750600554600d600085600019166000191681526020019081526020016000206006016000815481101515611e4357fe5b90600052602060002001546001900411155b1515611e6057600080fd5b600d600084600019166000191681526020019081526020016000206006016000815481101515611e8c57fe5b90600052602060002001546001900460078190555060056007811115611eae57fe5b600d6000836000191660001916815260200190815260200160002060040160009054906101000a900460ff166007811115611ee557fe5b50503373ffffffffffffffffffffffffffffffffffffffff167f6c24efcf011d4307695364bb80d6c4ff2a8ecc10c22c3a1c74a7889ede3dd7468260405180826000191660001916815260200191505060405180910390a2505050565b600073ffffffffffffffffffffffffffffffffffffffff168273ffffffffffffffffffffffffffffffffffffffff1614151515611f7e57600080fd5b600260003373ffffffffffffffffffffffffffffffffffffffff1673ffffffffffffffffffffffffffffffffffffffff168152602001908152602001600020600101548111151515611fcf57600080fd5b80600260003373ffffffffffffffffffffffffffffffffffffffff1673ffffffffffffffffffffffffffffffffffffffff16815260200190815260200160002060010160008282540392505081905550612029828261586a565b508173ffffffffffffffffffffffffffffffffffffffff163373ffffffffffffffffffffffffffffffffffffffff167f9d228d69b5fdb8d273a2336f8fb8612d039631024ea9bf09c424a9503aa078f0836040518082815260200191505060405180910390a35050565b60026020528060005260406000206000915090508060000160009054906101000a900460ff16908060010154908060020154908060030154908060040154905085565b601060009054906101000a900460ff1681565b601060009054906101000a900460ff1615151561210557600080fd5b806004600781111561211357fe5b600d6000836000191660001916815260200190815260200160002060040160009054906101000a900460ff16600781111561214a57fe5b14151561215657600080fd5b817f5245464552454e44554d5f51554f54554d00000000000000000000000000000060001916600d6000856000191660001916815260200190815260200160002060030154600019161415156121ab57600080fd5b620f4240600d6000856000191660001916815260200190815260200160002060060160008154811015156121db57fe5b906000526020600020015460019004111515156121f757600080fd5b600d60008460001916600019168152602001908152602001600020600601600081548110151561222357fe5b9060005260206000200154600190046003819055506005600781111561224557fe5b600d6000836000191660001916815260200190815260200160002060040160009054906101000a900460ff16600781111561227c57fe5b50503373ffffffffffffffffffffffffffffffffffffffff167f6c24efcf011d4307695364bb80d6c4ff2a8ecc10c22c3a1c74a7889ede3dd7468260405180826000191660001916815260200191505060405180910390a2505050565b600260003373ffffffffffffffffffffffffffffffffffffffff1673ffffffffffffffffffffffffffffffffffffffff16815260200190815260200160002060000160009054906101000a900460ff16151561233457600080fd5b42600260003373ffffffffffffffffffffffffffffffffffffffff1673ffffffffffffffffffffffffffffffffffffffff16815260200190815260200160002060030154600260003373ffffffffffffffffffffffffffffffffffffffff1673ffffffffffffffffffffffffffffffffffffffff1681526020019081526020016000206002015401111515156123c957600080fd5b42600260003373ffffffffffffffffffffffffffffffffffffffff1673ffffffffffffffffffffffffffffffffffffffff168152602001908152602001600020600201819055506124a7600260003373ffffffffffffffffffffffffffffffffffffffff1673ffffffffffffffffffffffffffffffffffffffff16815260200190815260200160002060040154600260003373ffffffffffffffffffffffffffffffffffffffff1673ffffffffffffffffffffffffffffffffffffffff1681526020019081526020016000206001015461584e90919063ffffffff16565b600260003373ffffffffffffffffffffffffffffffffffffffff1673ffffffffffffffffffffffffffffffffffffffff168152602001908152602001600020600101819055503373ffffffffffffffffffffffffffffffffffffffff167f6c789b5efdea0cb7e835f82832729dd034dc5f31ee5bc8d41a9386b8340e99c0600260003373ffffffffffffffffffffffffffffffffffffffff1673ffffffffffffffffffffffffffffffffffffffff168152602001908152602001600020600101546040518082815260200191505060405180910390a2565b6003600781111561258c57fe5b600d6000836000191660001916815260200190815260200160002060040160009054906101000a900460ff1660078111156125c357fe5b1415156125cf57600080fd5b42600d6000836000191660001916815260200190815260200160002060050154111515156125fc57600080fd5b600454620f4240600d6000846000191660001916815260200190815260200160002060020154600d600085600019166000191681526020019081526020016000206001015481151561264a57fe5b040210151561265857600080fd5b6006600781111561266557fe5b600d6000836000191660001916815260200190815260200160002060040160009054906101000a900460ff16600781111561269c57fe5b505080600019163373ffffffffffffffffffffffffffffffffffffffff167f7cd3cb2d04af5d6a228dbe135cef8bd59865b1da6087526282b538e62e10be626006604051808260078111156126ed57fe5b60ff16815260200191505060405180910390a350565b6001600781111561271057fe5b600d6000836000191660001916815260200190815260200160002060040160009054906101000a900460ff16600781111561274757fe5b14151561275357600080fd5b6000600481111561276057fe5b600d6000836000191660001916815260200190815260200160002060000160003373ffffffffffffffffffffffffffffffffffffffff1673ffffffffffffffffffffffffffffffffffffffff16815260200190815260200160002060010160009054906101000a900460ff1660048111156127d757fe5b1415156127e357600080fd5b6001600d6000836000191660001916815260200190815260200160002060000160003373ffffffffffffffffffffffffffffffffffffffff1673ffffffffffffffffffffffffffffffffffffffff16815260200190815260200160002060010160006101000a81548160ff0219169083600481111561285e57fe5b021790555061289c61286f336152f6565b600d600084600019166000191681526020019081526020016000206001015461584e90919063ffffffff16565b5080600019163373ffffffffffffffffffffffffffffffffffffffff167f98a9d348ac42ffcd4e388245eb19954bb535468e46278e4dba447caf74a88a3960405160405180910390a350565b600160078111156128f557fe5b600d6000836000191660001916815260200190815260200160002060040160009054906101000a900460ff16600781111561292c57fe5b14151561293857600080fd5b6001600481111561294557fe5b600d6000836000191660001916815260200190815260200160002060000160003373ffffffffffffffffffffffffffffffffffffffff1673ffffffffffffffffffffffffffffffffffffffff16815260200190815260200160002060010160009054906101000a900460ff1660048111156129bc57fe5b1415156129c857600080fd5b612a016129d4336152f6565b600d600084600019166000191681526020019081526020016000206001015461583590919063ffffffff16565b5060026004811115612a0f57fe5b600d6000836000191660001916815260200190815260200160002060000160003373ffffffffffffffffffffffffffffffffffffffff1673ffffffffffffffffffffffffffffffffffffffff16815260200190815260200160002060010160009054906101000a900460ff166004811115612a8657fe5b505050565b601060009054906101000a900460ff16151515612aa757600080fd5b8060046007811115612ab557fe5b600d6000836000191660001916815260200190815260200160002060040160009054906101000a900460ff166007811115612aec57fe5b141515612af857600080fd5b817f45544845525f5045524d495353494f4e0000000000000000000000000000000060001916600d600085600019166000191681526020019081526020016000206003015460001916141515612b4d57600080fd5b600060010260001916600d600085600019166000191681526020019081526020016000206006016000815481101515612b8257fe5b9060005260206000200154600019161480612bdd57506001800260001916600d600085600019166000191681526020019081526020016000206006016000815481101515612bcc57fe5b906000526020600020015460001916145b1515612be857600080fd5b600060010260001916600d600085600019166000191681526020019081526020016000206006016000815481101515612c1d57fe5b9060005260206000200154600019161415612ccc576000600f6000600d600087600019166000191681526020019081526020016000206006016001815481101515612c6457fe5b90600052602060002001546001900473ffffffffffffffffffffffffffffffffffffffff1673ffffffffffffffffffffffffffffffffffffffff16815260200190815260200160002060000160006101000a81548160ff021916908315150217905550612d62565b6001600f6000600d600087600019166000191681526020019081526020016000206006016001815481101515612cfe57fe5b90600052602060002001546001900473ffffffffffffffffffffffffffffffffffffffff1673ffffffffffffffffffffffffffffffffffffffff16815260200190815260200160002060000160006101000a81548160ff0219169083151502179055505b60056007811115612d6f57fe5b600d6000836000191660001916815260200190815260200160002060040160009054906101000a900460ff166007811115612da657fe5b50503373ffffffffffffffffffffffffffffffffffffffff167f6c24efcf011d4307695364bb80d6c4ff2a8ecc10c22c3a1c74a7889ede3dd7468260405180826000191660001916815260200191505060405180910390a2505050565b42612e1b600554600a5461584e90919063ffffffff16565b10151515612e2857600080fd5b6001600b60006101000a81548160ff0219169083151502179055503373ffffffffffffffffffffffffffffffffffffffff167f5a9f3dca4f11ce5758212591c09fcbf4327907998551dfadf1eadafe2f66db5660405160405180910390a2565b600e6000826000191660001916815260200190815260200160002060009054906101000a900460ff16151515612ebd57600080fd5b60026007811115612eca57fe5b600d6000846000191660001916815260200190815260200160002060040160009054906101000a900460ff166007811115612f0157fe5b141515612f0d57600080fd5b60006004811115612f1a57fe5b600d6000846000191660001916815260200190815260200160002060000160003373ffffffffffffffffffffffffffffffffffffffff1673ffffffffffffffffffffffffffffffffffffffff16815260200190815260200160002060010160009054906101000a900460ff166004811115612f9157fe5b148061301e575060016004811115612fa557fe5b600d6000846000191660001916815260200190815260200160002060000160003373ffffffffffffffffffffffffffffffffffffffff1673ffffffffffffffffffffffffffffffffffffffff16815260200190815260200160002060010160009054906101000a900460ff16600481111561301c57fe5b145b806130aa57506002600481111561303157fe5b600d6000846000191660001916815260200190815260200160002060000160003373ffffffffffffffffffffffffffffffffffffffff1673ffffffffffffffffffffffffffffffffffffffff16815260200190815260200160002060010160009054906101000a900460ff1660048111156130a857fe5b145b15156130b557600080fd5b80600d6000846000191660001916815260200190815260200160002060000160003373ffffffffffffffffffffffffffffffffffffffff1673ffffffffffffffffffffffffffffffffffffffff16815260200190815260200160002060000181600019169055506001600e6000836000191660001916815260200190815260200160002060006101000a81548160ff02191690831515021790555081600019163373ffffffffffffffffffffffffffffffffffffffff167f0dd26db24b4198de21f2d0c36186e6eb912563dd2afa9fe278fd51e9734964208360405180826000191660001916815260200191505060405180910390a35050565b60125481565b600360078111156131c257fe5b600d6000856000191660001916815260200190815260200160002060040160009054906101000a900460ff1660078111156131f957fe5b14151561320557600080fd5b600d6000846000191660001916815260200190815260200160002060000160003373ffffffffffffffffffffffffffffffffffffffff1673ffffffffffffffffffffffffffffffffffffffff168152602001908152602001600020600001546000191681836040516020018083151515157f01000000000000000000000000000000000000000000000000000000000000000281526001018260001916600019168152602001925050506040516020818303038152906040526040518082805190602001908083835b6020831015156132f357805182526020820191506020810190506020830392506132ce565b6001836020036101000a03801982511681845116808217855250505050505090500191505060405180910390206000191614151561333057600080fd5b60048081111561333c57fe5b600d6000856000191660001916815260200190815260200160002060000160003373ffffffffffffffffffffffffffffffffffffffff1673ffffffffffffffffffffffffffffffffffffffff16815260200190815260200160002060010160009054906101000a900460ff1660048111156133b357fe5b141515156133c057600080fd5b6004808111156133cc57fe5b600d6000856000191660001916815260200190815260200160002060000160003373ffffffffffffffffffffffffffffffffffffffff1673ffffffffffffffffffffffffffffffffffffffff16815260200190815260200160002060010160009054906101000a900460ff16600481111561344357fe5b5050801561348a57613484613457336152f6565b600d600086600019166000191681526020019081526020016000206001015461583590919063ffffffff16565b506134c5565b6134c3613496336152f6565b600d600086600019166000191681526020019081526020016000206002015461583590919063ffffffff16565b505b82600019163373ffffffffffffffffffffffffffffffffffffffff167f87580b37240dceb6b95c73a689ac60d2fcffc6b561ae7b693a8db729fa6b857e838561350d336152f6565b60405180841515151581526020018360001916600019168152602001828152602001935050505060405180910390a3505050565b601060009054906101000a900460ff1615151561355d57600080fd5b806004600781111561356b57fe5b600d6000836000191660001916815260200190815260200160002060040160009054906101000a900460ff1660078111156135a257fe5b1415156135ae57600080fd5b817f4d414a4f524954595f51554f54554d000000000000000000000000000000000060001916600d60008560001916600019168152602001908152602001600020600301546000191614151561360357600080fd5b620f4240600d60008560001916600019168152602001908152602001600020600601600081548110151561363357fe5b9060005260206000200154600190041115151561364f57600080fd5b600d60008460001916600019168152602001908152602001600020600601600081548110151561367b57fe5b9060005260206000200154600190046004819055506005600781111561369d57fe5b600d6000836000191660001916815260200190815260200160002060040160009054906101000a900460ff1660078111156136d457fe5b50503373ffffffffffffffffffffffffffffffffffffffff167f6c24efcf011d4307695364bb80d6c4ff2a8ecc10c22c3a1c74a7889ede3dd7468260405180826000191660001916815260200191505060405180910390a2505050565b60075481565b600a5481565b600c6020528060005260406000206000915090505481565b601060009054906101000a900460ff1615151561377157600080fd5b806004600781111561377f57fe5b600d6000836000191660001916815260200190815260200160002060040160009054906101000a900460ff1660078111156137b657fe5b1415156137c257600080fd5b817f52554c455300000000000000000000000000000000000000000000000000000060001916600d60008560001916600019168152602001908152602001600020600301546000191614151561381757600080fd5b600d60008460001916600019168152602001908152602001600020600601600081548110151561384357fe5b9060005260206000200154601381600019169055506005600781111561386557fe5b600d6000836000191660001916815260200190815260200160002060040160009054906101000a900460ff16600781111561389c57fe5b50503373ffffffffffffffffffffffffffffffffffffffff167f6c24efcf011d4307695364bb80d6c4ff2a8ecc10c22c3a1c74a7889ede3dd7468260405180826000191660001916815260200191505060405180910390a2505050565b60085481565b816000191683826040516020018083151515157f01000000000000000000000000000000000000000000000000000000000000000281526001018260001916600019168152602001925050506040516020818303038152906040526040518082805190602001908083835b60208310151561398f578051825260208201915060208101905060208303925061396a565b6001836020036101000a0380198251168184511680821785525050505050509050019150506040518091039020600019161415156139cc57600080fd5b8215613aa757600660078111156139df57fe5b600d6000866000191660001916815260200190815260200160002060040160009054906101000a900460ff166007811115613a1657fe5b141515613a2257600080fd5b613a3485613a2f876152f6565b6158e0565b508473ffffffffffffffffffffffffffffffffffffffff163373ffffffffffffffffffffffffffffffffffffffff167f96e0041f14ae401fab2384e3c29da20cb0263ef760c47847db1f13403cea654c613a8d886152f6565b6040518082815260200191505060405180910390a3613b78565b60046007811115613ab457fe5b600d6000866000191660001916815260200190815260200160002060040160009054906101000a900460ff166007811115613aeb57fe5b141515613af757600080fd5b613b0985613b04876152f6565b6158e0565b508473ffffffffffffffffffffffffffffffffffffffff163373ffffffffffffffffffffffffffffffffffffffff167f96e0041f14ae401fab2384e3c29da20cb0263ef760c47847db1f13403cea654c613b62886152f6565b6040518082815260200191505060405180910390a35b5050505050565b60006007811115613b8c57fe5b600d6000856000191660001916815260200190815260200160002060040160009054906101000a900460ff166007811115613bc357fe5b141515613bcf57600080fd5b600b60009054906101000a900460ff16151515613beb57600080fd5b6001600d6000856000191660001916815260200190815260200160002060040160006101000a81548160ff02191690836007811115613c2657fe5b0217905550613c406007544261584e90919063ffffffff16565b600d60008560001916600019168152602001908152602001600020600501819055508160001916600d60008560001916600019168152602001908152602001600020505080600d60008560001916600019168152602001908152602001600020600601906001613cb19291906159d4565b5082600019163373ffffffffffffffffffffffffffffffffffffffff167fafe7505848198c1b694b9c827456151aece16f9b6d3f45d1052c6fd2c9c13f5a60405160405180910390a3505050565b600e6020528060005260406000206000915054906101000a900460ff1681565b601060009054906101000a900460ff16151515613d3b57600080fd5b600034111515613d4a57600080fd5b3373ffffffffffffffffffffffffffffffffffffffff167fcdf6310f72131d7377a46454c5bc554e5f679007f5b7dbd8c1ab5b399e37d828346040518082815260200191505060405180910390a2565b601060009054906101000a900460ff16151515613db657600080fd5b8060046007811115613dc457fe5b600d6000836000191660001916815260200190815260200160002060040160009054906101000a900460ff166007811115613dfb57fe5b141515613e0757600080fd5b817f544f4b454e5f5045524d495353494f4e0000000000000000000000000000000060001916600d600085600019166000191681526020019081526020016000206003015460001916141515613e5c57600080fd5b600060010260001916600d600085600019166000191681526020019081526020016000206006016000815481101515613e9157fe5b9060005260206000200154600019161480613eec57506001800260001916600d600085600019166000191681526020019081526020016000206006016000815481101515613edb57fe5b906000526020600020015460001916145b1515613ef757600080fd5b600060010260001916600d600085600019166000191681526020019081526020016000206006016000815481101515613f2c57fe5b9060005260206000200154600019161415613fdb57600060026000600d600087600019166000191681526020019081526020016000206006016001815481101515613f7357fe5b90600052602060002001546001900473ffffffffffffffffffffffffffffffffffffffff1673ffffffffffffffffffffffffffffffffffffffff16815260200190815260200160002060000160006101000a81548160ff021916908315150217905550614071565b600160026000600d60008760001916600019168152602001908152602001600020600601600181548110151561400d57fe5b90600052602060002001546001900473ffffffffffffffffffffffffffffffffffffffff1673ffffffffffffffffffffffffffffffffffffffff16815260200190815260200160002060000160006101000a81548160ff0219169083151502179055505b6005600781111561407e57fe5b600d6000836000191660001916815260200190815260200160002060040160009054906101000a900460ff1660078111156140b557fe5b50503373ffffffffffffffffffffffffffffffffffffffff167f6c24efcf011d4307695364bb80d6c4ff2a8ecc10c22c3a1c74a7889ede3dd7468260405180826000191660001916815260200191505060405180910390a2505050565b600d6020528060005260406000206000915090508060010154908060020154908060030154908060040160009054906101000a900460ff16908060050154905085565b601060009054906101000a900460ff1615151561417157600080fd5b806004600781111561417f57fe5b600d6000836000191660001916815260200190815260200160002060040160009054906101000a900460ff1660078111156141b657fe5b1415156141c257600080fd5b817f45544845525f504552494f44000000000000000000000000000000000000000060001916600d60008560001916600019168152602001908152602001600020600301546000191614151561421757600080fd5b600d60008460001916600019168152602001908152602001600020600601600081548110151561424357fe5b906000526020600020015460019004600f6000600d60008760001916600019168152602001908152602001600020600601600181548110151561428257fe5b90600052602060002001546001900473ffffffffffffffffffffffffffffffffffffffff1673ffffffffffffffffffffffffffffffffffffffff16815260200190815260200160002060040181905550600560078111156142df57fe5b600d6000836000191660001916815260200190815260200160002060040160009054906101000a900460ff16600781111561431657fe5b50503373ffffffffffffffffffffffffffffffffffffffff167f6c24efcf011d4307695364bb80d6c4ff2a8ecc10c22c3a1c74a7889ede3dd7468260405180826000191660001916815260200191505060405180910390a2505050565b600f60003373ffffffffffffffffffffffffffffffffffffffff1673ffffffffffffffffffffffffffffffffffffffff16815260200190815260200160002060000160009054906101000a900460ff1615156143ce57600080fd5b42614466600f60003373ffffffffffffffffffffffffffffffffffffffff1673ffffffffffffffffffffffffffffffffffffffff16815260200190815260200160002060040154600f60003373ffffffffffffffffffffffffffffffffffffffff1673ffffffffffffffffffffffffffffffffffffffff1681526020019081526020016000206002015461584e90919063ffffffff16565b1115151561447357600080fd5b600f60003373ffffffffffffffffffffffffffffffffffffffff1673ffffffffffffffffffffffffffffffffffffffff16815260200190815260200160002060030154600402600f60003373ffffffffffffffffffffffffffffffffffffffff1673ffffffffffffffffffffffffffffffffffffffff168152602001908152602001600020600101541115151561450957600080fd5b42600f60003373ffffffffffffffffffffffffffffffffffffffff1673ffffffffffffffffffffffffffffffffffffffff16815260200190815260200160002060020181905550600f60003373ffffffffffffffffffffffffffffffffffffffff1673ffffffffffffffffffffffffffffffffffffffff16815260200190815260200160002060030154600f60003373ffffffffffffffffffffffffffffffffffffffff1673ffffffffffffffffffffffffffffffffffffffff168152602001908152602001600020600101600082825401925050819055503373ffffffffffffffffffffffffffffffffffffffff167f9a84d21f16d3e4d2a06d85a995dec70b11b2535dd224083e9cc37981b5240b16600f60003373ffffffffffffffffffffffffffffffffffffffff1673ffffffffffffffffffffffffffffffffffffffff168152602001908152602001600020600101546040518082815260200191505060405180910390a2565b6001600781111561468157fe5b600d6000836000191660001916815260200190815260200160002060040160009054906101000a900460ff1660078111156146b857fe5b1415156146c457600080fd5b600d6000826000191660001916815260200190815260200160002060010154620f4240600d6000846000191660001916815260200190815260200160002060010154021015151561471157fe5b60035461471c610e10565b620f4240600d60008560001916600019168152602001908152602001600020600101540281151561474957fe5b041015151561475757600080fd5b6000600d60008360001916600019168152602001908152602001600020600101819055506002600d6000836000191660001916815260200190815260200160002060040160006101000a81548160ff021916908360078111156147b657fe5b02179055506147d06007544261584e90919063ffffffff16565b600d600083600019166000191681526020019081526020016000206005018190555080600019163373ffffffffffffffffffffffffffffffffffffffff167f7cd3cb2d04af5d6a228dbe135cef8bd59865b1da6087526282b538e62e10be6260026040518082600781111561484157fe5b60ff16815260200191505060405180910390a350565b601060009054906101000a900460ff1615151561487357600080fd5b806004600781111561488157fe5b600d6000836000191660001916815260200190815260200160002060040160009054906101000a900460ff1660078111156148b857fe5b1415156148c457600080fd5b817f544f4b454e5f425544474554000000000000000000000000000000000000000060001916600d60008560001916600019168152602001908152602001600020600301546000191614151561491957600080fd5b600d60008460001916600019168152602001908152602001600020600601600081548110151561494557fe5b90600052602060002001546001900460026000600d60008760001916600019168152602001908152602001600020600601600181548110151561498457fe5b90600052602060002001546001900473ffffffffffffffffffffffffffffffffffffffff1673ffffffffffffffffffffffffffffffffffffffff16815260200190815260200160002060040181905550600560078111156149e157fe5b600d6000836000191660001916815260200190815260200160002060040160009054906101000a900460ff166007811115614a1857fe5b50503373ffffffffffffffffffffffffffffffffffffffff167f6c24efcf011d4307695364bb80d6c4ff2a8ecc10c22c3a1c74a7889ede3dd7468260405180826000191660001916815260200191505060405180910390a2505050565b600b60009054906101000a900460ff161515614a9057600080fd5b42614abc600654614aae600554600a5461584e90919063ffffffff16565b61584e90919063ffffffff16565b11151515614ac957600080fd5b6000600b60006101000a81548160ff021916908315150217905550614af96006544261583590919063ffffffff16565b600a819055503373ffffffffffffffffffffffffffffffffffffffff167f9fa4027402e3e2b48eab6286f2d277af27e9a382ec15cde9e8745b237d11550a60405160405180910390a2565b3073ffffffffffffffffffffffffffffffffffffffff16318111151515614b6a57600080fd5b600073ffffffffffffffffffffffffffffffffffffffff168273ffffffffffffffffffffffffffffffffffffffff1614151515614ba657600080fd5b600f60003373ffffffffffffffffffffffffffffffffffffffff1673ffffffffffffffffffffffffffffffffffffffff168152602001908152602001600020600101548111151515614bf757600080fd5b80600f60003373ffffffffffffffffffffffffffffffffffffffff1673ffffffffffffffffffffffffffffffffffffffff168152602001908152602001600020600101600082825403925050819055508173ffffffffffffffffffffffffffffffffffffffff166108fc829081150290604051600060405180830381858888f19350505050158015614c8d573d6000803e3d6000fd5b508173ffffffffffffffffffffffffffffffffffffffff163373ffffffffffffffffffffffffffffffffffffffff167ff55ca25719cb074434c1ea78f384d736593dcb54b41c225854b329ec273426a7836040518082815260200191505060405180910390a35050565b601060009054906101000a900460ff16151515614d1357600080fd5b8060046007811115614d2157fe5b600d6000836000191660001916815260200190815260200160002060040160009054906101000a900460ff166007811115614d5857fe5b141515614d6457600080fd5b817f474f414c5300000000000000000000000000000000000000000000000000000060001916600d600085600019166000191681526020019081526020016000206003015460001916141515614db957600080fd5b600d600084600019166000191681526020019081526020016000206006016000815481101515614de557fe5b90600052602060002001546012816000191690555060056007811115614e0757fe5b600d6000836000191660001916815260200190815260200160002060040160009054906101000a900460ff166007811115614e3e57fe5b50503373ffffffffffffffffffffffffffffffffffffffff167f6c24efcf011d4307695364bb80d6c4ff2a8ecc10c22c3a1c74a7889ede3dd7468260405180826000191660001916815260200191505060405180910390a2505050565b60006007811115614ea857fe5b600d6000856000191660001916815260200190815260200160002060040160009054906101000a900460ff166007811115614edf57fe5b141515614eeb57600080fd5b600b60009054906101000a900460ff161515614f0657600080fd5b600954614f12336152f6565b111515614f1e57600080fd5b42614f73600754600c60003373ffffffffffffffffffffffffffffffffffffffff1673ffffffffffffffffffffffffffffffffffffffff1681526020019081526020016000205461584e90919063ffffffff16565b11151515614f8057600080fd5b42600c60003373ffffffffffffffffffffffffffffffffffffffff1673ffffffffffffffffffffffffffffffffffffffff168152602001908152602001600020819055506002600d6000856000191660001916815260200190815260200160002060040160006101000a81548160ff02191690836007811115614fff57fe5b02179055506150196007544261584e90919063ffffffff16565b600d60008560001916600019168152602001908152602001600020600501819055508160001916600d60008560001916600019168152602001908152602001600020505080600d6000856000191660001916815260200190815260200160002060060190600161508a9291906159d4565b5082600019163373ffffffffffffffffffffffffffffffffffffffff167f0391f4d187e48f1b0f3bd19f51f65d64633c54e93ef79dc56a56791587f88a0460405160405180910390a3505050565b601060009054906101000a900460ff161515156150f457600080fd5b806004600781111561510257fe5b600d6000836000191660001916815260200190815260200160002060040160009054906101000a900460ff16600781111561513957fe5b14151561514557600080fd5b817f544f4b454e5f504552494f44000000000000000000000000000000000000000060001916600d60008560001916600019168152602001908152602001600020600301546000191614151561519a57600080fd5b600d6000846000191660001916815260200190815260200160002060060160008154811015156151c657fe5b90600052602060002001546001900460026000600d60008760001916600019168152602001908152602001600020600601600181548110151561520557fe5b90600052602060002001546001900473ffffffffffffffffffffffffffffffffffffffff1673ffffffffffffffffffffffffffffffffffffffff168152602001908152602001600020600301819055506005600781111561526257fe5b600d6000836000191660001916815260200190815260200160002060040160009054906101000a900460ff16600781111561529957fe5b50503373ffffffffffffffffffffffffffffffffffffffff167f6c24efcf011d4307695364bb80d6c4ff2a8ecc10c22c3a1c74a7889ede3dd7468260405180826000191660001916815260200191505060405180910390a2505050565b6000600160008373ffffffffffffffffffffffffffffffffffffffff1673ffffffffffffffffffffffffffffffffffffffff168152602001908152602001600020549050919050565b601060009054906101000a900460ff1615151561535b57600080fd5b806004600781111561536957fe5b600d6000836000191660001916815260200190815260200160002060040160009054906101000a900460ff1660078111156153a057fe5b1415156153ac57600080fd5b817f4d494e494d554d5f564f5543484552535f544f5f50524f504f5345000000000060001916600d60008560001916600019168152602001908152602001600020600301546000191614151561540157600080fd5b600d60008460001916600019168152602001908152602001600020600601600081548110151561542d57fe5b9060005260206000200154600190046009819055506005600781111561544f57fe5b600d6000836000191660001916815260200190815260200160002060040160009054906101000a900460ff16600781111561548657fe5b50503373ffffffffffffffffffffffffffffffffffffffff167f6c24efcf011d4307695364bb80d6c4ff2a8ecc10c22c3a1c74a7889ede3dd7468260405180826000191660001916815260200191505060405180910390a2505050565b600160078111156154f057fe5b600d6000836000191660001916815260200190815260200160002060040160009054906101000a900460ff16600781111561552757fe5b14151561553357600080fd5b42600d60008360001916600019168152602001908152602001600020600501541115151561556057600080fd5b6007600d6000836000191660001916815260200190815260200160002060040160006101000a81548160ff0219169083600781111561559b57fe5b021790555080600019163373ffffffffffffffffffffffffffffffffffffffff167f7cd3cb2d04af5d6a228dbe135cef8bd59865b1da6087526282b538e62e10be626007604051808260078111156155ef57fe5b60ff16815260200191505060405180910390a350565b60055481565b60135481565b60095481565b601060009054906101000a900460ff1615151561563357600080fd5b806004600781111561564157fe5b600d6000836000191660001916815260200190815260200160002060040160009054906101000a900460ff16600781111561567857fe5b14151561568457600080fd5b817f45544845525f425544474554000000000000000000000000000000000000000060001916600d6000856000191660001916815260200190815260200160002060030154600019161415156156d957600080fd5b600d60008460001916600019168152602001908152602001600020600601600081548110151561570557fe5b906000526020600020015460019004600f6000600d60008760001916600019168152602001908152602001600020600601600181548110151561574457fe5b90600052602060002001546001900473ffffffffffffffffffffffffffffffffffffffff1673ffffffffffffffffffffffffffffffffffffffff16815260200190815260200160002060030181905550600560078111156157a157fe5b600d6000836000191660001916815260200190815260200160002060040160009054906101000a900460ff1660078111156157d857fe5b50503373ffffffffffffffffffffffffffffffffffffffff167f6c24efcf011d4307695364bb80d6c4ff2a8ecc10c22c3a1c74a7889ede3dd7468260405180826000191660001916815260200191505060405180910390a2505050565b600082821115151561584357fe5b818303905092915050565b6000818301905082811015151561586157fe5b80905092915050565b60006158be82600160008673ffffffffffffffffffffffffffffffffffffffff1673ffffffffffffffffffffffffffffffffffffffff1681526020019081526020016000205461584e90919063ffffffff16565b506158d48260005461584e90919063ffffffff16565b60008190555092915050565b6000600160008473ffffffffffffffffffffffffffffffffffffffff1673ffffffffffffffffffffffffffffffffffffffff16815260200190815260200160002054821115151561593057600080fd5b61598282600160008673ffffffffffffffffffffffffffffffffffffffff1673ffffffffffffffffffffffffffffffffffffffff1681526020019081526020016000205461583590919063ffffffff16565b600160008573ffffffffffffffffffffffffffffffffffffffff1673ffffffffffffffffffffffffffffffffffffffff1681526020019081526020016000206000828254019250508190555092915050565b828054828255906000526020600020908101928215615a16579160200282015b82811115615a155782518290600019169055916020019190600101906159f4565b5b509050615a239190615a27565b5090565b615a4991905b80821115615a45576000816000905550600101615a2d565b5090565b905600a165627a7a72305820e6bebb51c61c3bbdd271e00e04bd6b97ca292a86e6ab21d02a2df1762ba90c510029",
  "source": "//TODO, implement overflow checks for multiplications (1)\n//TODO, change naming of afterApplicableVote\npragma solidity ^0.4.24;\n\nimport \"./VoucherTreasury.sol\";\nimport \"./Slasher.sol\";\nimport \"./EtherTreasury.sol\";\nimport \"./SponsorRegistry.sol\";\n\nimport \"./../node_modules/openzeppelin-solidity/contracts/math/SafeMath.sol\";\n\n/**\n * @title Master\n * @author Rinke Hendriksen (rinkehendriksen@gmail.com)\n * @dev The Master registers the hashes of the statutary goals and objectives of the DAO and makes sure all parameters can be updated when voted for\n */\ncontract Master is VoucherTreasury, Slasher, EtherTreasury, SponsorRegistry {\n\n    using SafeMath for uint256;\n\n    bytes32 public statutaryGoalsHash;\n    bytes32 public statutaryRulesHash;\n\n    constructor(\n        bytes32 _statutaryGoalsHash,\n        bytes32 _statutaryRulesHash,\n        uint256 lastVote\n    )\n    {\n        statutaryGoalsHash = _statutaryGoalsHash;\n        statutaryRulesHash = _statutaryRulesHash;\n    }\n\n    event logUpgraded(\n        address indexed callee,\n        bytes32 proposalId\n    );\n\n    modifier mustBeAccepted(bytes32 proposalId) {\n        require(proposalRegistry[proposalId].status == ProposalStatus.Accepted);\n        _;\n    }\n\n    modifier afterApplicableVote(bytes32 proposalId) {\n      _;\n      proposalRegistry[proposalId].status == ProposalStatus.InEffect;\n      emit logUpgraded(msg.sender, proposalId);\n    }\n\n    function setSuperUpgrade(bytes32 proposalId)\n        public\n        whenNotUpgraded\n        mustBeAccepted(proposalId)\n        afterApplicableVote(proposalId)\n    {\n        require(proposalRegistry[proposalId].subject == bytes32(\"SUPER_UPGRADE\"));\n        // TODO, see 1\n        require(uint256(proposalRegistry[proposalId].effect[0]) <= (assemblyInterval * 4));\n        isUpgraded = true;\n        whenClosed = uint256(proposalRegistry[proposalId].effect[0]);\n    }\n\n    function setReferendumQuotum(bytes32 proposalId)\n        public\n        whenNotUpgraded\n        mustBeAccepted(proposalId)\n        afterApplicableVote(proposalId)\n    {\n        require(proposalRegistry[proposalId].subject == bytes32(\"REFERENDUM_QUOTUM\"));\n        require(uint256(proposalRegistry[proposalId].effect[0]) <= 1000000); // 100%\n        referendumQuotum = uint256(proposalRegistry[proposalId].effect[0]);\n    }\n\n    function setMajorityQuotum(bytes32 proposalId)\n        public\n        whenNotUpgraded\n        mustBeAccepted(proposalId)\n        afterApplicableVote(proposalId)\n    {\n        require(proposalRegistry[proposalId].subject == bytes32(\"MAJORITY_QUOTUM\"));\n        require(uint256(proposalRegistry[proposalId].effect[0]) <= 1000000); // 100%\n        majorityQuotum = uint256(proposalRegistry[proposalId].effect[0]);\n    }\n\n    function setMinimumVouchersToPropose(bytes32 proposalId)\n        public\n        whenNotUpgraded\n        mustBeAccepted(proposalId)\n        afterApplicableVote(proposalId)\n    {\n        require(proposalRegistry[proposalId].subject == bytes32(\"MINIMUM_VOUCHERS_TO_PROPOSE\"));\n        minimumVouchersToPropose = uint256(proposalRegistry[proposalId].effect[0]);\n    }\n\n    function setAssemblyInterval(bytes32 proposalId)\n        public\n        whenNotUpgraded\n        mustBeAccepted(proposalId)\n        afterApplicableVote(proposalId)\n    {\n        require(proposalRegistry[proposalId].subject == bytes32(\"ASSEMBLY_PERIOD\"));\n        assert(assemblyInterval * 4 >= assemblyInterval);\n        require(uint256(proposalRegistry[proposalId].effect[0]) >= assemblyInterval / 4 && uint256(proposalRegistry[proposalId].effect[0]) <= (assemblyInterval * 4));\n        assemblyInterval = uint256(proposalRegistry[proposalId].effect[0]);\n    }\n\n    function setVotingWindow(bytes32 proposalId)\n        public\n        whenNotUpgraded\n        mustBeAccepted(proposalId)\n        afterApplicableVote(proposalId)\n    {\n        require(proposalRegistry[proposalId].subject ==  bytes32(\"VOTING_WINDOW\"));\n        require(uint256(proposalRegistry[proposalId].effect[0]) >= votingWindow / 4 && uint256(proposalRegistry[proposalId].effect[0]) <= assemblyInterval);\n\n\n        votingWindow = uint256(proposalRegistry[proposalId].effect[0]);\n    }\n\n    function setBalances(bytes32 proposalId)\n        public\n        whenNotUpgraded\n        mustBeAccepted(proposalId)\n        afterApplicableVote(proposalId)\n    {\n        require(proposalRegistry[proposalId].subject == bytes32(\"BALANCES\"));\n        totalSupply_ = totalSupply_.sub(uint256(proposalRegistry[proposalId].effect[0]));\n        balances[address(proposalRegistry[proposalId].effect[1])] = balances[address(proposalRegistry[proposalId].effect[1])].sub(uint256(proposalRegistry[proposalId].effect[0]));\n    }\n\n    function setEtherPermission(bytes32 proposalId)\n        public\n        whenNotUpgraded\n        mustBeAccepted(proposalId)\n        afterApplicableVote(proposalId)\n    {\n        require(proposalRegistry[proposalId].subject == bytes32(\"ETHER_PERMISSION\"));\n        require(proposalRegistry[proposalId].effect[0] == bytes32(0) || proposalRegistry[proposalId].effect[0] == bytes32(1));\n        if(proposalRegistry[proposalId].effect[0] == bytes32(0)) {\n            etherAllowanceRegistry[address(proposalRegistry[proposalId].effect[1])].isAllowed = false;\n        } else {\n            etherAllowanceRegistry[address(proposalRegistry[proposalId].effect[1])].isAllowed = true;\n        }\n    }\n\n    function setEtherBudget(bytes32 proposalId)\n        public\n        whenNotUpgraded\n        mustBeAccepted(proposalId)\n        afterApplicableVote(proposalId)\n    {\n        require(proposalRegistry[proposalId].subject == bytes32(\"ETHER_BUDGET\"));\n        etherAllowanceRegistry[address(proposalRegistry[proposalId].effect[1])].budget = uint256(proposalRegistry[proposalId].effect[0]);\n    }\n\n    function setEtherPeriod(bytes32 proposalId)\n        public\n        whenNotUpgraded\n        mustBeAccepted(proposalId)\n        afterApplicableVote(proposalId)\n    {\n        require(proposalRegistry[proposalId].subject == bytes32(\"ETHER_PERIOD\"));\n        etherAllowanceRegistry[address(proposalRegistry[proposalId].effect[1])].budgetPeriod = uint256(proposalRegistry[proposalId].effect[0]);\n    }\n\n    function setTokenPermission(bytes32 proposalId)\n        public\n        whenNotUpgraded\n        mustBeAccepted(proposalId)\n        afterApplicableVote(proposalId)\n    {\n        require(proposalRegistry[proposalId].subject == bytes32(\"TOKEN_PERMISSION\"));\n        require(proposalRegistry[proposalId].effect[0] == bytes32(0) || proposalRegistry[proposalId].effect[0] == bytes32(1));\n        if(proposalRegistry[proposalId].effect[0] == bytes32(0)) {\n            tokenAllowanceRegistry[address(proposalRegistry[proposalId].effect[1])].isAllowed = false;\n        } else {\n            tokenAllowanceRegistry[address(proposalRegistry[proposalId].effect[1])].isAllowed = true;\n        }\n    }\n\n    function setTokenBudget(bytes32 proposalId)\n        public\n        whenNotUpgraded\n        mustBeAccepted(proposalId)\n        afterApplicableVote(proposalId)\n    {\n        require(proposalRegistry[proposalId].subject == bytes32(\"TOKEN_BUDGET\"));\n        tokenAllowanceRegistry[address(proposalRegistry[proposalId].effect[1])].budget = uint256(proposalRegistry[proposalId].effect[0]);\n    }\n\n    function setTokenPeriod(bytes32 proposalId)\n        public\n        whenNotUpgraded\n        mustBeAccepted(proposalId)\n        afterApplicableVote(proposalId)\n    {\n        require(proposalRegistry[proposalId].subject == bytes32(\"TOKEN_PERIOD\"));\n        tokenAllowanceRegistry[address(proposalRegistry[proposalId].effect[1])].budgetPeriod = uint256(proposalRegistry[proposalId].effect[0]);\n    }\n\n    function setGoals(bytes32 proposalId)\n        public\n        whenNotUpgraded\n        mustBeAccepted(proposalId)\n        afterApplicableVote(proposalId)\n    {\n        require(proposalRegistry[proposalId].subject == bytes32(\"GOALS\"));\n        statutaryGoalsHash = proposalRegistry[proposalId].effect[0];\n    }\n\n    function setRules(bytes32 proposalId)\n        public\n        whenNotUpgraded\n        mustBeAccepted(proposalId)\n        afterApplicableVote(proposalId)\n    {\n        require(proposalRegistry[proposalId].subject == bytes32(\"RULES\"));\n        statutaryRulesHash = proposalRegistry[proposalId].effect[0];\n    }\n\n    /**\n     * @dev reverts when plain value is being send to the contract. Sponsors should use the payTribute function in the SponsorRegistry contract.\n     * @notice this callback function does not prevent the contract from receiving value at all. We have the possibilities selfdescruct or mining to the contract address.\n     */\n    function () payable {\n        revert();\n    }\n}\n",
  "sourcePath": "/Users/rinke/Projects/Suber-DAO/contracts/Master.sol",
  "compiler": {
    "name": "solc",
    "version": "0.4.24+commit.e67f0147.Emscripten.clang"
  },
  "schemaVersion": "2.0.1",
  "updatedAt": "2018-09-15T12:18:59.447Z"
}