{
  "contractName": "Master",
  "abi": [
    {
      "constant": false,
      "inputs": [
        {
          "name": "voteId",
          "type": "bytes32"
        },
        {
          "name": "secret",
          "type": "bytes32"
        },
        {
          "name": "myVote",
          "type": "bool"
        }
      ],
      "name": "revealVote",
      "outputs": [],
      "payable": false,
      "stateMutability": "nonpayable",
      "type": "function"
    },
    {
      "constant": false,
      "inputs": [
        {
          "name": "voteId",
          "type": "bytes32"
        }
      ],
      "name": "cancelAcceptance",
      "outputs": [],
      "payable": false,
      "stateMutability": "nonpayable",
      "type": "function"
    },
    {
      "constant": true,
      "inputs": [],
      "name": "totalSupply",
      "outputs": [
        {
          "name": "",
          "type": "uint256"
        }
      ],
      "payable": false,
      "stateMutability": "view",
      "type": "function"
    },
    {
      "constant": true,
      "inputs": [],
      "name": "majorityQuotum",
      "outputs": [
        {
          "name": "",
          "type": "uint256"
        }
      ],
      "payable": false,
      "stateMutability": "view",
      "type": "function"
    },
    {
      "constant": true,
      "inputs": [],
      "name": "whenClosed",
      "outputs": [
        {
          "name": "",
          "type": "uint256"
        }
      ],
      "payable": false,
      "stateMutability": "view",
      "type": "function"
    },
    {
      "constant": true,
      "inputs": [],
      "name": "referendumQuotum",
      "outputs": [
        {
          "name": "",
          "type": "uint256"
        }
      ],
      "payable": false,
      "stateMutability": "view",
      "type": "function"
    },
    {
      "constant": false,
      "inputs": [
        {
          "name": "to",
          "type": "address"
        },
        {
          "name": "amount",
          "type": "uint256"
        }
      ],
      "name": "mint",
      "outputs": [],
      "payable": false,
      "stateMutability": "nonpayable",
      "type": "function"
    },
    {
      "constant": true,
      "inputs": [
        {
          "name": "",
          "type": "address"
        }
      ],
      "name": "tokenAllowanceRegistry",
      "outputs": [
        {
          "name": "isAllowed",
          "type": "bool"
        },
        {
          "name": "allowance",
          "type": "uint256"
        },
        {
          "name": "whenUpdated",
          "type": "uint256"
        },
        {
          "name": "budgetPeriod",
          "type": "uint256"
        },
        {
          "name": "budget",
          "type": "uint256"
        }
      ],
      "payable": false,
      "stateMutability": "view",
      "type": "function"
    },
    {
      "constant": true,
      "inputs": [],
      "name": "isUpgraded",
      "outputs": [
        {
          "name": "",
          "type": "bool"
        }
      ],
      "payable": false,
      "stateMutability": "view",
      "type": "function"
    },
    {
      "constant": false,
      "inputs": [],
      "name": "increaseTokenAllowance",
      "outputs": [],
      "payable": false,
      "stateMutability": "nonpayable",
      "type": "function"
    },
    {
      "constant": false,
      "inputs": [],
      "name": "declareAssembly",
      "outputs": [],
      "payable": false,
      "stateMutability": "nonpayable",
      "type": "function"
    },
    {
      "constant": true,
      "inputs": [],
      "name": "statutaryGoalsHash",
      "outputs": [
        {
          "name": "",
          "type": "bytes32"
        }
      ],
      "payable": false,
      "stateMutability": "view",
      "type": "function"
    },
    {
      "constant": false,
      "inputs": [
        {
          "name": "voteId",
          "type": "bytes32"
        }
      ],
      "name": "makeAccepted",
      "outputs": [],
      "payable": false,
      "stateMutability": "nonpayable",
      "type": "function"
    },
    {
      "constant": true,
      "inputs": [
        {
          "name": "_owner",
          "type": "address"
        }
      ],
      "name": "balanceOf",
      "outputs": [
        {
          "name": "",
          "type": "uint256"
        }
      ],
      "payable": false,
      "stateMutability": "view",
      "type": "function"
    },
    {
      "constant": false,
      "inputs": [
        {
          "name": "voteId",
          "type": "bytes32"
        },
        {
          "name": "_subject",
          "type": "bytes32"
        },
        {
          "name": "_effect",
          "type": "bytes32[1]"
        }
      ],
      "name": "proposeReferendum",
      "outputs": [],
      "payable": false,
      "stateMutability": "nonpayable",
      "type": "function"
    },
    {
      "constant": true,
      "inputs": [],
      "name": "votingWindow",
      "outputs": [
        {
          "name": "",
          "type": "uint256"
        }
      ],
      "payable": false,
      "stateMutability": "view",
      "type": "function"
    },
    {
      "constant": true,
      "inputs": [],
      "name": "lastAssembly",
      "outputs": [
        {
          "name": "",
          "type": "uint256"
        }
      ],
      "payable": false,
      "stateMutability": "view",
      "type": "function"
    },
    {
      "constant": true,
      "inputs": [
        {
          "name": "",
          "type": "address"
        }
      ],
      "name": "lastProposed",
      "outputs": [
        {
          "name": "",
          "type": "uint256"
        }
      ],
      "payable": false,
      "stateMutability": "view",
      "type": "function"
    },
    {
      "constant": false,
      "inputs": [
        {
          "name": "poorGuy",
          "type": "address"
        },
        {
          "name": "voteId",
          "type": "bytes32"
        },
        {
          "name": "poorGuyVote",
          "type": "bool"
        },
        {
          "name": "poorGuyBlindedVote",
          "type": "bytes32"
        },
        {
          "name": "poorGuySecret",
          "type": "bytes32"
        }
      ],
      "name": "slash",
      "outputs": [],
      "payable": false,
      "stateMutability": "nonpayable",
      "type": "function"
    },
    {
      "constant": true,
      "inputs": [
        {
          "name": "",
          "type": "bytes32"
        }
      ],
      "name": "blindedVoteUsed",
      "outputs": [
        {
          "name": "",
          "type": "bool"
        }
      ],
      "payable": false,
      "stateMutability": "view",
      "type": "function"
    },
    {
      "constant": false,
      "inputs": [],
      "name": "payTribute",
      "outputs": [],
      "payable": true,
      "stateMutability": "payable",
      "type": "function"
    },
    {
      "constant": false,
      "inputs": [],
      "name": "increaseEtherAllowance",
      "outputs": [],
      "payable": false,
      "stateMutability": "nonpayable",
      "type": "function"
    },
    {
      "constant": true,
      "inputs": [
        {
          "name": "",
          "type": "bytes32"
        }
      ],
      "name": "acceptanceRegistry",
      "outputs": [
        {
          "name": "tokensInFavor",
          "type": "uint256"
        },
        {
          "name": "closingTime",
          "type": "uint256"
        }
      ],
      "payable": false,
      "stateMutability": "view",
      "type": "function"
    },
    {
      "constant": false,
      "inputs": [
        {
          "name": "to",
          "type": "address"
        },
        {
          "name": "amount",
          "type": "uint256"
        }
      ],
      "name": "spend",
      "outputs": [],
      "payable": false,
      "stateMutability": "nonpayable",
      "type": "function"
    },
    {
      "constant": false,
      "inputs": [
        {
          "name": "voteId",
          "type": "bytes32"
        }
      ],
      "name": "signalAcceptance",
      "outputs": [],
      "payable": false,
      "stateMutability": "nonpayable",
      "type": "function"
    },
    {
      "constant": true,
      "inputs": [],
      "name": "assemblyPeriod",
      "outputs": [
        {
          "name": "",
          "type": "uint256"
        }
      ],
      "payable": false,
      "stateMutability": "view",
      "type": "function"
    },
    {
      "constant": true,
      "inputs": [
        {
          "name": "",
          "type": "bytes32"
        }
      ],
      "name": "voteRegistry",
      "outputs": [
        {
          "name": "tokensInFavor",
          "type": "uint256"
        },
        {
          "name": "tokensAgainst",
          "type": "uint256"
        },
        {
          "name": "subject",
          "type": "bytes32"
        },
        {
          "name": "accepted",
          "type": "bool"
        },
        {
          "name": "inEffect",
          "type": "bool"
        },
        {
          "name": "closingTime",
          "type": "uint256"
        }
      ],
      "payable": false,
      "stateMutability": "view",
      "type": "function"
    },
    {
      "constant": false,
      "inputs": [
        {
          "name": "voteId",
          "type": "bytes32"
        },
        {
          "name": "secret",
          "type": "bytes32"
        },
        {
          "name": "myVote",
          "type": "bool"
        }
      ],
      "name": "cancelVote",
      "outputs": [],
      "payable": false,
      "stateMutability": "nonpayable",
      "type": "function"
    },
    {
      "constant": true,
      "inputs": [],
      "name": "statutaryRulesHash",
      "outputs": [
        {
          "name": "",
          "type": "bytes32"
        }
      ],
      "payable": false,
      "stateMutability": "view",
      "type": "function"
    },
    {
      "constant": false,
      "inputs": [
        {
          "name": "voteId",
          "type": "bytes32"
        },
        {
          "name": "blindedVote",
          "type": "bytes32"
        }
      ],
      "name": "vote",
      "outputs": [],
      "payable": false,
      "stateMutability": "nonpayable",
      "type": "function"
    },
    {
      "inputs": [
        {
          "name": "_statutaryGoalsHash",
          "type": "bytes32"
        },
        {
          "name": "_statutaryRulesHash",
          "type": "bytes32"
        },
        {
          "name": "lastVote",
          "type": "uint256"
        }
      ],
      "payable": false,
      "stateMutability": "nonpayable",
      "type": "constructor"
    },
    {
      "payable": true,
      "stateMutability": "payable",
      "type": "fallback"
    },
    {
      "anonymous": false,
      "inputs": [
        {
          "indexed": true,
          "name": "callee",
          "type": "address"
        },
        {
          "indexed": false,
          "name": "voteId",
          "type": "bytes32"
        }
      ],
      "name": "logUpgraded",
      "type": "event"
    },
    {
      "anonymous": false,
      "inputs": [
        {
          "indexed": true,
          "name": "callee",
          "type": "address"
        },
        {
          "indexed": false,
          "name": "amount",
          "type": "uint256"
        }
      ],
      "name": "sponsorShipReceived",
      "type": "event"
    },
    {
      "anonymous": false,
      "inputs": [
        {
          "indexed": true,
          "name": "callee",
          "type": "address"
        },
        {
          "indexed": false,
          "name": "newAllowance",
          "type": "uint256"
        }
      ],
      "name": "EtherAllowanceIncreased",
      "type": "event"
    },
    {
      "anonymous": false,
      "inputs": [
        {
          "indexed": true,
          "name": "callee",
          "type": "address"
        },
        {
          "indexed": true,
          "name": "to",
          "type": "address"
        },
        {
          "indexed": false,
          "name": "amount",
          "type": "uint256"
        }
      ],
      "name": "EtherSpent",
      "type": "event"
    },
    {
      "anonymous": false,
      "inputs": [
        {
          "indexed": true,
          "name": "callee",
          "type": "address"
        },
        {
          "indexed": true,
          "name": "poorGuy",
          "type": "address"
        },
        {
          "indexed": false,
          "name": "amount",
          "type": "uint256"
        }
      ],
      "name": "Slashed",
      "type": "event"
    },
    {
      "anonymous": false,
      "inputs": [
        {
          "indexed": true,
          "name": "callee",
          "type": "address"
        }
      ],
      "name": "AssemblyDeclared",
      "type": "event"
    },
    {
      "anonymous": false,
      "inputs": [
        {
          "indexed": true,
          "name": "callee",
          "type": "address"
        },
        {
          "indexed": true,
          "name": "voteId",
          "type": "bytes32"
        }
      ],
      "name": "VoteProposed",
      "type": "event"
    },
    {
      "anonymous": false,
      "inputs": [
        {
          "indexed": true,
          "name": "callee",
          "type": "address"
        },
        {
          "indexed": true,
          "name": "voteId",
          "type": "bytes32"
        }
      ],
      "name": "AcceptanceSignalled",
      "type": "event"
    },
    {
      "anonymous": false,
      "inputs": [
        {
          "indexed": true,
          "name": "callee",
          "type": "address"
        },
        {
          "indexed": true,
          "name": "voteId",
          "type": "bytes32"
        }
      ],
      "name": "VoteAccepted",
      "type": "event"
    },
    {
      "anonymous": false,
      "inputs": [
        {
          "indexed": true,
          "name": "callee",
          "type": "address"
        },
        {
          "indexed": true,
          "name": "voteId",
          "type": "bytes32"
        },
        {
          "indexed": false,
          "name": "blindedVote",
          "type": "bytes32"
        }
      ],
      "name": "Voted",
      "type": "event"
    },
    {
      "anonymous": false,
      "inputs": [
        {
          "indexed": true,
          "name": "callee",
          "type": "address"
        },
        {
          "indexed": true,
          "name": "voteId",
          "type": "bytes32"
        },
        {
          "indexed": true,
          "name": "vote",
          "type": "bool"
        },
        {
          "indexed": false,
          "name": "secret",
          "type": "bytes32"
        },
        {
          "indexed": false,
          "name": "amountOfTokens",
          "type": "uint256"
        }
      ],
      "name": "VoteRevealed",
      "type": "event"
    },
    {
      "anonymous": false,
      "inputs": [
        {
          "indexed": true,
          "name": "callee",
          "type": "address"
        },
        {
          "indexed": true,
          "name": "voteId",
          "type": "bytes32"
        }
      ],
      "name": "VoteCancelled",
      "type": "event"
    },
    {
      "anonymous": false,
      "inputs": [
        {
          "indexed": true,
          "name": "callee",
          "type": "address"
        },
        {
          "indexed": false,
          "name": "newAllowance",
          "type": "uint256"
        }
      ],
      "name": "TokenAllowanceIncreased",
      "type": "event"
    },
    {
      "anonymous": false,
      "inputs": [
        {
          "indexed": true,
          "name": "callee",
          "type": "address"
        },
        {
          "indexed": true,
          "name": "to",
          "type": "address"
        },
        {
          "indexed": false,
          "name": "amount",
          "type": "uint256"
        }
      ],
      "name": "Minted",
      "type": "event"
    },
    {
      "constant": false,
      "inputs": [
        {
          "name": "voteId",
          "type": "bytes32"
        }
      ],
      "name": "setSuperUpgrade",
      "outputs": [],
      "payable": false,
      "stateMutability": "nonpayable",
      "type": "function"
    },
    {
      "constant": false,
      "inputs": [
        {
          "name": "voteId",
          "type": "bytes32"
        }
      ],
      "name": "setReferendumQuotum",
      "outputs": [],
      "payable": false,
      "stateMutability": "nonpayable",
      "type": "function"
    },
    {
      "constant": false,
      "inputs": [
        {
          "name": "voteId",
          "type": "bytes32"
        }
      ],
      "name": "setMajorityQuotum",
      "outputs": [],
      "payable": false,
      "stateMutability": "nonpayable",
      "type": "function"
    },
    {
      "constant": false,
      "inputs": [
        {
          "name": "voteId",
          "type": "bytes32"
        }
      ],
      "name": "setAssemblyPeriod",
      "outputs": [],
      "payable": false,
      "stateMutability": "nonpayable",
      "type": "function"
    },
    {
      "constant": false,
      "inputs": [
        {
          "name": "voteId",
          "type": "bytes32"
        }
      ],
      "name": "setVotingWindow",
      "outputs": [],
      "payable": false,
      "stateMutability": "nonpayable",
      "type": "function"
    },
    {
      "constant": false,
      "inputs": [
        {
          "name": "voteId",
          "type": "bytes32"
        }
      ],
      "name": "setBalances",
      "outputs": [],
      "payable": false,
      "stateMutability": "nonpayable",
      "type": "function"
    },
    {
      "constant": false,
      "inputs": [
        {
          "name": "voteId",
          "type": "bytes32"
        }
      ],
      "name": "setEtherPermission",
      "outputs": [],
      "payable": false,
      "stateMutability": "nonpayable",
      "type": "function"
    },
    {
      "constant": false,
      "inputs": [
        {
          "name": "voteId",
          "type": "bytes32"
        }
      ],
      "name": "setEtherBudget",
      "outputs": [],
      "payable": false,
      "stateMutability": "nonpayable",
      "type": "function"
    },
    {
      "constant": false,
      "inputs": [
        {
          "name": "voteId",
          "type": "bytes32"
        }
      ],
      "name": "setEtherPeriod",
      "outputs": [],
      "payable": false,
      "stateMutability": "nonpayable",
      "type": "function"
    },
    {
      "constant": false,
      "inputs": [
        {
          "name": "voteId",
          "type": "bytes32"
        }
      ],
      "name": "setTokenPermission",
      "outputs": [],
      "payable": false,
      "stateMutability": "nonpayable",
      "type": "function"
    },
    {
      "constant": false,
      "inputs": [
        {
          "name": "voteId",
          "type": "bytes32"
        }
      ],
      "name": "setTokenBudget",
      "outputs": [],
      "payable": false,
      "stateMutability": "nonpayable",
      "type": "function"
    },
    {
      "constant": false,
      "inputs": [
        {
          "name": "voteId",
          "type": "bytes32"
        }
      ],
      "name": "setTokenPeriod",
      "outputs": [],
      "payable": false,
      "stateMutability": "nonpayable",
      "type": "function"
    },
    {
      "constant": false,
      "inputs": [
        {
          "name": "voteId",
          "type": "bytes32"
        }
      ],
      "name": "setGoals",
      "outputs": [],
      "payable": false,
      "stateMutability": "nonpayable",
      "type": "function"
    },
    {
      "constant": false,
      "inputs": [
        {
          "name": "voteId",
          "type": "bytes32"
        }
      ],
      "name": "setRules",
      "outputs": [],
      "payable": false,
      "stateMutability": "nonpayable",
      "type": "function"
    }
  ],
  "bytecode": "0x608060405262030d40600355620927c060045562180f606005556202a3006006553480156200002d57600080fd5b506040516060806200542f8339810180604052810190808051906020019092919080519060200190929190805190602001909291905050508080806007819055506040516020018060000190506040516020818303038152906040526040518082805190602001908083835b602083101515620000c0578051825260208201915060208101905060208303925062000099565b6001836020036101000a03801982511681845116808217855250505050505090500191505060405180910390206008816000191690555050508260108160001916905550816011816000191690555050505061530d80620001226000396000f30060806040526004361061021a576000357c0100000000000000000000000000000000000000000000000000000000900463ffffffff16806302de47d81461021f5780630d4a2bc81461026a57806318160ddd1461029b5780631bfff58b146102c65780631e955399146102f75780631f92a862146103225780632e1cfbed1461035357806337a2c5161461037e5780633b1a0af9146103a957806340c10f19146103da578063413cea251461042757806342c80fc91461049e57806348a475b5146104cd5780635245b801146104fe5780635e170518146105155780635e9c26991461054657806368752b081461055d5780636c5416a7146105905780636eaccb4b146105c157806370a08231146105f25780637167eef61461064957806372a6300a146106b7578063776486a4146106e25780637d6067c61461070d578063809bc7ca14610764578063850f2192146107955780638950ee2d1461080e578063896b3555146108575780638d7e2c0d14610861578063987bbae7146108925780639bca3311146108c3578063a501e831146108da578063ac200ff51461090b578063af7d6ca314610957578063b0c61b70146109a4578063b6e4551e146109d5578063be46ac4614610a06578063c9bec7b614610a37578063d7391fbe14610a62578063e350b10e14610a93578063e422e44014610b0b578063ecae479114610b56578063eeaaf19d14610b89578063fdd55a4714610bc8575b600080fd5b34801561022b57600080fd5b5061026860048036038101908080356000191690602001909291908035600019169060200190929190803515159060200190929190505050610bf9565b005b34801561027657600080fd5b506102996004803603810190808035600019169060200190929190505050610fe9565b005b3480156102a757600080fd5b506102b0610fec565b6040518082815260200191505060405180910390f35b3480156102d257600080fd5b506102f56004803603810190808035600019169060200190929190505050610ff5565b005b34801561030357600080fd5b5061030c611278565b6040518082815260200191505060405180910390f35b34801561032e57600080fd5b50610351600480360381019080803560001916906020019092919050505061127e565b005b34801561035f57600080fd5b506103686115ef565b6040518082815260200191505060405180910390f35b34801561038a57600080fd5b506103936115f5565b6040518082815260200191505060405180910390f35b3480156103b557600080fd5b506103d860048036038101908080356000191690602001909291905050506115fb565b005b3480156103e657600080fd5b50610425600480360381019080803573ffffffffffffffffffffffffffffffffffffffff169060200190929190803590602001909291905050506118b4565b005b34801561043357600080fd5b50610468600480360381019080803573ffffffffffffffffffffffffffffffffffffffff169060200190929190505050611a05565b60405180861515151581526020018581526020018481526020018381526020018281526020019550505050505060405180910390f35b3480156104aa57600080fd5b506104b3611a48565b604051808215151515815260200191505060405180910390f35b3480156104d957600080fd5b506104fc6004803603810190808035600019169060200190929190505050611a5b565b005b34801561050a57600080fd5b50610513611cc1565b005b34801561052157600080fd5b506105446004803603810190808035600019169060200190929190505050611f67565b005b34801561055257600080fd5b5061055b612355565b005b34801561056957600080fd5b506105726123c6565b60405180826000191660001916815260200191505060405180910390f35b34801561059c57600080fd5b506105bf60048036038101908080356000191690602001909291905050506123cc565b005b3480156105cd57600080fd5b506105f0600480360381019080803560001916906020019092919050505061250f565b005b3480156105fe57600080fd5b50610633600480360381019080803573ffffffffffffffffffffffffffffffffffffffff169060200190929190505050612775565b6040518082815260200191505060405180910390f35b34801561065557600080fd5b506106b56004803603810190808035600019169060200190929190803560001916906020019092919080602001906001806020026040519081016040528092919082600160200280828437820191505050505091929192905050506127be565b005b3480156106c357600080fd5b506106cc612a74565b6040518082815260200191505060405180910390f35b3480156106ee57600080fd5b506106f7612a7a565b6040518082815260200191505060405180910390f35b34801561071957600080fd5b5061074e600480360381019080803573ffffffffffffffffffffffffffffffffffffffff169060200190929190505050612a80565b6040518082815260200191505060405180910390f35b34801561077057600080fd5b506107936004803603810190808035600019169060200190929190505050612a98565b005b3480156107a157600080fd5b5061080c600480360381019080803573ffffffffffffffffffffffffffffffffffffffff169060200190929190803560001916906020019092919080351515906020019092919080356000191690602001909291908035600019169060200190929190505050612cb2565b005b34801561081a57600080fd5b5061083d6004803603810190808035600019169060200190929190505050612f4d565b604051808215151515815260200191505060405180910390f35b61085f612f6d565b005b34801561086d57600080fd5b506108906004803603810190808035600019169060200190929190505050612fe8565b005b34801561089e57600080fd5b506108c160048036038101908080356000191690602001909291905050506133d6565b005b3480156108cf57600080fd5b506108d861366a565b005b3480156108e657600080fd5b50610909600480360381019080803560001916906020019092919050505061396b565b005b34801561091757600080fd5b5061093a6004803603810190808035600019169060200190929190505050613bff565b604051808381526020018281526020019250505060405180910390f35b34801561096357600080fd5b506109a2600480360381019080803573ffffffffffffffffffffffffffffffffffffffff16906020019092919080359060200190929190505050613c23565b005b3480156109b057600080fd5b506109d36004803603810190808035600019169060200190929190505050613dd6565b005b3480156109e157600080fd5b50610a046004803603810190808035600019169060200190929190505050613ff0565b005b348015610a1257600080fd5b50610a3560048036038101908080356000191690602001909291905050506141f0565b005b348015610a4357600080fd5b50610a4c614484565b6040518082815260200191505060405180910390f35b348015610a6e57600080fd5b50610a91600480360381019080803560001916906020019092919050505061448a565b005b348015610a9f57600080fd5b50610ac26004803603810190808035600019169060200190929190505050614746565b6040518087815260200186815260200185600019166000191681526020018415151515815260200183151515158152602001828152602001965050505050505060405180910390f35b348015610b1757600080fd5b50610b546004803603810190808035600019169060200190929190803560001916906020019092919080351515906020019092919050505061479c565b005b348015610b6257600080fd5b50610b6b614b65565b60405180826000191660001916815260200191505060405180910390f35b348015610b9557600080fd5b50610bc660048036038101908080356000191690602001909291908035600019169060200190929190505050614b6b565b005b348015610bd457600080fd5b50610bf76004803603810190808035600019169060200190929190505050614e36565b005b42600a600085600019166000191681526020019081526020016000206005015410158015610c59575042610c56600654600a60008760001916600019168152602001908152602001600020600501546150ca90919063ffffffff16565b11155b1515610c6457600080fd5b600a6000846000191660001916815260200190815260200160002060000160003373ffffffffffffffffffffffffffffffffffffffff1673ffffffffffffffffffffffffffffffffffffffff168152602001908152602001600020600001546000191681836040516020018083151515157f01000000000000000000000000000000000000000000000000000000000000000281526001018260001916600019168152602001925050506040516020818303038152906040526040518082805190602001908083835b602083101515610d525780518252602082019150602081019050602083039250610d2d565b6001836020036101000a038019825116818451168082178552505050505050905001915050604051809103902060001916141515610d8f57600080fd5b600a6000846000191660001916815260200190815260200160002060000160003373ffffffffffffffffffffffffffffffffffffffff1673ffffffffffffffffffffffffffffffffffffffff16815260200190815260200160002060010160009054906101000a900460ff16151515610e0757600080fd5b600a6000846000191660001916815260200190815260200160002060000160003373ffffffffffffffffffffffffffffffffffffffff1673ffffffffffffffffffffffffffffffffffffffff16815260200190815260200160002060010160019054906101000a900460ff16151515610e7f57600080fd5b6001600a6000856000191660001916815260200190815260200160002060000160003373ffffffffffffffffffffffffffffffffffffffff1673ffffffffffffffffffffffffffffffffffffffff16815260200190815260200160002060010160016101000a81548160ff0219169083151502179055508015610f3b57610f35610f0833612775565b600a60008660001916600019168152602001908152602001600020600101546150ca90919063ffffffff16565b50610f76565b610f74610f4733612775565b600a60008660001916600019168152602001908152602001600020600201546150ca90919063ffffffff16565b505b80151583600019163373ffffffffffffffffffffffffffffffffffffffff167fcc0838ab811a958e5f4f2edaa7688c07c16d318ae871171c8d829bcc3a834b8685610fc033612775565b6040518083600019166000191681526020018281526020019250505060405180910390a4505050565b50565b60008054905090565b600e60009054906101000a900460ff1615151561101157600080fd5b80600a6000826000191660001916815260200190815260200160002060040160019054906101000a900460ff1615151561104a57600080fd5b4261107e600654600a60008560001916600019168152602001908152602001600020600501546150ca90919063ffffffff16565b10151561108a57600080fd5b600454620f4240600a6000846000191660001916815260200190815260200160002060020154600a60008560001916600019168152602001908152602001600020600101548115156110d857fe5b0402101515156110e757600080fd5b817f53555045525f555047524144450000000000000000000000000000000000000060001916600a60008560001916600019168152602001908152602001600020600301546000191614151561113c57600080fd5b600460055402600a60008560001916600019168152602001908152602001600020600601600081548110151561116e57fe5b9060005260206000200154600190041115151561118a57600080fd5b6001600e60006101000a81548160ff021916908315150217905550600a6000846000191660001916815260200190815260200160002060060160008154811015156111d157fe5b906000526020600020015460019004600f819055506001600a6000836000191660001916815260200190815260200160002060040160016101000a81548160ff0219169083151502179055503373ffffffffffffffffffffffffffffffffffffffff167f6c24efcf011d4307695364bb80d6c4ff2a8ecc10c22c3a1c74a7889ede3dd7468260405180826000191660001916815260200191505060405180910390a2505050565b60045481565b600e60009054906101000a900460ff1615151561129a57600080fd5b80600a6000826000191660001916815260200190815260200160002060040160019054906101000a900460ff161515156112d357600080fd5b42611307600654600a60008560001916600019168152602001908152602001600020600501546150ca90919063ffffffff16565b10151561131357600080fd5b600454620f4240600a6000846000191660001916815260200190815260200160002060020154600a600085600019166000191681526020019081526020016000206001015481151561136157fe5b04021015151561137057600080fd5b817f42414c414e43455300000000000000000000000000000000000000000000000060001916600a6000856000191660001916815260200190815260200160002060030154600019161415156113c557600080fd5b611414600a6000856000191660001916815260200190815260200160002060060160008154811015156113f457fe5b9060005260206000200154600190046000546150e690919063ffffffff16565b6000819055506114e0600a60008560001916600019168152602001908152602001600020600601600081548110151561144957fe5b90600052602060002001546001900460016000600a60008860001916600019168152602001908152602001600020600601600181548110151561148857fe5b90600052602060002001546001900473ffffffffffffffffffffffffffffffffffffffff1673ffffffffffffffffffffffffffffffffffffffff168152602001908152602001600020546150e690919063ffffffff16565b60016000600a60008760001916600019168152602001908152602001600020600601600181548110151561151057fe5b90600052602060002001546001900473ffffffffffffffffffffffffffffffffffffffff1673ffffffffffffffffffffffffffffffffffffffff168152602001908152602001600020819055506001600a6000836000191660001916815260200190815260200160002060040160016101000a81548160ff0219169083151502179055503373ffffffffffffffffffffffffffffffffffffffff167f6c24efcf011d4307695364bb80d6c4ff2a8ecc10c22c3a1c74a7889ede3dd7468260405180826000191660001916815260200191505060405180910390a2505050565b600f5481565b60035481565b600e60009054906101000a900460ff1615151561161757600080fd5b80600a6000826000191660001916815260200190815260200160002060040160019054906101000a900460ff1615151561165057600080fd5b42611684600654600a60008560001916600019168152602001908152602001600020600501546150ca90919063ffffffff16565b10151561169057600080fd5b600454620f4240600a6000846000191660001916815260200190815260200160002060020154600a60008560001916600019168152602001908152602001600020600101548115156116de57fe5b0402101515156116ed57600080fd5b817f564f54494e475f57494e444f570000000000000000000000000000000000000060001916600a60008560001916600019168152602001908152602001600020600301546000191614151561174257600080fd5b600460065481151561175057fe5b04600a60008560001916600019168152602001908152602001600020600601600081548110151561177d57fe5b906000526020600020015460019004101580156117d65750600554600a6000856000191660001916815260200190815260200160002060060160008154811015156117c457fe5b90600052602060002001546001900411155b15156117e157600080fd5b600a60008460001916600019168152602001908152602001600020600601600081548110151561180d57fe5b9060005260206000200154600190046006819055506001600a6000836000191660001916815260200190815260200160002060040160016101000a81548160ff0219169083151502179055503373ffffffffffffffffffffffffffffffffffffffff167f6c24efcf011d4307695364bb80d6c4ff2a8ecc10c22c3a1c74a7889ede3dd7468260405180826000191660001916815260200191505060405180910390a2505050565b600073ffffffffffffffffffffffffffffffffffffffff168273ffffffffffffffffffffffffffffffffffffffff16141515156118f057600080fd5b600260003373ffffffffffffffffffffffffffffffffffffffff1673ffffffffffffffffffffffffffffffffffffffff16815260200190815260200160002060010154811115151561194157600080fd5b80600260003373ffffffffffffffffffffffffffffffffffffffff1673ffffffffffffffffffffffffffffffffffffffff1681526020019081526020016000206001016000828254039250508190555061199b82826150ff565b508173ffffffffffffffffffffffffffffffffffffffff163373ffffffffffffffffffffffffffffffffffffffff167f9d228d69b5fdb8d273a2336f8fb8612d039631024ea9bf09c424a9503aa078f0836040518082815260200191505060405180910390a35050565b60026020528060005260406000206000915090508060000160009054906101000a900460ff16908060010154908060020154908060030154908060040154905085565b600e60009054906101000a900460ff1681565b600e60009054906101000a900460ff16151515611a7757600080fd5b80600a6000826000191660001916815260200190815260200160002060040160019054906101000a900460ff16151515611ab057600080fd5b42611ae4600654600a60008560001916600019168152602001908152602001600020600501546150ca90919063ffffffff16565b101515611af057600080fd5b600454620f4240600a6000846000191660001916815260200190815260200160002060020154600a6000856000191660001916815260200190815260200160002060010154811515611b3e57fe5b040210151515611b4d57600080fd5b817f5245464552454e44554d5f51554f54554d00000000000000000000000000000060001916600a600085600019166000191681526020019081526020016000206003015460001916141515611ba257600080fd5b620f4240600a600085600019166000191681526020019081526020016000206006016000815481101515611bd257fe5b90600052602060002001546001900411151515611bee57600080fd5b600a600084600019166000191681526020019081526020016000206006016000815481101515611c1a57fe5b9060005260206000200154600190046003819055506001600a6000836000191660001916815260200190815260200160002060040160016101000a81548160ff0219169083151502179055503373ffffffffffffffffffffffffffffffffffffffff167f6c24efcf011d4307695364bb80d6c4ff2a8ecc10c22c3a1c74a7889ede3dd7468260405180826000191660001916815260200191505060405180910390a2505050565b600260003373ffffffffffffffffffffffffffffffffffffffff1673ffffffffffffffffffffffffffffffffffffffff16815260200190815260200160002060000160009054906101000a900460ff161515611d1c57600080fd5b42600260003373ffffffffffffffffffffffffffffffffffffffff1673ffffffffffffffffffffffffffffffffffffffff16815260200190815260200160002060030154600260003373ffffffffffffffffffffffffffffffffffffffff1673ffffffffffffffffffffffffffffffffffffffff168152602001908152602001600020600201540111151515611db157600080fd5b42600260003373ffffffffffffffffffffffffffffffffffffffff1673ffffffffffffffffffffffffffffffffffffffff16815260200190815260200160002060020181905550611e8f600260003373ffffffffffffffffffffffffffffffffffffffff1673ffffffffffffffffffffffffffffffffffffffff16815260200190815260200160002060040154600260003373ffffffffffffffffffffffffffffffffffffffff1673ffffffffffffffffffffffffffffffffffffffff168152602001908152602001600020600101546150ca90919063ffffffff16565b600260003373ffffffffffffffffffffffffffffffffffffffff1673ffffffffffffffffffffffffffffffffffffffff168152602001908152602001600020600101819055503373ffffffffffffffffffffffffffffffffffffffff167f6c789b5efdea0cb7e835f82832729dd034dc5f31ee5bc8d41a9386b8340e99c0600260003373ffffffffffffffffffffffffffffffffffffffff1673ffffffffffffffffffffffffffffffffffffffff168152602001908152602001600020600101546040518082815260200191505060405180910390a2565b600e60009054906101000a900460ff16151515611f8357600080fd5b80600a6000826000191660001916815260200190815260200160002060040160019054906101000a900460ff16151515611fbc57600080fd5b42611ff0600654600a60008560001916600019168152602001908152602001600020600501546150ca90919063ffffffff16565b101515611ffc57600080fd5b600454620f4240600a6000846000191660001916815260200190815260200160002060020154600a600085600019166000191681526020019081526020016000206001015481151561204a57fe5b04021015151561205957600080fd5b817f45544845525f5045524d495353494f4e0000000000000000000000000000000060001916600a6000856000191660001916815260200190815260200160002060030154600019161415156120ae57600080fd5b600060010260001916600a6000856000191660001916815260200190815260200160002060060160008154811015156120e357fe5b906000526020600020015460001916148061213e57506001800260001916600a60008560001916600019168152602001908152602001600020600601600081548110151561212d57fe5b906000526020600020015460001916145b151561214957600080fd5b600060010260001916600a60008560001916600019168152602001908152602001600020600601600081548110151561217e57fe5b906000526020600020015460001916141561222d576000600d6000600a6000876000191660001916815260200190815260200160002060060160018154811015156121c557fe5b90600052602060002001546001900473ffffffffffffffffffffffffffffffffffffffff1673ffffffffffffffffffffffffffffffffffffffff16815260200190815260200160002060000160006101000a81548160ff0219169083151502179055506122c3565b6001600d6000600a60008760001916600019168152602001908152602001600020600601600181548110151561225f57fe5b90600052602060002001546001900473ffffffffffffffffffffffffffffffffffffffff1673ffffffffffffffffffffffffffffffffffffffff16815260200190815260200160002060000160006101000a81548160ff0219169083151502179055505b6001600a6000836000191660001916815260200190815260200160002060040160016101000a81548160ff0219169083151502179055503373ffffffffffffffffffffffffffffffffffffffff167f6c24efcf011d4307695364bb80d6c4ff2a8ecc10c22c3a1c74a7889ede3dd7468260405180826000191660001916815260200191505060405180910390a2505050565b4261236d6005546007546150ca90919063ffffffff16565b1015151561237a57600080fd5b426007819055503373ffffffffffffffffffffffffffffffffffffffff167f5a9f3dca4f11ce5758212591c09fcbf4327907998551dfadf1eadafe2f66db5660405160405180910390a2565b60105481565b600a6000826000191660001916815260200190815260200160002060040160009054906101000a900460ff1615151561240457600080fd5b60035461240f610fec565b620f4240600b60008560001916600019168152602001908152602001600020600001540281151561243c57fe5b041015151561244a57600080fd5b6001600a6000836000191660001916815260200190815260200160002060040160006101000a81548160ff0219169083151502179055506124a2600260065481151561249257fe5b04426150ca90919063ffffffff16565b600a600083600019166000191681526020019081526020016000206005018190555080600019163373ffffffffffffffffffffffffffffffffffffffff167fa8c7fa23af7412355a57b6bb8eaf1dae9273a307f5b020add12c63d1234a473b60405160405180910390a350565b600e60009054906101000a900460ff1615151561252b57600080fd5b80600a6000826000191660001916815260200190815260200160002060040160019054906101000a900460ff1615151561256457600080fd5b42612598600654600a60008560001916600019168152602001908152602001600020600501546150ca90919063ffffffff16565b1015156125a457600080fd5b600454620f4240600a6000846000191660001916815260200190815260200160002060020154600a60008560001916600019168152602001908152602001600020600101548115156125f257fe5b04021015151561260157600080fd5b817f4d414a4f524954595f51554f54554d000000000000000000000000000000000060001916600a60008560001916600019168152602001908152602001600020600301546000191614151561265657600080fd5b620f4240600a60008560001916600019168152602001908152602001600020600601600081548110151561268657fe5b906000526020600020015460019004111515156126a257600080fd5b600a6000846000191660001916815260200190815260200160002060060160008154811015156126ce57fe5b9060005260206000200154600190046004819055506001600a6000836000191660001916815260200190815260200160002060040160016101000a81548160ff0219169083151502179055503373ffffffffffffffffffffffffffffffffffffffff167f6c24efcf011d4307695364bb80d6c4ff2a8ecc10c22c3a1c74a7889ede3dd7468260405180826000191660001916815260200191505060405180910390a2505050565b6000600160008373ffffffffffffffffffffffffffffffffffffffff1673ffffffffffffffffffffffffffffffffffffffff168152602001908152602001600020549050919050565b60008019168260001916141515156127d557600080fd5b6000801916600a60008560001916600019168152602001908152602001600020600301546000191614151561280957600080fd5b8160001916600a60008560001916600019168152602001908152602001600020505080600a60008560001916600019168152602001908152602001600020600601906001612858929190615269565b50426128716006546007546150ca90919063ffffffff16565b1015156129ef57600061288333612775565b1415151561289057600080fd5b426128e5600654600960003373ffffffffffffffffffffffffffffffffffffffff1673ffffffffffffffffffffffffffffffffffffffff168152602001908152602001600020546150ca90919063ffffffff16565b111515156128f257600080fd5b42600960003373ffffffffffffffffffffffffffffffffffffffff1673ffffffffffffffffffffffffffffffffffffffff16815260200190815260200160002050506001600a6000856000191660001916815260200190815260200160002060040160006101000a81548160ff021916908315150217905550612980600654426150ca90919063ffffffff16565b600a600085600019166000191681526020019081526020016000206005018190555082600019163373ffffffffffffffffffffffffffffffffffffffff167fa8c7fa23af7412355a57b6bb8eaf1dae9273a307f5b020add12c63d1234a473b60405160405180910390a3612a6f565b612a04600654426150ca90919063ffffffff16565b600b600085600019166000191681526020019081526020016000206002018190555082600019163373ffffffffffffffffffffffffffffffffffffffff167f49d5296759dd2d75f95fe5c9b103a193da4551b25ae5f58195f95c17b91c276b60405160405180910390a35b505050565b60065481565b60075481565b60096020528060005260406000206000915090505481565b600e60009054906101000a900460ff16151515612ab457600080fd5b80600a6000826000191660001916815260200190815260200160002060040160019054906101000a900460ff16151515612aed57600080fd5b42612b21600654600a60008560001916600019168152602001908152602001600020600501546150ca90919063ffffffff16565b101515612b2d57600080fd5b600454620f4240600a6000846000191660001916815260200190815260200160002060020154600a6000856000191660001916815260200190815260200160002060010154811515612b7b57fe5b040210151515612b8a57600080fd5b817f52554c455300000000000000000000000000000000000000000000000000000060001916600a600085600019166000191681526020019081526020016000206003015460001916141515612bdf57600080fd5b600a600084600019166000191681526020019081526020016000206006016000815481101515612c0b57fe5b9060005260206000200154601181600019169055506001600a6000836000191660001916815260200190815260200160002060040160016101000a81548160ff0219169083151502179055503373ffffffffffffffffffffffffffffffffffffffff167f6c24efcf011d4307695364bb80d6c4ff2a8ecc10c22c3a1c74a7889ede3dd7468260405180826000191660001916815260200191505060405180910390a2505050565b42600a600086600019166000191681526020019081526020016000206005015411151515612cdf57600080fd5b816000191683826040516020018083151515157f01000000000000000000000000000000000000000000000000000000000000000281526001018260001916600019168152602001925050506040516020818303038152906040526040518082805190602001908083835b602083101515612d6f5780518252602082019150602081019050602083039250612d4a565b6001836020036101000a038019825116818451168082178552505050505050905001915050604051809103902060001916141515612dac57600080fd5b8215612e3e57620186a0600454811515612dc257fe5b04600a80600087600019166000191681526020019081526020016000206001015402600a600087600019166000191681526020019081526020016000206002015401600a6000876000191660001916815260200190815260200160002060020154811515612e2c57fe5b04111515612e3957600080fd5b612ec6565b620186a0600454811515612e4e57fe5b04600a80600087600019166000191681526020019081526020016000206001015402600a600087600019166000191681526020019081526020016000206002015401600a6000876000191660001916815260200190815260200160002060010154811515612eb857fe5b04111515612ec557600080fd5b5b612ed885612ed387612775565b615175565b508473ffffffffffffffffffffffffffffffffffffffff163373ffffffffffffffffffffffffffffffffffffffff167f96e0041f14ae401fab2384e3c29da20cb0263ef760c47847db1f13403cea654c612f3188612775565b6040518082815260200191505060405180910390a35050505050565b600c6020528060005260406000206000915054906101000a900460ff1681565b600e60009054906101000a900460ff16151515612f8957600080fd5b600034111515612f9857600080fd5b3373ffffffffffffffffffffffffffffffffffffffff167fcdf6310f72131d7377a46454c5bc554e5f679007f5b7dbd8c1ab5b399e37d828346040518082815260200191505060405180910390a2565b600e60009054906101000a900460ff1615151561300457600080fd5b80600a6000826000191660001916815260200190815260200160002060040160019054906101000a900460ff1615151561303d57600080fd5b42613071600654600a60008560001916600019168152602001908152602001600020600501546150ca90919063ffffffff16565b10151561307d57600080fd5b600454620f4240600a6000846000191660001916815260200190815260200160002060020154600a60008560001916600019168152602001908152602001600020600101548115156130cb57fe5b0402101515156130da57600080fd5b817f544f4b454e5f5045524d495353494f4e0000000000000000000000000000000060001916600a60008560001916600019168152602001908152602001600020600301546000191614151561312f57600080fd5b600060010260001916600a60008560001916600019168152602001908152602001600020600601600081548110151561316457fe5b90600052602060002001546000191614806131bf57506001800260001916600a6000856000191660001916815260200190815260200160002060060160008154811015156131ae57fe5b906000526020600020015460001916145b15156131ca57600080fd5b600060010260001916600a6000856000191660001916815260200190815260200160002060060160008154811015156131ff57fe5b90600052602060002001546000191614156132ae57600060026000600a60008760001916600019168152602001908152602001600020600601600181548110151561324657fe5b90600052602060002001546001900473ffffffffffffffffffffffffffffffffffffffff1673ffffffffffffffffffffffffffffffffffffffff16815260200190815260200160002060000160006101000a81548160ff021916908315150217905550613344565b600160026000600a6000876000191660001916815260200190815260200160002060060160018154811015156132e057fe5b90600052602060002001546001900473ffffffffffffffffffffffffffffffffffffffff1673ffffffffffffffffffffffffffffffffffffffff16815260200190815260200160002060000160006101000a81548160ff0219169083151502179055505b6001600a6000836000191660001916815260200190815260200160002060040160016101000a81548160ff0219169083151502179055503373ffffffffffffffffffffffffffffffffffffffff167f6c24efcf011d4307695364bb80d6c4ff2a8ecc10c22c3a1c74a7889ede3dd7468260405180826000191660001916815260200191505060405180910390a2505050565b600e60009054906101000a900460ff161515156133f257600080fd5b80600a6000826000191660001916815260200190815260200160002060040160019054906101000a900460ff1615151561342b57600080fd5b4261345f600654600a60008560001916600019168152602001908152602001600020600501546150ca90919063ffffffff16565b10151561346b57600080fd5b600454620f4240600a6000846000191660001916815260200190815260200160002060020154600a60008560001916600019168152602001908152602001600020600101548115156134b957fe5b0402101515156134c857600080fd5b817f45544845525f504552494f44000000000000000000000000000000000000000060001916600a60008560001916600019168152602001908152602001600020600301546000191614151561351d57600080fd5b600a60008460001916600019168152602001908152602001600020600601600081548110151561354957fe5b906000526020600020015460019004600d6000600a60008760001916600019168152602001908152602001600020600601600181548110151561358857fe5b90600052602060002001546001900473ffffffffffffffffffffffffffffffffffffffff1673ffffffffffffffffffffffffffffffffffffffff168152602001908152602001600020600401819055506001600a6000836000191660001916815260200190815260200160002060040160016101000a81548160ff0219169083151502179055503373ffffffffffffffffffffffffffffffffffffffff167f6c24efcf011d4307695364bb80d6c4ff2a8ecc10c22c3a1c74a7889ede3dd7468260405180826000191660001916815260200191505060405180910390a2505050565b600d60003373ffffffffffffffffffffffffffffffffffffffff1673ffffffffffffffffffffffffffffffffffffffff16815260200190815260200160002060000160009054906101000a900460ff1615156136c557600080fd5b4261375d600d60003373ffffffffffffffffffffffffffffffffffffffff1673ffffffffffffffffffffffffffffffffffffffff16815260200190815260200160002060040154600d60003373ffffffffffffffffffffffffffffffffffffffff1673ffffffffffffffffffffffffffffffffffffffff168152602001908152602001600020600201546150ca90919063ffffffff16565b1115151561376a57600080fd5b600d60003373ffffffffffffffffffffffffffffffffffffffff1673ffffffffffffffffffffffffffffffffffffffff16815260200190815260200160002060030154600402600d60003373ffffffffffffffffffffffffffffffffffffffff1673ffffffffffffffffffffffffffffffffffffffff168152602001908152602001600020600101541115151561380057600080fd5b42600d60003373ffffffffffffffffffffffffffffffffffffffff1673ffffffffffffffffffffffffffffffffffffffff16815260200190815260200160002060020181905550600d60003373ffffffffffffffffffffffffffffffffffffffff1673ffffffffffffffffffffffffffffffffffffffff16815260200190815260200160002060030154600d60003373ffffffffffffffffffffffffffffffffffffffff1673ffffffffffffffffffffffffffffffffffffffff168152602001908152602001600020600101600082825401925050819055503373ffffffffffffffffffffffffffffffffffffffff167f9a84d21f16d3e4d2a06d85a995dec70b11b2535dd224083e9cc37981b5240b16600d60003373ffffffffffffffffffffffffffffffffffffffff1673ffffffffffffffffffffffffffffffffffffffff168152602001908152602001600020600101546040518082815260200191505060405180910390a2565b600e60009054906101000a900460ff1615151561398757600080fd5b80600a6000826000191660001916815260200190815260200160002060040160019054906101000a900460ff161515156139c057600080fd5b426139f4600654600a60008560001916600019168152602001908152602001600020600501546150ca90919063ffffffff16565b101515613a0057600080fd5b600454620f4240600a6000846000191660001916815260200190815260200160002060020154600a6000856000191660001916815260200190815260200160002060010154811515613a4e57fe5b040210151515613a5d57600080fd5b817f544f4b454e5f425544474554000000000000000000000000000000000000000060001916600a600085600019166000191681526020019081526020016000206003015460001916141515613ab257600080fd5b600a600084600019166000191681526020019081526020016000206006016000815481101515613ade57fe5b90600052602060002001546001900460026000600a600087600019166000191681526020019081526020016000206006016001815481101515613b1d57fe5b90600052602060002001546001900473ffffffffffffffffffffffffffffffffffffffff1673ffffffffffffffffffffffffffffffffffffffff168152602001908152602001600020600401819055506001600a6000836000191660001916815260200190815260200160002060040160016101000a81548160ff0219169083151502179055503373ffffffffffffffffffffffffffffffffffffffff167f6c24efcf011d4307695364bb80d6c4ff2a8ecc10c22c3a1c74a7889ede3dd7468260405180826000191660001916815260200191505060405180910390a2505050565b600b6020528060005260406000206000915090508060000154908060020154905082565b3073ffffffffffffffffffffffffffffffffffffffff16318111151515613c4957600080fd5b600073ffffffffffffffffffffffffffffffffffffffff168273ffffffffffffffffffffffffffffffffffffffff1614151515613c8557600080fd5b600d60003373ffffffffffffffffffffffffffffffffffffffff1673ffffffffffffffffffffffffffffffffffffffff168152602001908152602001600020600101548111151515613cd657600080fd5b80600d60003373ffffffffffffffffffffffffffffffffffffffff1673ffffffffffffffffffffffffffffffffffffffff168152602001908152602001600020600101600082825403925050819055508173ffffffffffffffffffffffffffffffffffffffff166108fc829081150290604051600060405180830381858888f19350505050158015613d6c573d6000803e3d6000fd5b508173ffffffffffffffffffffffffffffffffffffffff163373ffffffffffffffffffffffffffffffffffffffff167ff55ca25719cb074434c1ea78f384d736593dcb54b41c225854b329ec273426a7836040518082815260200191505060405180910390a35050565b600e60009054906101000a900460ff16151515613df257600080fd5b80600a6000826000191660001916815260200190815260200160002060040160019054906101000a900460ff16151515613e2b57600080fd5b42613e5f600654600a60008560001916600019168152602001908152602001600020600501546150ca90919063ffffffff16565b101515613e6b57600080fd5b600454620f4240600a6000846000191660001916815260200190815260200160002060020154600a6000856000191660001916815260200190815260200160002060010154811515613eb957fe5b040210151515613ec857600080fd5b817f474f414c5300000000000000000000000000000000000000000000000000000060001916600a600085600019166000191681526020019081526020016000206003015460001916141515613f1d57600080fd5b600a600084600019166000191681526020019081526020016000206006016000815481101515613f4957fe5b9060005260206000200154601081600019169055506001600a6000836000191660001916815260200190815260200160002060040160016101000a81548160ff0219169083151502179055503373ffffffffffffffffffffffffffffffffffffffff167f6c24efcf011d4307695364bb80d6c4ff2a8ecc10c22c3a1c74a7889ede3dd7468260405180826000191660001916815260200191505060405180910390a2505050565b6000801916600a6000836000191660001916815260200190815260200160002060030154600019161415151561402557600080fd5b600a6000826000191660001916815260200190815260200160002060040160009054906101000a900460ff1615151561405d57600080fd5b42600b60008360001916600019168152602001908152602001600020600201541115151561408a57600080fd5b600b6000826000191660001916815260200190815260200160002060010160003373ffffffffffffffffffffffffffffffffffffffff1673ffffffffffffffffffffffffffffffffffffffff16815260200190815260200160002060009054906101000a900460ff161515156140ff57600080fd5b60011515600b6000836000191660001916815260200190815260200160002060010160003373ffffffffffffffffffffffffffffffffffffffff1673ffffffffffffffffffffffffffffffffffffffff16815260200190815260200160002060009054906101000a905050506141a461417733612775565b600b60008460001916600019168152602001908152602001600020600001546150ca90919063ffffffff16565b5080600019163373ffffffffffffffffffffffffffffffffffffffff167f98a9d348ac42ffcd4e388245eb19954bb535468e46278e4dba447caf74a88a3960405160405180910390a350565b600e60009054906101000a900460ff1615151561420c57600080fd5b80600a6000826000191660001916815260200190815260200160002060040160019054906101000a900460ff1615151561424557600080fd5b42614279600654600a60008560001916600019168152602001908152602001600020600501546150ca90919063ffffffff16565b10151561428557600080fd5b600454620f4240600a6000846000191660001916815260200190815260200160002060020154600a60008560001916600019168152602001908152602001600020600101548115156142d357fe5b0402101515156142e257600080fd5b817f544f4b454e5f504552494f44000000000000000000000000000000000000000060001916600a60008560001916600019168152602001908152602001600020600301546000191614151561433757600080fd5b600a60008460001916600019168152602001908152602001600020600601600081548110151561436357fe5b90600052602060002001546001900460026000600a6000876000191660001916815260200190815260200160002060060160018154811015156143a257fe5b90600052602060002001546001900473ffffffffffffffffffffffffffffffffffffffff1673ffffffffffffffffffffffffffffffffffffffff168152602001908152602001600020600301819055506001600a6000836000191660001916815260200190815260200160002060040160016101000a81548160ff0219169083151502179055503373ffffffffffffffffffffffffffffffffffffffff167f6c24efcf011d4307695364bb80d6c4ff2a8ecc10c22c3a1c74a7889ede3dd7468260405180826000191660001916815260200191505060405180910390a2505050565b60055481565b600e60009054906101000a900460ff161515156144a657600080fd5b80600a6000826000191660001916815260200190815260200160002060040160019054906101000a900460ff161515156144df57600080fd5b42614513600654600a60008560001916600019168152602001908152602001600020600501546150ca90919063ffffffff16565b10151561451f57600080fd5b600454620f4240600a6000846000191660001916815260200190815260200160002060020154600a600085600019166000191681526020019081526020016000206001015481151561456d57fe5b04021015151561457c57600080fd5b817f415353454d424c595f504552494f44000000000000000000000000000000000060001916600a6000856000191660001916815260200190815260200160002060030154600019161415156145d157600080fd5b60046005548115156145df57fe5b04600a60008560001916600019168152602001908152602001600020600601600081548110151561460c57fe5b906000526020600020015460019004101580156146685750600460055402600a60008560001916600019168152602001908152602001600020600601600081548110151561465657fe5b90600052602060002001546001900411155b151561467357600080fd5b600a60008460001916600019168152602001908152602001600020600601600081548110151561469f57fe5b9060005260206000200154600190046005819055506001600a6000836000191660001916815260200190815260200160002060040160016101000a81548160ff0219169083151502179055503373ffffffffffffffffffffffffffffffffffffffff167f6c24efcf011d4307695364bb80d6c4ff2a8ecc10c22c3a1c74a7889ede3dd7468260405180826000191660001916815260200191505060405180910390a2505050565b600a6020528060005260406000206000915090508060010154908060020154908060030154908060040160009054906101000a900460ff16908060040160019054906101000a900460ff16908060050154905086565b42600a6000856000191660001916815260200190815260200160002060050154101580156147fc5750426147f9600654600a60008760001916600019168152602001908152602001600020600501546150ca90919063ffffffff16565b11155b151561480757600080fd5b600a6000846000191660001916815260200190815260200160002060000160003373ffffffffffffffffffffffffffffffffffffffff1673ffffffffffffffffffffffffffffffffffffffff168152602001908152602001600020600001546000191681836040516020018083151515157f01000000000000000000000000000000000000000000000000000000000000000281526001018260001916600019168152602001925050506040516020818303038152906040526040518082805190602001908083835b6020831015156148f557805182526020820191506020810190506020830392506148d0565b6001836020036101000a03801982511681845116808217855250505050505090500191505060405180910390206000191614151561493257600080fd5b600a6000846000191660001916815260200190815260200160002060000160003373ffffffffffffffffffffffffffffffffffffffff1673ffffffffffffffffffffffffffffffffffffffff16815260200190815260200160002060010160009054906101000a900460ff161515156149aa57600080fd5b600a6000846000191660001916815260200190815260200160002060000160003373ffffffffffffffffffffffffffffffffffffffff1673ffffffffffffffffffffffffffffffffffffffff16815260200190815260200160002060010160019054906101000a900460ff161515614a2157600080fd5b6001600a6000856000191660001916815260200190815260200160002060000160003373ffffffffffffffffffffffffffffffffffffffff1673ffffffffffffffffffffffffffffffffffffffff16815260200190815260200160002060010160006101000a81548160ff0219169083151502179055508015614add57614ad7614aaa33612775565b600a60008660001916600019168152602001908152602001600020600101546150e690919063ffffffff16565b50614b18565b614b16614ae933612775565b600a60008660001916600019168152602001908152602001600020600201546150e690919063ffffffff16565b505b82600019163373ffffffffffffffffffffffffffffffffffffffff167fc5a00d8e98da81cf8ba11869739651725f14e3e8dcc70856868da19061cc10ef60405160405180910390a3505050565b60115481565b600c6000826000191660001916815260200190815260200160002060009054906101000a900460ff16151515614ba057600080fd5b60085460001916600a60008460001916600019168152602001908152602001600020600301546040516020018082600019166000191681526020019150506040516020818303038152906040526040518082805190602001908083835b602083101515614c225780518252602082019150602081019050602083039250614bfd565b6001836020036101000a03801982511681845116808217855250505050505090500191505060405180910390206000191614151515614c6057600080fd5b600a6000836000191660001916815260200190815260200160002060040160009054906101000a900460ff161515614c9757600080fd5b600060010260001916600a6000846000191660001916815260200190815260200160002060000160003373ffffffffffffffffffffffffffffffffffffffff1673ffffffffffffffffffffffffffffffffffffffff1681526020019081526020016000206000015460001916141515614d0f57600080fd5b42600a600084600019166000191681526020019081526020016000206005015410151515614d3c57600080fd5b80600a6000846000191660001916815260200190815260200160002060000160003373ffffffffffffffffffffffffffffffffffffffff1673ffffffffffffffffffffffffffffffffffffffff16815260200190815260200160002060000181600019169055506001600c6000836000191660001916815260200190815260200160002060006101000a81548160ff02191690831515021790555081600019163373ffffffffffffffffffffffffffffffffffffffff167f0a51713c76a3d455999e2c765be7c2638c7b06efe8099dc35c4a40d6cdc42dc38360405180826000191660001916815260200191505060405180910390a35050565b600e60009054906101000a900460ff16151515614e5257600080fd5b80600a6000826000191660001916815260200190815260200160002060040160019054906101000a900460ff16151515614e8b57600080fd5b42614ebf600654600a60008560001916600019168152602001908152602001600020600501546150ca90919063ffffffff16565b101515614ecb57600080fd5b600454620f4240600a6000846000191660001916815260200190815260200160002060020154600a6000856000191660001916815260200190815260200160002060010154811515614f1957fe5b040210151515614f2857600080fd5b817f45544845525f425544474554000000000000000000000000000000000000000060001916600a600085600019166000191681526020019081526020016000206003015460001916141515614f7d57600080fd5b600a600084600019166000191681526020019081526020016000206006016000815481101515614fa957fe5b906000526020600020015460019004600d6000600a600087600019166000191681526020019081526020016000206006016001815481101515614fe857fe5b90600052602060002001546001900473ffffffffffffffffffffffffffffffffffffffff1673ffffffffffffffffffffffffffffffffffffffff168152602001908152602001600020600301819055506001600a6000836000191660001916815260200190815260200160002060040160016101000a81548160ff0219169083151502179055503373ffffffffffffffffffffffffffffffffffffffff167f6c24efcf011d4307695364bb80d6c4ff2a8ecc10c22c3a1c74a7889ede3dd7468260405180826000191660001916815260200191505060405180910390a2505050565b600081830190508281101515156150dd57fe5b80905092915050565b60008282111515156150f457fe5b818303905092915050565b600061515382600160008673ffffffffffffffffffffffffffffffffffffffff1673ffffffffffffffffffffffffffffffffffffffff168152602001908152602001600020546150ca90919063ffffffff16565b50615169826000546150ca90919063ffffffff16565b60008190555092915050565b6000600160008473ffffffffffffffffffffffffffffffffffffffff1673ffffffffffffffffffffffffffffffffffffffff1681526020019081526020016000205482111515156151c557600080fd5b61521782600160008673ffffffffffffffffffffffffffffffffffffffff1673ffffffffffffffffffffffffffffffffffffffff168152602001908152602001600020546150e690919063ffffffff16565b600160008573ffffffffffffffffffffffffffffffffffffffff1673ffffffffffffffffffffffffffffffffffffffff1681526020019081526020016000206000828254019250508190555092915050565b8280548282559060005260206000209081019282156152ab579160200282015b828111156152aa578251829060001916905591602001919060010190615289565b5b5090506152b891906152bc565b5090565b6152de91905b808211156152da5760008160009055506001016152c2565b5090565b905600a165627a7a7230582005ee6089f9c13171aafed4de4e8f88e627ad16ed720fbca2d9f487a8ce0260c40029",
  "source": "//TODO, implement overflow checks for multiplications (1)\n\npragma solidity ^0.4.24;\n\nimport \"./TokenTreasury.sol\";\nimport \"./Slasher.sol\";\nimport \"./EtherTreasury.sol\";\nimport \"./SponsorRegistry.sol\";\n\nimport \"./../node_modules/openzeppelin-solidity/contracts/math/SafeMath.sol\";\n\n/**\n * @title Master\n * @author Rinke Hendriksen (rinkehendriksen@gmail.com)\n * @dev The Master registers the hashes of the statutary goals and objectives of the DAO and makes sure all parameters can be updated when voted for\n */\ncontract Master is TokenTreasury, Slasher, EtherTreasury, SponsorRegistry {\n\n    using SafeMath for uint256;\n\n    bytes32 public statutaryGoalsHash;\n    bytes32 public statutaryRulesHash;\n\n    constructor(\n        bytes32 _statutaryGoalsHash,\n        bytes32 _statutaryRulesHash,\n        uint256 lastVote\n    )\n        Slasher(lastVote)\n    {\n        statutaryGoalsHash = _statutaryGoalsHash;\n        statutaryRulesHash = _statutaryRulesHash;\n    }\n\n    event logUpgraded(\n        address indexed callee,\n        bytes32 voteId\n    );\n\n    modifier beforeApplicableVote(bytes32 voteId) {\n        require(!voteRegistry[voteId].inEffect);\n        require((voteRegistry[voteId].closingTime.add(votingWindow)) < now);\n        //TODO, see 1\n        require(((voteRegistry[voteId].tokensInFavor / voteRegistry[voteId].tokensAgainst) * 1000000) >= majorityQuotum);\n        _;\n    }\n\n    modifier afterApplicableVote(bytes32 voteId) {\n      _;\n      voteRegistry[voteId].inEffect = true;\n      emit logUpgraded(msg.sender, voteId);\n    }\n\n    function setSuperUpgrade(bytes32 voteId)\n        public\n        whenNotUpgraded\n        beforeApplicableVote(voteId)\n        afterApplicableVote(voteId)\n    {\n        require(voteRegistry[voteId].subject == bytes32(\"SUPER_UPGRADE\"));\n        // TODO, see 1\n        require(uint256(voteRegistry[voteId].effect[0]) <= (assemblyPeriod * 4));\n        isUpgraded = true;\n        whenClosed = uint256(voteRegistry[voteId].effect[0]);\n    }\n\n    function setReferendumQuotum(bytes32 voteId)\n        public\n        whenNotUpgraded\n        beforeApplicableVote(voteId)\n        afterApplicableVote(voteId)\n    {\n        require(voteRegistry[voteId].subject == bytes32(\"REFERENDUM_QUOTUM\"));\n        require(uint256(voteRegistry[voteId].effect[0]) <= 1000000); // 100%\n        referendumQuotum = uint256(voteRegistry[voteId].effect[0]);\n    }\n\n    function setMajorityQuotum(bytes32 voteId)\n        public\n        whenNotUpgraded\n        beforeApplicableVote(voteId)\n        afterApplicableVote(voteId)\n    {\n        require(voteRegistry[voteId].subject == bytes32(\"MAJORITY_QUOTUM\"));\n        require(uint256(voteRegistry[voteId].effect[0]) <= 1000000); // 100%\n        majorityQuotum = uint256(voteRegistry[voteId].effect[0]);\n    }\n\n    function setAssemblyPeriod(bytes32 voteId)\n        public\n        whenNotUpgraded\n        beforeApplicableVote(voteId)\n        afterApplicableVote(voteId)\n    {\n        require(voteRegistry[voteId].subject == bytes32(\"ASSEMBLY_PERIOD\"));\n        // TODO, see 1\n        require(uint256(voteRegistry[voteId].effect[0]) >= assemblyPeriod / 4 && uint256(voteRegistry[voteId].effect[0]) <= (assemblyPeriod * 4));\n        assemblyPeriod = uint256(voteRegistry[voteId].effect[0]);\n    }\n\n    function setVotingWindow(bytes32 voteId)\n        public\n        whenNotUpgraded\n        beforeApplicableVote(voteId)\n        afterApplicableVote(voteId)\n    {\n        require(voteRegistry[voteId].subject ==  bytes32(\"VOTING_WINDOW\"));\n        require(uint256(voteRegistry[voteId].effect[0]) >= votingWindow / 4 && uint256(voteRegistry[voteId].effect[0]) <= assemblyPeriod);\n\n\n        votingWindow = uint256(voteRegistry[voteId].effect[0]);\n    }\n\n    function setBalances(bytes32 voteId)\n        public\n        whenNotUpgraded\n        beforeApplicableVote(voteId)\n        afterApplicableVote(voteId)\n    {\n        require(voteRegistry[voteId].subject == bytes32(\"BALANCES\"));\n        totalSupply_ = totalSupply_.sub(uint256(voteRegistry[voteId].effect[0]));\n        balances[address(voteRegistry[voteId].effect[1])] = balances[address(voteRegistry[voteId].effect[1])].sub(uint256(voteRegistry[voteId].effect[0]));\n    }\n\n    function setEtherPermission(bytes32 voteId)\n        public\n        whenNotUpgraded\n        beforeApplicableVote(voteId)\n        afterApplicableVote(voteId)\n    {\n        require(voteRegistry[voteId].subject == bytes32(\"ETHER_PERMISSION\"));\n        require(voteRegistry[voteId].effect[0] == bytes32(0) || voteRegistry[voteId].effect[0] == bytes32(1));\n        if(voteRegistry[voteId].effect[0] == bytes32(0)) {\n            etherAllowanceRegistry[address(voteRegistry[voteId].effect[1])].isAllowed = false;\n        } else {\n            etherAllowanceRegistry[address(voteRegistry[voteId].effect[1])].isAllowed = true;\n        }\n    }\n\n    function setEtherBudget(bytes32 voteId)\n        public\n        whenNotUpgraded\n        beforeApplicableVote(voteId)\n        afterApplicableVote(voteId)\n    {\n        require(voteRegistry[voteId].subject == bytes32(\"ETHER_BUDGET\"));\n        etherAllowanceRegistry[address(voteRegistry[voteId].effect[1])].budget = uint256(voteRegistry[voteId].effect[0]);\n    }\n\n    function setEtherPeriod(bytes32 voteId)\n        public\n        whenNotUpgraded\n        beforeApplicableVote(voteId)\n        afterApplicableVote(voteId)\n    {\n        require(voteRegistry[voteId].subject == bytes32(\"ETHER_PERIOD\"));\n        etherAllowanceRegistry[address(voteRegistry[voteId].effect[1])].budgetPeriod = uint256(voteRegistry[voteId].effect[0]);\n    }\n\n    function setTokenPermission(bytes32 voteId)\n        public\n        whenNotUpgraded\n        beforeApplicableVote(voteId)\n        afterApplicableVote(voteId)\n    {\n        require(voteRegistry[voteId].subject == bytes32(\"TOKEN_PERMISSION\"));\n        require(voteRegistry[voteId].effect[0] == bytes32(0) || voteRegistry[voteId].effect[0] == bytes32(1));\n        if(voteRegistry[voteId].effect[0] == bytes32(0)) {\n            tokenAllowanceRegistry[address(voteRegistry[voteId].effect[1])].isAllowed = false;\n        } else {\n            tokenAllowanceRegistry[address(voteRegistry[voteId].effect[1])].isAllowed = true;\n        }\n    }\n\n    function setTokenBudget(bytes32 voteId)\n        public\n        whenNotUpgraded\n        beforeApplicableVote(voteId)\n        afterApplicableVote(voteId)\n    {\n        require(voteRegistry[voteId].subject == bytes32(\"TOKEN_BUDGET\"));\n        tokenAllowanceRegistry[address(voteRegistry[voteId].effect[1])].budget = uint256(voteRegistry[voteId].effect[0]);\n    }\n\n    function setTokenPeriod(bytes32 voteId)\n        public\n        whenNotUpgraded\n        beforeApplicableVote(voteId)\n        afterApplicableVote(voteId)\n    {\n        require(voteRegistry[voteId].subject == bytes32(\"TOKEN_PERIOD\"));\n        tokenAllowanceRegistry[address(voteRegistry[voteId].effect[1])].budgetPeriod = uint256(voteRegistry[voteId].effect[0]);\n    }\n\n    function setGoals(bytes32 voteId)\n        public\n        whenNotUpgraded\n        beforeApplicableVote(voteId)\n        afterApplicableVote(voteId)\n    {\n        require(voteRegistry[voteId].subject == bytes32(\"GOALS\"));\n        statutaryGoalsHash = voteRegistry[voteId].effect[0];\n    }\n\n    function setRules(bytes32 voteId)\n        public\n        whenNotUpgraded\n        beforeApplicableVote(voteId)\n        afterApplicableVote(voteId)\n    {\n        require(voteRegistry[voteId].subject == bytes32(\"RULES\"));\n        statutaryRulesHash = voteRegistry[voteId].effect[0];\n    }\n\n    /**\n     * @dev reverts when plain value is being send to the contract. Sponsors should use the payTribute function in the SponsorRegistry contract.\n     * @notice this callback function does not prevent the contract from receiving value at all. We have the possibilities selfdescruct or mining to the contract address.\n     */\n    function () payable {\n        revert();\n    }\n}\n",
  "sourcePath": "/home/rinke/DAPPS/SUBER/SuberDAO/contracts/Master.sol",
  "compiler": {
    "name": "solc",
    "version": "0.4.24+commit.e67f0147.Emscripten.clang"
  },
  "schemaVersion": "2.0.0",
  "updatedAt": "2018-08-27T16:14:28.449Z"
}