{
  "contractName": "Slasher",
  "abi": [
    {
      "constant": false,
      "inputs": [
        {
          "name": "voteId",
          "type": "bytes32"
        },
        {
          "name": "secret",
          "type": "bytes32"
        },
        {
          "name": "myVote",
          "type": "bool"
        }
      ],
      "name": "revealVote",
      "outputs": [],
      "payable": false,
      "stateMutability": "nonpayable",
      "type": "function"
    },
    {
      "constant": false,
      "inputs": [
        {
          "name": "voteId",
          "type": "bytes32"
        }
      ],
      "name": "cancelAcceptance",
      "outputs": [],
      "payable": false,
      "stateMutability": "nonpayable",
      "type": "function"
    },
    {
      "constant": true,
      "inputs": [],
      "name": "totalSupply",
      "outputs": [
        {
          "name": "",
          "type": "uint256"
        }
      ],
      "payable": false,
      "stateMutability": "view",
      "type": "function"
    },
    {
      "constant": true,
      "inputs": [],
      "name": "majorityQuotum",
      "outputs": [
        {
          "name": "",
          "type": "uint256"
        }
      ],
      "payable": false,
      "stateMutability": "view",
      "type": "function"
    },
    {
      "constant": true,
      "inputs": [],
      "name": "referendumQuotum",
      "outputs": [
        {
          "name": "",
          "type": "uint256"
        }
      ],
      "payable": false,
      "stateMutability": "view",
      "type": "function"
    },
    {
      "constant": false,
      "inputs": [],
      "name": "declareAssembly",
      "outputs": [],
      "payable": false,
      "stateMutability": "nonpayable",
      "type": "function"
    },
    {
      "constant": false,
      "inputs": [
        {
          "name": "voteId",
          "type": "bytes32"
        }
      ],
      "name": "makeAccepted",
      "outputs": [],
      "payable": false,
      "stateMutability": "nonpayable",
      "type": "function"
    },
    {
      "constant": true,
      "inputs": [
        {
          "name": "_owner",
          "type": "address"
        }
      ],
      "name": "balanceOf",
      "outputs": [
        {
          "name": "",
          "type": "uint256"
        }
      ],
      "payable": false,
      "stateMutability": "view",
      "type": "function"
    },
    {
      "constant": false,
      "inputs": [
        {
          "name": "voteId",
          "type": "bytes32"
        },
        {
          "name": "_subject",
          "type": "bytes32"
        },
        {
          "name": "_effect",
          "type": "bytes32[1]"
        }
      ],
      "name": "proposeReferendum",
      "outputs": [],
      "payable": false,
      "stateMutability": "nonpayable",
      "type": "function"
    },
    {
      "constant": true,
      "inputs": [],
      "name": "votingWindow",
      "outputs": [
        {
          "name": "",
          "type": "uint256"
        }
      ],
      "payable": false,
      "stateMutability": "view",
      "type": "function"
    },
    {
      "constant": true,
      "inputs": [],
      "name": "lastAssembly",
      "outputs": [
        {
          "name": "",
          "type": "uint256"
        }
      ],
      "payable": false,
      "stateMutability": "view",
      "type": "function"
    },
    {
      "constant": true,
      "inputs": [
        {
          "name": "",
          "type": "address"
        }
      ],
      "name": "lastProposed",
      "outputs": [
        {
          "name": "",
          "type": "uint256"
        }
      ],
      "payable": false,
      "stateMutability": "view",
      "type": "function"
    },
    {
      "constant": true,
      "inputs": [
        {
          "name": "",
          "type": "bytes32"
        }
      ],
      "name": "blindedVoteUsed",
      "outputs": [
        {
          "name": "",
          "type": "bool"
        }
      ],
      "payable": false,
      "stateMutability": "view",
      "type": "function"
    },
    {
      "constant": true,
      "inputs": [
        {
          "name": "",
          "type": "bytes32"
        }
      ],
      "name": "acceptanceRegistry",
      "outputs": [
        {
          "name": "tokensInFavor",
          "type": "uint256"
        },
        {
          "name": "closingTime",
          "type": "uint256"
        }
      ],
      "payable": false,
      "stateMutability": "view",
      "type": "function"
    },
    {
      "constant": false,
      "inputs": [
        {
          "name": "voteId",
          "type": "bytes32"
        }
      ],
      "name": "signalAcceptance",
      "outputs": [],
      "payable": false,
      "stateMutability": "nonpayable",
      "type": "function"
    },
    {
      "constant": true,
      "inputs": [],
      "name": "assemblyPeriod",
      "outputs": [
        {
          "name": "",
          "type": "uint256"
        }
      ],
      "payable": false,
      "stateMutability": "view",
      "type": "function"
    },
    {
      "constant": true,
      "inputs": [
        {
          "name": "",
          "type": "bytes32"
        }
      ],
      "name": "voteRegistry",
      "outputs": [
        {
          "name": "tokensInFavor",
          "type": "uint256"
        },
        {
          "name": "tokensAgainst",
          "type": "uint256"
        },
        {
          "name": "subject",
          "type": "bytes32"
        },
        {
          "name": "accepted",
          "type": "bool"
        },
        {
          "name": "inEffect",
          "type": "bool"
        },
        {
          "name": "closingTime",
          "type": "uint256"
        }
      ],
      "payable": false,
      "stateMutability": "view",
      "type": "function"
    },
    {
      "constant": false,
      "inputs": [
        {
          "name": "voteId",
          "type": "bytes32"
        },
        {
          "name": "secret",
          "type": "bytes32"
        },
        {
          "name": "myVote",
          "type": "bool"
        }
      ],
      "name": "cancelVote",
      "outputs": [],
      "payable": false,
      "stateMutability": "nonpayable",
      "type": "function"
    },
    {
      "constant": false,
      "inputs": [
        {
          "name": "voteId",
          "type": "bytes32"
        },
        {
          "name": "blindedVote",
          "type": "bytes32"
        }
      ],
      "name": "vote",
      "outputs": [],
      "payable": false,
      "stateMutability": "nonpayable",
      "type": "function"
    },
    {
      "inputs": [
        {
          "name": "lastVote",
          "type": "uint256"
        }
      ],
      "payable": false,
      "stateMutability": "nonpayable",
      "type": "constructor"
    },
    {
      "anonymous": false,
      "inputs": [
        {
          "indexed": true,
          "name": "callee",
          "type": "address"
        },
        {
          "indexed": true,
          "name": "poorGuy",
          "type": "address"
        },
        {
          "indexed": false,
          "name": "amount",
          "type": "uint256"
        }
      ],
      "name": "Slashed",
      "type": "event"
    },
    {
      "anonymous": false,
      "inputs": [
        {
          "indexed": true,
          "name": "callee",
          "type": "address"
        }
      ],
      "name": "AssemblyDeclared",
      "type": "event"
    },
    {
      "anonymous": false,
      "inputs": [
        {
          "indexed": true,
          "name": "callee",
          "type": "address"
        },
        {
          "indexed": true,
          "name": "voteId",
          "type": "bytes32"
        }
      ],
      "name": "VoteProposed",
      "type": "event"
    },
    {
      "anonymous": false,
      "inputs": [
        {
          "indexed": true,
          "name": "callee",
          "type": "address"
        },
        {
          "indexed": true,
          "name": "voteId",
          "type": "bytes32"
        }
      ],
      "name": "AcceptanceSignalled",
      "type": "event"
    },
    {
      "anonymous": false,
      "inputs": [
        {
          "indexed": true,
          "name": "callee",
          "type": "address"
        },
        {
          "indexed": true,
          "name": "voteId",
          "type": "bytes32"
        }
      ],
      "name": "VoteAccepted",
      "type": "event"
    },
    {
      "anonymous": false,
      "inputs": [
        {
          "indexed": true,
          "name": "callee",
          "type": "address"
        },
        {
          "indexed": true,
          "name": "voteId",
          "type": "bytes32"
        },
        {
          "indexed": false,
          "name": "blindedVote",
          "type": "bytes32"
        }
      ],
      "name": "Voted",
      "type": "event"
    },
    {
      "anonymous": false,
      "inputs": [
        {
          "indexed": true,
          "name": "callee",
          "type": "address"
        },
        {
          "indexed": true,
          "name": "voteId",
          "type": "bytes32"
        },
        {
          "indexed": true,
          "name": "vote",
          "type": "bool"
        },
        {
          "indexed": false,
          "name": "secret",
          "type": "bytes32"
        },
        {
          "indexed": false,
          "name": "amountOfTokens",
          "type": "uint256"
        }
      ],
      "name": "VoteRevealed",
      "type": "event"
    },
    {
      "anonymous": false,
      "inputs": [
        {
          "indexed": true,
          "name": "callee",
          "type": "address"
        },
        {
          "indexed": true,
          "name": "voteId",
          "type": "bytes32"
        }
      ],
      "name": "VoteCancelled",
      "type": "event"
    },
    {
      "constant": false,
      "inputs": [
        {
          "name": "poorGuy",
          "type": "address"
        },
        {
          "name": "voteId",
          "type": "bytes32"
        },
        {
          "name": "poorGuyVote",
          "type": "bool"
        },
        {
          "name": "poorGuyBlindedVote",
          "type": "bytes32"
        },
        {
          "name": "poorGuySecret",
          "type": "bytes32"
        }
      ],
      "name": "slash",
      "outputs": [],
      "payable": false,
      "stateMutability": "nonpayable",
      "type": "function"
    }
  ],
  "bytecode": "0x608060405262030d40600255620927c060035562180f606004556202a30060055534801561002c57600080fd5b50604051602080611da68339810180604052810190808051906020019092919050505080806006819055506040516020018060000190506040516020818303038152906040526040518082805190602001908083835b6020831015156100a75780518252602082019150602081019050602083039250610082565b6001836020036101000a0380198251168184511680821785525050505050509050019150506040518091039020600781600019169055505050611cb7806100ef6000396000f300608060405260043610610112576000357c0100000000000000000000000000000000000000000000000000000000900463ffffffff16806302de47d8146101175780630d4a2bc81461016257806318160ddd146101935780631e955399146101be57806337a2c516146101e95780635e9c2699146102145780636c5416a71461022b57806370a082311461025c5780637167eef6146102b357806372a6300a14610321578063776486a41461034c5780637d6067c614610377578063850f2192146103ce5780638950ee2d14610447578063ac200ff514610490578063b6e4551e146104dc578063c9bec7b61461050d578063e350b10e14610538578063e422e440146105b0578063eeaaf19d146105fb575b600080fd5b34801561012357600080fd5b506101606004803603810190808035600019169060200190929190803560001916906020019092919080351515906020019092919050505061063a565b005b34801561016e57600080fd5b506101916004803603810190808035600019169060200190929190505050610a2a565b005b34801561019f57600080fd5b506101a8610a2d565b6040518082815260200191505060405180910390f35b3480156101ca57600080fd5b506101d3610a36565b6040518082815260200191505060405180910390f35b3480156101f557600080fd5b506101fe610a3c565b6040518082815260200191505060405180910390f35b34801561022057600080fd5b50610229610a42565b005b34801561023757600080fd5b5061025a6004803603810190808035600019169060200190929190505050610ab3565b005b34801561026857600080fd5b5061029d600480360381019080803573ffffffffffffffffffffffffffffffffffffffff169060200190929190505050610bf6565b6040518082815260200191505060405180910390f35b3480156102bf57600080fd5b5061031f600480360381019080803560001916906020019092919080356000191690602001909291908060200190600180602002604051908101604052809291908260016020028082843782019150505050509192919290505050610c3f565b005b34801561032d57600080fd5b50610336610ef5565b6040518082815260200191505060405180910390f35b34801561035857600080fd5b50610361610efb565b6040518082815260200191505060405180910390f35b34801561038357600080fd5b506103b8600480360381019080803573ffffffffffffffffffffffffffffffffffffffff169060200190929190505050610f01565b6040518082815260200191505060405180910390f35b3480156103da57600080fd5b50610445600480360381019080803573ffffffffffffffffffffffffffffffffffffffff169060200190929190803560001916906020019092919080351515906020019092919080356000191690602001909291908035600019169060200190929190505050610f19565b005b34801561045357600080fd5b5061047660048036038101908080356000191690602001909291905050506111b6565b604051808215151515815260200191505060405180910390f35b34801561049c57600080fd5b506104bf60048036038101908080356000191690602001909291905050506111d6565b604051808381526020018281526020019250505060405180910390f35b3480156104e857600080fd5b5061050b60048036038101908080356000191690602001909291905050506111fa565b005b34801561051957600080fd5b506105226113fa565b6040518082815260200191505060405180910390f35b34801561054457600080fd5b506105676004803603810190808035600019169060200190929190505050611400565b6040518087815260200186815260200185600019166000191681526020018415151515815260200183151515158152602001828152602001965050505050505060405180910390f35b3480156105bc57600080fd5b506105f960048036038101908080356000191690602001909291908035600019169060200190929190803515159060200190929190505050611456565b005b34801561060757600080fd5b506106386004803603810190808035600019169060200190929190803560001916906020019092919050505061181f565b005b42600960008560001916600019168152602001908152602001600020600501541015801561069a57504261069760055460096000876000191660001916815260200190815260200160002060050154611aea90919063ffffffff16565b11155b15156106a557600080fd5b60096000846000191660001916815260200190815260200160002060000160003373ffffffffffffffffffffffffffffffffffffffff1673ffffffffffffffffffffffffffffffffffffffff168152602001908152602001600020600001546000191681836040516020018083151515157f01000000000000000000000000000000000000000000000000000000000000000281526001018260001916600019168152602001925050506040516020818303038152906040526040518082805190602001908083835b602083101515610793578051825260208201915060208101905060208303925061076e565b6001836020036101000a0380198251168184511680821785525050505050509050019150506040518091039020600019161415156107d057600080fd5b60096000846000191660001916815260200190815260200160002060000160003373ffffffffffffffffffffffffffffffffffffffff1673ffffffffffffffffffffffffffffffffffffffff16815260200190815260200160002060010160009054906101000a900460ff1615151561084857600080fd5b60096000846000191660001916815260200190815260200160002060000160003373ffffffffffffffffffffffffffffffffffffffff1673ffffffffffffffffffffffffffffffffffffffff16815260200190815260200160002060010160019054906101000a900460ff161515156108c057600080fd5b600160096000856000191660001916815260200190815260200160002060000160003373ffffffffffffffffffffffffffffffffffffffff1673ffffffffffffffffffffffffffffffffffffffff16815260200190815260200160002060010160016101000a81548160ff021916908315150217905550801561097c5761097661094933610bf6565b60096000866000191660001916815260200190815260200160002060010154611aea90919063ffffffff16565b506109b7565b6109b561098833610bf6565b60096000866000191660001916815260200190815260200160002060020154611aea90919063ffffffff16565b505b80151583600019163373ffffffffffffffffffffffffffffffffffffffff167fcc0838ab811a958e5f4f2edaa7688c07c16d318ae871171c8d829bcc3a834b8685610a0133610bf6565b6040518083600019166000191681526020018281526020019250505060405180910390a4505050565b50565b60008054905090565b60035481565b60025481565b42610a5a600454600654611aea90919063ffffffff16565b10151515610a6757600080fd5b426006819055503373ffffffffffffffffffffffffffffffffffffffff167f5a9f3dca4f11ce5758212591c09fcbf4327907998551dfadf1eadafe2f66db5660405160405180910390a2565b60096000826000191660001916815260200190815260200160002060040160009054906101000a900460ff16151515610aeb57600080fd5b600254610af6610a2d565b620f4240600a600085600019166000191681526020019081526020016000206000015402811515610b2357fe5b0410151515610b3157600080fd5b600160096000836000191660001916815260200190815260200160002060040160006101000a81548160ff021916908315150217905550610b896002600554811515610b7957fe5b0442611aea90919063ffffffff16565b6009600083600019166000191681526020019081526020016000206005018190555080600019163373ffffffffffffffffffffffffffffffffffffffff167fa8c7fa23af7412355a57b6bb8eaf1dae9273a307f5b020add12c63d1234a473b60405160405180910390a350565b6000600160008373ffffffffffffffffffffffffffffffffffffffff1673ffffffffffffffffffffffffffffffffffffffff168152602001908152602001600020549050919050565b6000801916826000191614151515610c5657600080fd5b60008019166009600085600019166000191681526020019081526020016000206003015460001916141515610c8a57600080fd5b8160001916600960008560001916600019168152602001908152602001600020505080600960008560001916600019168152602001908152602001600020600601906001610cd9929190611c13565b5042610cf2600554600654611aea90919063ffffffff16565b101515610e70576000610d0433610bf6565b14151515610d1157600080fd5b42610d66600554600860003373ffffffffffffffffffffffffffffffffffffffff1673ffffffffffffffffffffffffffffffffffffffff16815260200190815260200160002054611aea90919063ffffffff16565b11151515610d7357600080fd5b42600860003373ffffffffffffffffffffffffffffffffffffffff1673ffffffffffffffffffffffffffffffffffffffff1681526020019081526020016000205050600160096000856000191660001916815260200190815260200160002060040160006101000a81548160ff021916908315150217905550610e0160055442611aea90919063ffffffff16565b6009600085600019166000191681526020019081526020016000206005018190555082600019163373ffffffffffffffffffffffffffffffffffffffff167fa8c7fa23af7412355a57b6bb8eaf1dae9273a307f5b020add12c63d1234a473b60405160405180910390a3610ef0565b610e8560055442611aea90919063ffffffff16565b600a600085600019166000191681526020019081526020016000206002018190555082600019163373ffffffffffffffffffffffffffffffffffffffff167f49d5296759dd2d75f95fe5c9b103a193da4551b25ae5f58195f95c17b91c276b60405160405180910390a35b505050565b60055481565b60065481565b60086020528060005260406000206000915090505481565b426009600086600019166000191681526020019081526020016000206005015411151515610f4657600080fd5b816000191683826040516020018083151515157f01000000000000000000000000000000000000000000000000000000000000000281526001018260001916600019168152602001925050506040516020818303038152906040526040518082805190602001908083835b602083101515610fd65780518252602082019150602081019050602083039250610fb1565b6001836020036101000a03801982511681845116808217855250505050505090500191505060405180910390206000191614151561101357600080fd5b82156110a657620186a060035481151561102957fe5b04600a600960008760001916600019168152602001908152602001600020600101540260096000876000191660001916815260200190815260200160002060020154016009600087600019166000191681526020019081526020016000206002015481151561109457fe5b041115156110a157600080fd5b61112f565b620186a06003548115156110b657fe5b04600a600960008760001916600019168152602001908152602001600020600101540260096000876000191660001916815260200190815260200160002060020154016009600087600019166000191681526020019081526020016000206001015481151561112157fe5b0411151561112e57600080fd5b5b6111418561113c87610bf6565b611b06565b508473ffffffffffffffffffffffffffffffffffffffff163373ffffffffffffffffffffffffffffffffffffffff167f96e0041f14ae401fab2384e3c29da20cb0263ef760c47847db1f13403cea654c61119a88610bf6565b6040518082815260200191505060405180910390a35050505050565b600b6020528060005260406000206000915054906101000a900460ff1681565b600a6020528060005260406000206000915090508060000154908060020154905082565b600080191660096000836000191660001916815260200190815260200160002060030154600019161415151561122f57600080fd5b60096000826000191660001916815260200190815260200160002060040160009054906101000a900460ff1615151561126757600080fd5b42600a60008360001916600019168152602001908152602001600020600201541115151561129457600080fd5b600a6000826000191660001916815260200190815260200160002060010160003373ffffffffffffffffffffffffffffffffffffffff1673ffffffffffffffffffffffffffffffffffffffff16815260200190815260200160002060009054906101000a900460ff1615151561130957600080fd5b60011515600a6000836000191660001916815260200190815260200160002060010160003373ffffffffffffffffffffffffffffffffffffffff1673ffffffffffffffffffffffffffffffffffffffff16815260200190815260200160002060009054906101000a905050506113ae61138133610bf6565b600a6000846000191660001916815260200190815260200160002060000154611aea90919063ffffffff16565b5080600019163373ffffffffffffffffffffffffffffffffffffffff167f98a9d348ac42ffcd4e388245eb19954bb535468e46278e4dba447caf74a88a3960405160405180910390a350565b60045481565b60096020528060005260406000206000915090508060010154908060020154908060030154908060040160009054906101000a900460ff16908060040160019054906101000a900460ff16908060050154905086565b4260096000856000191660001916815260200190815260200160002060050154101580156114b65750426114b360055460096000876000191660001916815260200190815260200160002060050154611aea90919063ffffffff16565b11155b15156114c157600080fd5b60096000846000191660001916815260200190815260200160002060000160003373ffffffffffffffffffffffffffffffffffffffff1673ffffffffffffffffffffffffffffffffffffffff168152602001908152602001600020600001546000191681836040516020018083151515157f01000000000000000000000000000000000000000000000000000000000000000281526001018260001916600019168152602001925050506040516020818303038152906040526040518082805190602001908083835b6020831015156115af578051825260208201915060208101905060208303925061158a565b6001836020036101000a0380198251168184511680821785525050505050509050019150506040518091039020600019161415156115ec57600080fd5b60096000846000191660001916815260200190815260200160002060000160003373ffffffffffffffffffffffffffffffffffffffff1673ffffffffffffffffffffffffffffffffffffffff16815260200190815260200160002060010160009054906101000a900460ff1615151561166457600080fd5b60096000846000191660001916815260200190815260200160002060000160003373ffffffffffffffffffffffffffffffffffffffff1673ffffffffffffffffffffffffffffffffffffffff16815260200190815260200160002060010160019054906101000a900460ff1615156116db57600080fd5b600160096000856000191660001916815260200190815260200160002060000160003373ffffffffffffffffffffffffffffffffffffffff1673ffffffffffffffffffffffffffffffffffffffff16815260200190815260200160002060010160006101000a81548160ff02191690831515021790555080156117975761179161176433610bf6565b60096000866000191660001916815260200190815260200160002060010154611bfa90919063ffffffff16565b506117d2565b6117d06117a333610bf6565b60096000866000191660001916815260200190815260200160002060020154611bfa90919063ffffffff16565b505b82600019163373ffffffffffffffffffffffffffffffffffffffff167fc5a00d8e98da81cf8ba11869739651725f14e3e8dcc70856868da19061cc10ef60405160405180910390a3505050565b600b6000826000191660001916815260200190815260200160002060009054906101000a900460ff1615151561185457600080fd5b60075460001916600960008460001916600019168152602001908152602001600020600301546040516020018082600019166000191681526020019150506040516020818303038152906040526040518082805190602001908083835b6020831015156118d657805182526020820191506020810190506020830392506118b1565b6001836020036101000a0380198251168184511680821785525050505050509050019150506040518091039020600019161415151561191457600080fd5b60096000836000191660001916815260200190815260200160002060040160009054906101000a900460ff16151561194b57600080fd5b60006001026000191660096000846000191660001916815260200190815260200160002060000160003373ffffffffffffffffffffffffffffffffffffffff1673ffffffffffffffffffffffffffffffffffffffff16815260200190815260200160002060000154600019161415156119c357600080fd5b4260096000846000191660001916815260200190815260200160002060050154101515156119f057600080fd5b8060096000846000191660001916815260200190815260200160002060000160003373ffffffffffffffffffffffffffffffffffffffff1673ffffffffffffffffffffffffffffffffffffffff16815260200190815260200160002060000181600019169055506001600b6000836000191660001916815260200190815260200160002060006101000a81548160ff02191690831515021790555081600019163373ffffffffffffffffffffffffffffffffffffffff167f0a51713c76a3d455999e2c765be7c2638c7b06efe8099dc35c4a40d6cdc42dc38360405180826000191660001916815260200191505060405180910390a35050565b60008183019050828110151515611afd57fe5b80905092915050565b6000600160008473ffffffffffffffffffffffffffffffffffffffff1673ffffffffffffffffffffffffffffffffffffffff168152602001908152602001600020548211151515611b5657600080fd5b611ba882600160008673ffffffffffffffffffffffffffffffffffffffff1673ffffffffffffffffffffffffffffffffffffffff16815260200190815260200160002054611bfa90919063ffffffff16565b600160008573ffffffffffffffffffffffffffffffffffffffff1673ffffffffffffffffffffffffffffffffffffffff1681526020019081526020016000206000828254019250508190555092915050565b6000828211151515611c0857fe5b818303905092915050565b828054828255906000526020600020908101928215611c55579160200282015b82811115611c54578251829060001916905591602001919060010190611c33565b5b509050611c629190611c66565b5090565b611c8891905b80821115611c84576000816000905550600101611c6c565b5090565b905600a165627a7a7230582074e9046ab2b535bd6e84dca73c3f39b17c61e319a6243c1e4b9140e826f65c7f0029",
  "source": "//TODO: Different kind of slashings for different kind of situations\n//TODO: we now slash all voters, but perhaps we can slash those who propose a non-accepted votes as well?\n//TODO: we need different degrees of slashing, since now we take away all voting rights in one slash => not good :(\n//TODO: now we can slash even when the vote is not past the refendum stage (1)\n// TODO: both require statements below must also include a check for overflow of multiplications\n\npragma solidity ^0.4.24;\n\nimport \"./VotingEngine.sol\";\n\nimport \"./../node_modules/openzeppelin-solidity/contracts/math/SafeMath.sol\";\n\n/**\n * @title Slasher\n * @author Rinke Hendriksen (rinkehendriksen@gmail.com)\n * @dev the Slasher allows for anybody to slash participants. The goal of this contract is to nudge participants of the DAO to vote in accordance with the rules and objectives.\n */\ncontract Slasher is VotingEngine {\n\n    using SafeMath for uint256;\n\n    event Slashed(\n        address indexed callee,\n        address indexed poorGuy,\n        uint256 amount\n    );\n\n\n    constructor(uint256 lastVote) VotingEngine(lastVote) {}\n\n    /**\n    * @dev can be called by anybody to slash a person if this person deserves slashing\n    * @param poorGuy The address which will be slashed\n    * @param voteId the identifier of the vote to which the poorguy casted a 'wrong' vote\n    * @param poorGuyVote the non-blinded vote of the poorGuy\n    * @param poorGuyBlindedVote the blinded vote of the poorGuy\n    * @param poorGuySecret the secret which was used by the poorGuy to shield his blindedVote from the public\n    */\n    function slash(address poorGuy, bytes32 voteId, bool poorGuyVote, bytes32 poorGuyBlindedVote, bytes32 poorGuySecret ) {\n        require(voteRegistry[voteId].closingTime <= now);\n        // see, 1\n        require(keccak256(abi.encodePacked(poorGuyVote, poorGuySecret)) == poorGuyBlindedVote);\n        if(poorGuyVote) {\n          //TODO, see 1\n            require(voteRegistry[voteId].tokensAgainst / (voteRegistry[voteId].tokensAgainst + voteRegistry[voteId].tokensInFavor * 10) > (majorityQuotum / 100000));\n        } else {\n            require(voteRegistry[voteId].tokensInFavor / (voteRegistry[voteId].tokensAgainst + voteRegistry[voteId].tokensInFavor * 10) > (majorityQuotum / 100000));\n        }\n        decreaseBalance(poorGuy, balanceOf(poorGuy));\n        emit Slashed(msg.sender, poorGuy, balanceOf(poorGuy));\n\n    }\n\n}\n",
  "sourcePath": "/home/rinke/DAPPS/SUBER/SuberDAO/contracts/Slasher.sol",
  "compiler": {
    "name": "solc",
    "version": "0.4.24+commit.e67f0147.Emscripten.clang"
  },
  "schemaVersion": "2.0.0",
  "updatedAt": "2018-08-27T16:14:28.017Z"
}