{
  "contractName": "Slasher",
  "abi": [
    {
      "constant": true,
      "inputs": [],
      "name": "assemblyDuration",
      "outputs": [
        {
          "name": "",
          "type": "uint256"
        }
      ],
      "payable": false,
      "stateMutability": "view",
      "type": "function"
    },
    {
      "constant": true,
      "inputs": [],
      "name": "totalSupply",
      "outputs": [
        {
          "name": "",
          "type": "uint256"
        }
      ],
      "payable": false,
      "stateMutability": "view",
      "type": "function"
    },
    {
      "constant": true,
      "inputs": [],
      "name": "majorityQuotum",
      "outputs": [
        {
          "name": "",
          "type": "uint256"
        }
      ],
      "payable": false,
      "stateMutability": "view",
      "type": "function"
    },
    {
      "constant": false,
      "inputs": [
        {
          "name": "proposalId",
          "type": "bytes32"
        }
      ],
      "name": "makeFromCommitToRevealOrCancel",
      "outputs": [],
      "payable": false,
      "stateMutability": "nonpayable",
      "type": "function"
    },
    {
      "constant": true,
      "inputs": [],
      "name": "referendumQuotum",
      "outputs": [
        {
          "name": "",
          "type": "uint256"
        }
      ],
      "payable": false,
      "stateMutability": "view",
      "type": "function"
    },
    {
      "constant": false,
      "inputs": [
        {
          "name": "proposalId",
          "type": "bytes32"
        }
      ],
      "name": "makeFromRevealOrCancelToAccepted",
      "outputs": [],
      "payable": false,
      "stateMutability": "nonpayable",
      "type": "function"
    },
    {
      "constant": false,
      "inputs": [
        {
          "name": "proposalId",
          "type": "bytes32"
        },
        {
          "name": "secret",
          "type": "bytes32"
        },
        {
          "name": "myVote",
          "type": "bool"
        }
      ],
      "name": "ballotReveal",
      "outputs": [],
      "payable": false,
      "stateMutability": "nonpayable",
      "type": "function"
    },
    {
      "constant": false,
      "inputs": [
        {
          "name": "proposalId",
          "type": "bytes32"
        }
      ],
      "name": "makeFromRevealOrCancelToRejected",
      "outputs": [],
      "payable": false,
      "stateMutability": "nonpayable",
      "type": "function"
    },
    {
      "constant": false,
      "inputs": [
        {
          "name": "proposalId",
          "type": "bytes32"
        }
      ],
      "name": "ballotSignal",
      "outputs": [],
      "payable": false,
      "stateMutability": "nonpayable",
      "type": "function"
    },
    {
      "constant": false,
      "inputs": [
        {
          "name": "proposalId",
          "type": "bytes32"
        }
      ],
      "name": "cancelSignal",
      "outputs": [],
      "payable": false,
      "stateMutability": "nonpayable",
      "type": "function"
    },
    {
      "constant": false,
      "inputs": [],
      "name": "declareAssembly",
      "outputs": [],
      "payable": false,
      "stateMutability": "nonpayable",
      "type": "function"
    },
    {
      "constant": false,
      "inputs": [
        {
          "name": "proposalId",
          "type": "bytes32"
        },
        {
          "name": "blindedVote",
          "type": "bytes32"
        }
      ],
      "name": "ballotCommit",
      "outputs": [],
      "payable": false,
      "stateMutability": "nonpayable",
      "type": "function"
    },
    {
      "constant": false,
      "inputs": [
        {
          "name": "proposalId",
          "type": "bytes32"
        },
        {
          "name": "secret",
          "type": "bytes32"
        },
        {
          "name": "myVote",
          "type": "bool"
        }
      ],
      "name": "cancelBallot",
      "outputs": [],
      "payable": false,
      "stateMutability": "nonpayable",
      "type": "function"
    },
    {
      "constant": true,
      "inputs": [],
      "name": "votingWindow",
      "outputs": [
        {
          "name": "",
          "type": "uint256"
        }
      ],
      "payable": false,
      "stateMutability": "view",
      "type": "function"
    },
    {
      "constant": true,
      "inputs": [],
      "name": "lastAssembly",
      "outputs": [
        {
          "name": "",
          "type": "uint256"
        }
      ],
      "payable": false,
      "stateMutability": "view",
      "type": "function"
    },
    {
      "constant": true,
      "inputs": [
        {
          "name": "",
          "type": "address"
        }
      ],
      "name": "lastProposed",
      "outputs": [
        {
          "name": "",
          "type": "uint256"
        }
      ],
      "payable": false,
      "stateMutability": "view",
      "type": "function"
    },
    {
      "constant": true,
      "inputs": [],
      "name": "revealOrCancelWindow",
      "outputs": [
        {
          "name": "",
          "type": "uint256"
        }
      ],
      "payable": false,
      "stateMutability": "view",
      "type": "function"
    },
    {
      "constant": false,
      "inputs": [
        {
          "name": "proposalId",
          "type": "bytes32"
        },
        {
          "name": "_subject",
          "type": "bytes32"
        },
        {
          "name": "_effect",
          "type": "bytes32[1]"
        }
      ],
      "name": "makeFromDefaultToReferendum",
      "outputs": [],
      "payable": false,
      "stateMutability": "nonpayable",
      "type": "function"
    },
    {
      "constant": true,
      "inputs": [
        {
          "name": "",
          "type": "bytes32"
        }
      ],
      "name": "blindedVoteUsed",
      "outputs": [
        {
          "name": "",
          "type": "bool"
        }
      ],
      "payable": false,
      "stateMutability": "view",
      "type": "function"
    },
    {
      "constant": true,
      "inputs": [
        {
          "name": "",
          "type": "bytes32"
        }
      ],
      "name": "proposalRegistry",
      "outputs": [
        {
          "name": "tokensInFavor",
          "type": "uint256"
        },
        {
          "name": "tokensAgainst",
          "type": "uint256"
        },
        {
          "name": "subject",
          "type": "bytes32"
        },
        {
          "name": "status",
          "type": "uint8"
        },
        {
          "name": "closingTime",
          "type": "uint256"
        }
      ],
      "payable": false,
      "stateMutability": "view",
      "type": "function"
    },
    {
      "constant": false,
      "inputs": [
        {
          "name": "proposalId",
          "type": "bytes32"
        }
      ],
      "name": "makeFromReferendumToCommit",
      "outputs": [],
      "payable": false,
      "stateMutability": "nonpayable",
      "type": "function"
    },
    {
      "constant": false,
      "inputs": [],
      "name": "endAssembly",
      "outputs": [],
      "payable": false,
      "stateMutability": "nonpayable",
      "type": "function"
    },
    {
      "constant": false,
      "inputs": [
        {
          "name": "proposalId",
          "type": "bytes32"
        },
        {
          "name": "_subject",
          "type": "bytes32"
        },
        {
          "name": "_effect",
          "type": "bytes32[1]"
        }
      ],
      "name": "makeFromDefaultToCommit",
      "outputs": [],
      "payable": false,
      "stateMutability": "nonpayable",
      "type": "function"
    },
    {
      "constant": true,
      "inputs": [
        {
          "name": "_owner",
          "type": "address"
        }
      ],
      "name": "vouchersOf",
      "outputs": [
        {
          "name": "",
          "type": "uint256"
        }
      ],
      "payable": false,
      "stateMutability": "view",
      "type": "function"
    },
    {
      "constant": false,
      "inputs": [
        {
          "name": "proposalId",
          "type": "bytes32"
        }
      ],
      "name": "makeFromReferendumToRejected",
      "outputs": [],
      "payable": false,
      "stateMutability": "nonpayable",
      "type": "function"
    },
    {
      "constant": true,
      "inputs": [],
      "name": "assemblyInterval",
      "outputs": [
        {
          "name": "",
          "type": "uint256"
        }
      ],
      "payable": false,
      "stateMutability": "view",
      "type": "function"
    },
    {
      "constant": true,
      "inputs": [],
      "name": "minimumVouchersToPropose",
      "outputs": [
        {
          "name": "",
          "type": "uint256"
        }
      ],
      "payable": false,
      "stateMutability": "view",
      "type": "function"
    },
    {
      "anonymous": false,
      "inputs": [
        {
          "indexed": true,
          "name": "callee",
          "type": "address"
        },
        {
          "indexed": true,
          "name": "poorGuy",
          "type": "address"
        },
        {
          "indexed": false,
          "name": "amount",
          "type": "uint256"
        }
      ],
      "name": "Slashed",
      "type": "event"
    },
    {
      "anonymous": false,
      "inputs": [
        {
          "indexed": true,
          "name": "callee",
          "type": "address"
        }
      ],
      "name": "AssemblyDeclared",
      "type": "event"
    },
    {
      "anonymous": false,
      "inputs": [
        {
          "indexed": true,
          "name": "callee",
          "type": "address"
        }
      ],
      "name": "AssemblyCancelled",
      "type": "event"
    },
    {
      "anonymous": false,
      "inputs": [
        {
          "indexed": true,
          "name": "callee",
          "type": "address"
        },
        {
          "indexed": true,
          "name": "proposalId",
          "type": "bytes32"
        },
        {
          "indexed": false,
          "name": "newStatus",
          "type": "uint8"
        }
      ],
      "name": "ProposalStatusChanged",
      "type": "event"
    },
    {
      "anonymous": false,
      "inputs": [
        {
          "indexed": true,
          "name": "callee",
          "type": "address"
        },
        {
          "indexed": true,
          "name": "proposalId",
          "type": "bytes32"
        }
      ],
      "name": "ReferendumProposed",
      "type": "event"
    },
    {
      "anonymous": false,
      "inputs": [
        {
          "indexed": true,
          "name": "callee",
          "type": "address"
        },
        {
          "indexed": true,
          "name": "proposalId",
          "type": "bytes32"
        }
      ],
      "name": "ProposalProposed",
      "type": "event"
    },
    {
      "anonymous": false,
      "inputs": [
        {
          "indexed": true,
          "name": "callee",
          "type": "address"
        },
        {
          "indexed": true,
          "name": "proposalId",
          "type": "bytes32"
        }
      ],
      "name": "AcceptanceSignalled",
      "type": "event"
    },
    {
      "anonymous": false,
      "inputs": [
        {
          "indexed": true,
          "name": "callee",
          "type": "address"
        },
        {
          "indexed": true,
          "name": "proposalId",
          "type": "bytes32"
        },
        {
          "indexed": false,
          "name": "blindedVote",
          "type": "bytes32"
        }
      ],
      "name": "BallotCommitted",
      "type": "event"
    },
    {
      "anonymous": false,
      "inputs": [
        {
          "indexed": true,
          "name": "callee",
          "type": "address"
        },
        {
          "indexed": true,
          "name": "proposalId",
          "type": "bytes32"
        },
        {
          "indexed": false,
          "name": "vote",
          "type": "bool"
        },
        {
          "indexed": false,
          "name": "secret",
          "type": "bytes32"
        },
        {
          "indexed": false,
          "name": "amountOfVouchers",
          "type": "uint256"
        }
      ],
      "name": "BallotRevealed",
      "type": "event"
    },
    {
      "anonymous": false,
      "inputs": [
        {
          "indexed": true,
          "name": "callee",
          "type": "address"
        },
        {
          "indexed": true,
          "name": "proposalId",
          "type": "bytes32"
        },
        {
          "indexed": false,
          "name": "vote",
          "type": "bool"
        },
        {
          "indexed": false,
          "name": "secret",
          "type": "bytes32"
        },
        {
          "indexed": false,
          "name": "amountOfVouchers",
          "type": "uint256"
        }
      ],
      "name": "BallotCancelled",
      "type": "event"
    },
    {
      "constant": false,
      "inputs": [
        {
          "name": "poorGuy",
          "type": "address"
        },
        {
          "name": "proposalId",
          "type": "bytes32"
        },
        {
          "name": "poorGuyVote",
          "type": "bool"
        },
        {
          "name": "poorGuyBlindedVote",
          "type": "bytes32"
        },
        {
          "name": "poorGuySecret",
          "type": "bytes32"
        }
      ],
      "name": "slash",
      "outputs": [],
      "payable": false,
      "stateMutability": "nonpayable",
      "type": "function"
    }
  ],
  "bytecode": "0x608060405262030d40600255620927c060035562180f606004556201dfb06005556202a30060065562015180600755600060085560006009556128a1806100476000396000f30060806040526004361061016a576000357c0100000000000000000000000000000000000000000000000000000000900463ffffffff16806315b10b311461016f57806318160ddd1461019a5780631e955399146101c55780632d94a628146101f057806337a2c5161461022157806338a02d0c1461024c57806338e5ba061461027d57806357ad4c7f146102c85780635905d5c5146102f95780635cad0fc01461032a5780635e9c26991461035b5780635e9da234146103725780636aa59717146103b157806372a6300a146103fc578063776486a4146104275780637d6067c61461045257806384320462146104a9578063850f2192146104d45780638848e84b1461054d5780638950ee2d146105bb57806395cc40b914610604578063a1ea669c1461067b578063ae8887d6146106ac578063b4a0979b146106c3578063ce93da7414610731578063d6811dbc14610788578063ec3f9674146107b9578063f918823f146107e4575b600080fd5b34801561017b57600080fd5b5061018461080f565b6040518082815260200191505060405180910390f35b3480156101a657600080fd5b506101af610815565b6040518082815260200191505060405180910390f35b3480156101d157600080fd5b506101da61081e565b6040518082815260200191505060405180910390f35b3480156101fc57600080fd5b5061021f6004803603810190808035600019169060200190929190505050610824565b005b34801561022d57600080fd5b5061023661096d565b6040518082815260200191505060405180910390f35b34801561025857600080fd5b5061027b6004803603810190808035600019169060200190929190505050610973565b005b34801561028957600080fd5b506102c660048036038101908080356000191690602001909291908035600019169060200190929190803515159060200190929190505050610af8565b005b3480156102d457600080fd5b506102f76004803603810190808035600019169060200190929190505050610f9d565b005b34801561030557600080fd5b506103286004803603810190808035600019169060200190929190505050611121565b005b34801561033657600080fd5b506103596004803603810190808035600019169060200190929190505050611306565b005b34801561036757600080fd5b506103706114a9565b005b34801561037e57600080fd5b506103af6004803603810190808035600019169060200190929190803560001916906020019092919050505061152e565b005b3480156103bd57600080fd5b506103fa60048036038101908080356000191690602001909291908035600019169060200190929190803515159060200190929190505050611855565b005b34801561040857600080fd5b50610411611be1565b6040518082815260200191505060405180910390f35b34801561043357600080fd5b5061043c611be7565b6040518082815260200191505060405180910390f35b34801561045e57600080fd5b50610493600480360381019080803573ffffffffffffffffffffffffffffffffffffffff169060200190929190505050611bed565b6040518082815260200191505060405180910390f35b3480156104b557600080fd5b506104be611c05565b6040518082815260200191505060405180910390f35b3480156104e057600080fd5b5061054b600480360381019080803573ffffffffffffffffffffffffffffffffffffffff169060200190929190803560001916906020019092919080351515906020019092919080356000191690602001909291908035600019169060200190929190505050611c0b565b005b34801561055957600080fd5b506105b9600480360381019080803560001916906020019092919080356000191690602001909291908060200190600180602002604051908101604052809291908260016020028082843782019150505050509192919290505050611e8b565b005b3480156105c757600080fd5b506105ea600480360381019080803560001916906020019092919050505061200b565b604051808215151515815260200191505060405180910390f35b34801561061057600080fd5b50610633600480360381019080803560001916906020019092919050505061202b565b60405180868152602001858152602001846000191660001916815260200183600781111561065d57fe5b60ff1681526020018281526020019550505050505060405180910390f35b34801561068757600080fd5b506106aa600480360381019080803560001916906020019092919050505061206e565b005b3480156106b857600080fd5b506106c1612251565b005b3480156106cf57600080fd5b5061072f600480360381019080803560001916906020019092919080356000191690602001909291908060200190600180602002604051908101604052809291908260016020028082843782019150505050509192919290505050612320565b005b34801561073d57600080fd5b50610772600480360381019080803573ffffffffffffffffffffffffffffffffffffffff16906020019092919050505061255d565b6040518082815260200191505060405180910390f35b34801561079457600080fd5b506107b760048036038101908080356000191690602001909291905050506125a6565b005b3480156107c557600080fd5b506107ce6126c8565b6040518082815260200191505060405180910390f35b3480156107f057600080fd5b506107f96126ce565b6040518082815260200191505060405180910390f35b60055481565b60008054905090565b60035481565b6002600781111561083157fe5b600c6000836000191660001916815260200190815260200160002060040160009054906101000a900460ff16600781111561086857fe5b14151561087457600080fd5b42600c6000836000191660001916815260200190815260200160002060050154111515156108a157600080fd5b6007544201600c60008360001916600019168152602001908152602001600020600501819055506003600c6000836000191660001916815260200190815260200160002060040160006101000a81548160ff0219169083600781111561090357fe5b021790555080600019163373ffffffffffffffffffffffffffffffffffffffff167f7cd3cb2d04af5d6a228dbe135cef8bd59865b1da6087526282b538e62e10be6260036040518082600781111561095757fe5b60ff16815260200191505060405180910390a350565b60025481565b6003600781111561098057fe5b600c6000836000191660001916815260200190815260200160002060040160009054906101000a900460ff1660078111156109b757fe5b1415156109c357600080fd5b42600c6000836000191660001916815260200190815260200160002060050154111515156109f057600080fd5b600354620f4240600c6000846000191660001916815260200190815260200160002060020154600c6000856000191660001916815260200190815260200160002060010154811515610a3e57fe5b040210151515610a4d57600080fd5b60046007811115610a5a57fe5b600c6000836000191660001916815260200190815260200160002060040160009054906101000a900460ff166007811115610a9157fe5b505080600019163373ffffffffffffffffffffffffffffffffffffffff167f7cd3cb2d04af5d6a228dbe135cef8bd59865b1da6087526282b538e62e10be62600460405180826007811115610ae257fe5b60ff16815260200191505060405180910390a350565b60036007811115610b0557fe5b600c6000856000191660001916815260200190815260200160002060040160009054906101000a900460ff166007811115610b3c57fe5b141515610b4857600080fd5b600c6000846000191660001916815260200190815260200160002060000160003373ffffffffffffffffffffffffffffffffffffffff1673ffffffffffffffffffffffffffffffffffffffff168152602001908152602001600020600001546000191681836040516020018083151515157f01000000000000000000000000000000000000000000000000000000000000000281526001018260001916600019168152602001925050506040516020818303038152906040526040518082805190602001908083835b602083101515610c365780518252602082019150602081019050602083039250610c11565b6001836020036101000a038019825116818451168082178552505050505050905001915050604051809103902060001916141515610c7357600080fd5b60006004811115610c8057fe5b600c6000856000191660001916815260200190815260200160002060000160003373ffffffffffffffffffffffffffffffffffffffff1673ffffffffffffffffffffffffffffffffffffffff16815260200190815260200160002060010160009054906101000a900460ff166004811115610cf757fe5b1480610d84575060016004811115610d0b57fe5b600c6000856000191660001916815260200190815260200160002060000160003373ffffffffffffffffffffffffffffffffffffffff1673ffffffffffffffffffffffffffffffffffffffff16815260200190815260200160002060010160009054906101000a900460ff166004811115610d8257fe5b145b80610e10575060026004811115610d9757fe5b600c6000856000191660001916815260200190815260200160002060000160003373ffffffffffffffffffffffffffffffffffffffff1673ffffffffffffffffffffffffffffffffffffffff16815260200190815260200160002060010160009054906101000a900460ff166004811115610e0e57fe5b145b1515610e1b57600080fd5b60036004811115610e2857fe5b600c6000856000191660001916815260200190815260200160002060000160003373ffffffffffffffffffffffffffffffffffffffff1673ffffffffffffffffffffffffffffffffffffffff16815260200190815260200160002060010160009054906101000a900460ff166004811115610e9f57fe5b50508015610ee657610ee0610eb33361255d565b600c60008660001916600019168152602001908152602001600020600101546126d490919063ffffffff16565b50610f21565b610f1f610ef23361255d565b600c60008660001916600019168152602001908152602001600020600201546126d490919063ffffffff16565b505b82600019163373ffffffffffffffffffffffffffffffffffffffff167f3e5d76c126ee95f97bc31144c4ee6f56154b3ef9591ccd0ee2ac9e8663b883ab8385610f693361255d565b60405180841515151581526020018360001916600019168152602001828152602001935050505060405180910390a3505050565b60036007811115610faa57fe5b600c6000836000191660001916815260200190815260200160002060040160009054906101000a900460ff166007811115610fe157fe5b141515610fed57600080fd5b42600c60008360001916600019168152602001908152602001600020600501541115151561101a57600080fd5b600354620f4240600c6000846000191660001916815260200190815260200160002060020154600c600085600019166000191681526020019081526020016000206001015481151561106857fe5b040210151561107657600080fd5b6006600781111561108357fe5b600c6000836000191660001916815260200190815260200160002060040160009054906101000a900460ff1660078111156110ba57fe5b505080600019163373ffffffffffffffffffffffffffffffffffffffff167f7cd3cb2d04af5d6a228dbe135cef8bd59865b1da6087526282b538e62e10be6260066040518082600781111561110b57fe5b60ff16815260200191505060405180910390a350565b6001600781111561112e57fe5b600c6000836000191660001916815260200190815260200160002060040160009054906101000a900460ff16600781111561116557fe5b14151561117157600080fd5b6000600481111561117e57fe5b600c6000836000191660001916815260200190815260200160002060000160003373ffffffffffffffffffffffffffffffffffffffff1673ffffffffffffffffffffffffffffffffffffffff16815260200190815260200160002060010160009054906101000a900460ff1660048111156111f557fe5b14151561120157600080fd5b6001600c6000836000191660001916815260200190815260200160002060000160003373ffffffffffffffffffffffffffffffffffffffff1673ffffffffffffffffffffffffffffffffffffffff16815260200190815260200160002060010160006101000a81548160ff0219169083600481111561127c57fe5b02179055506112ba61128d3361255d565b600c60008460001916600019168152602001908152602001600020600101546126d490919063ffffffff16565b5080600019163373ffffffffffffffffffffffffffffffffffffffff167f98a9d348ac42ffcd4e388245eb19954bb535468e46278e4dba447caf74a88a3960405160405180910390a350565b6001600781111561131357fe5b600c6000836000191660001916815260200190815260200160002060040160009054906101000a900460ff16600781111561134a57fe5b14151561135657600080fd5b6001600481111561136357fe5b600c6000836000191660001916815260200190815260200160002060000160003373ffffffffffffffffffffffffffffffffffffffff1673ffffffffffffffffffffffffffffffffffffffff16815260200190815260200160002060010160009054906101000a900460ff1660048111156113da57fe5b1415156113e657600080fd5b61141f6113f23361255d565b600c60008460001916600019168152602001908152602001600020600101546126f090919063ffffffff16565b506002600481111561142d57fe5b600c6000836000191660001916815260200190815260200160002060000160003373ffffffffffffffffffffffffffffffffffffffff1673ffffffffffffffffffffffffffffffffffffffff16815260200190815260200160002060010160009054906101000a900460ff1660048111156114a457fe5b505050565b426114c16004546009546126d490919063ffffffff16565b101515156114ce57600080fd5b6001600a60006101000a81548160ff0219169083151502179055503373ffffffffffffffffffffffffffffffffffffffff167f5a9f3dca4f11ce5758212591c09fcbf4327907998551dfadf1eadafe2f66db5660405160405180910390a2565b600d6000826000191660001916815260200190815260200160002060009054906101000a900460ff1615151561156357600080fd5b6002600781111561157057fe5b600c6000846000191660001916815260200190815260200160002060040160009054906101000a900460ff1660078111156115a757fe5b1415156115b357600080fd5b600060048111156115c057fe5b600c6000846000191660001916815260200190815260200160002060000160003373ffffffffffffffffffffffffffffffffffffffff1673ffffffffffffffffffffffffffffffffffffffff16815260200190815260200160002060010160009054906101000a900460ff16600481111561163757fe5b14806116c457506001600481111561164b57fe5b600c6000846000191660001916815260200190815260200160002060000160003373ffffffffffffffffffffffffffffffffffffffff1673ffffffffffffffffffffffffffffffffffffffff16815260200190815260200160002060010160009054906101000a900460ff1660048111156116c257fe5b145b806117505750600260048111156116d757fe5b600c6000846000191660001916815260200190815260200160002060000160003373ffffffffffffffffffffffffffffffffffffffff1673ffffffffffffffffffffffffffffffffffffffff16815260200190815260200160002060010160009054906101000a900460ff16600481111561174e57fe5b145b151561175b57600080fd5b80600c6000846000191660001916815260200190815260200160002060000160003373ffffffffffffffffffffffffffffffffffffffff1673ffffffffffffffffffffffffffffffffffffffff16815260200190815260200160002060000181600019169055506001600d6000836000191660001916815260200190815260200160002060006101000a81548160ff02191690831515021790555081600019163373ffffffffffffffffffffffffffffffffffffffff167f0dd26db24b4198de21f2d0c36186e6eb912563dd2afa9fe278fd51e9734964208360405180826000191660001916815260200191505060405180910390a35050565b6003600781111561186257fe5b600c6000856000191660001916815260200190815260200160002060040160009054906101000a900460ff16600781111561189957fe5b1415156118a557600080fd5b600c6000846000191660001916815260200190815260200160002060000160003373ffffffffffffffffffffffffffffffffffffffff1673ffffffffffffffffffffffffffffffffffffffff168152602001908152602001600020600001546000191681836040516020018083151515157f01000000000000000000000000000000000000000000000000000000000000000281526001018260001916600019168152602001925050506040516020818303038152906040526040518082805190602001908083835b602083101515611993578051825260208201915060208101905060208303925061196e565b6001836020036101000a0380198251168184511680821785525050505050509050019150506040518091039020600019161415156119d057600080fd5b6004808111156119dc57fe5b600c6000856000191660001916815260200190815260200160002060000160003373ffffffffffffffffffffffffffffffffffffffff1673ffffffffffffffffffffffffffffffffffffffff16815260200190815260200160002060010160009054906101000a900460ff166004811115611a5357fe5b14151515611a6057600080fd5b600480811115611a6c57fe5b600c6000856000191660001916815260200190815260200160002060000160003373ffffffffffffffffffffffffffffffffffffffff1673ffffffffffffffffffffffffffffffffffffffff16815260200190815260200160002060010160009054906101000a900460ff166004811115611ae357fe5b50508015611b2a57611b24611af73361255d565b600c60008660001916600019168152602001908152602001600020600101546126f090919063ffffffff16565b50611b65565b611b63611b363361255d565b600c60008660001916600019168152602001908152602001600020600201546126f090919063ffffffff16565b505b82600019163373ffffffffffffffffffffffffffffffffffffffff167f87580b37240dceb6b95c73a689ac60d2fcffc6b561ae7b693a8db729fa6b857e8385611bad3361255d565b60405180841515151581526020018360001916600019168152602001828152602001935050505060405180910390a3505050565b60065481565b60095481565b600b6020528060005260406000206000915090505481565b60075481565b816000191683826040516020018083151515157f01000000000000000000000000000000000000000000000000000000000000000281526001018260001916600019168152602001925050506040516020818303038152906040526040518082805190602001908083835b602083101515611c9b5780518252602082019150602081019050602083039250611c76565b6001836020036101000a038019825116818451168082178552505050505050905001915050604051809103902060001916141515611cd857600080fd5b8215611db35760066007811115611ceb57fe5b600c6000866000191660001916815260200190815260200160002060040160009054906101000a900460ff166007811115611d2257fe5b141515611d2e57600080fd5b611d4085611d3b8761255d565b612709565b508473ffffffffffffffffffffffffffffffffffffffff163373ffffffffffffffffffffffffffffffffffffffff167f96e0041f14ae401fab2384e3c29da20cb0263ef760c47847db1f13403cea654c611d998861255d565b6040518082815260200191505060405180910390a3611e84565b60046007811115611dc057fe5b600c6000866000191660001916815260200190815260200160002060040160009054906101000a900460ff166007811115611df757fe5b141515611e0357600080fd5b611e1585611e108761255d565b612709565b508473ffffffffffffffffffffffffffffffffffffffff163373ffffffffffffffffffffffffffffffffffffffff167f96e0041f14ae401fab2384e3c29da20cb0263ef760c47847db1f13403cea654c611e6e8861255d565b6040518082815260200191505060405180910390a35b5050505050565b60006007811115611e9857fe5b600c6000856000191660001916815260200190815260200160002060040160009054906101000a900460ff166007811115611ecf57fe5b141515611edb57600080fd5b600a60009054906101000a900460ff16151515611ef757600080fd5b6001600c6000856000191660001916815260200190815260200160002060040160006101000a81548160ff02191690836007811115611f3257fe5b0217905550611f4c600654426126d490919063ffffffff16565b600c60008560001916600019168152602001908152602001600020600501819055508160001916600c60008560001916600019168152602001908152602001600020505080600c60008560001916600019168152602001908152602001600020600601906001611fbd9291906127fd565b5082600019163373ffffffffffffffffffffffffffffffffffffffff167fafe7505848198c1b694b9c827456151aece16f9b6d3f45d1052c6fd2c9c13f5a60405160405180910390a3505050565b600d6020528060005260406000206000915054906101000a900460ff1681565b600c6020528060005260406000206000915090508060010154908060020154908060030154908060040160009054906101000a900460ff16908060050154905085565b6001600781111561207b57fe5b600c6000836000191660001916815260200190815260200160002060040160009054906101000a900460ff1660078111156120b257fe5b1415156120be57600080fd5b600c6000826000191660001916815260200190815260200160002060010154620f4240600c6000846000191660001916815260200190815260200160002060010154021015151561210b57fe5b600254612116610815565b620f4240600c60008560001916600019168152602001908152602001600020600101540281151561214357fe5b041015151561215157600080fd5b6000600c60008360001916600019168152602001908152602001600020600101819055506002600c6000836000191660001916815260200190815260200160002060040160006101000a81548160ff021916908360078111156121b057fe5b02179055506121ca600654426126d490919063ffffffff16565b600c600083600019166000191681526020019081526020016000206005018190555080600019163373ffffffffffffffffffffffffffffffffffffffff167f7cd3cb2d04af5d6a228dbe135cef8bd59865b1da6087526282b538e62e10be6260026040518082600781111561223b57fe5b60ff16815260200191505060405180910390a350565b600a60009054906101000a900460ff16151561226c57600080fd5b4261229860055461228a6004546009546126d490919063ffffffff16565b6126d490919063ffffffff16565b111515156122a557600080fd5b6000600a60006101000a81548160ff0219169083151502179055506122d5600554426126f090919063ffffffff16565b6009819055503373ffffffffffffffffffffffffffffffffffffffff167f9fa4027402e3e2b48eab6286f2d277af27e9a382ec15cde9e8745b237d11550a60405160405180910390a2565b6000600781111561232d57fe5b600c6000856000191660001916815260200190815260200160002060040160009054906101000a900460ff16600781111561236457fe5b14151561237057600080fd5b600a60009054906101000a900460ff16151561238b57600080fd5b6008546123973361255d565b1115156123a357600080fd5b426123f8600654600b60003373ffffffffffffffffffffffffffffffffffffffff1673ffffffffffffffffffffffffffffffffffffffff168152602001908152602001600020546126d490919063ffffffff16565b1115151561240557600080fd5b42600b60003373ffffffffffffffffffffffffffffffffffffffff1673ffffffffffffffffffffffffffffffffffffffff168152602001908152602001600020819055506002600c6000856000191660001916815260200190815260200160002060040160006101000a81548160ff0219169083600781111561248457fe5b021790555061249e600654426126d490919063ffffffff16565b600c60008560001916600019168152602001908152602001600020600501819055508160001916600c60008560001916600019168152602001908152602001600020505080600c6000856000191660001916815260200190815260200160002060060190600161250f9291906127fd565b5082600019163373ffffffffffffffffffffffffffffffffffffffff167f0391f4d187e48f1b0f3bd19f51f65d64633c54e93ef79dc56a56791587f88a0460405160405180910390a3505050565b6000600160008373ffffffffffffffffffffffffffffffffffffffff1673ffffffffffffffffffffffffffffffffffffffff168152602001908152602001600020549050919050565b600160078111156125b357fe5b600c6000836000191660001916815260200190815260200160002060040160009054906101000a900460ff1660078111156125ea57fe5b1415156125f657600080fd5b42600c60008360001916600019168152602001908152602001600020600501541115151561262357600080fd5b6007600c6000836000191660001916815260200190815260200160002060040160006101000a81548160ff0219169083600781111561265e57fe5b021790555080600019163373ffffffffffffffffffffffffffffffffffffffff167f7cd3cb2d04af5d6a228dbe135cef8bd59865b1da6087526282b538e62e10be626007604051808260078111156126b257fe5b60ff16815260200191505060405180910390a350565b60045481565b60085481565b600081830190508281101515156126e757fe5b80905092915050565b60008282111515156126fe57fe5b818303905092915050565b6000600160008473ffffffffffffffffffffffffffffffffffffffff1673ffffffffffffffffffffffffffffffffffffffff16815260200190815260200160002054821115151561275957600080fd5b6127ab82600160008673ffffffffffffffffffffffffffffffffffffffff1673ffffffffffffffffffffffffffffffffffffffff168152602001908152602001600020546126f090919063ffffffff16565b600160008573ffffffffffffffffffffffffffffffffffffffff1673ffffffffffffffffffffffffffffffffffffffff1681526020019081526020016000206000828254019250508190555092915050565b82805482825590600052602060002090810192821561283f579160200282015b8281111561283e57825182906000191690559160200191906001019061281d565b5b50905061284c9190612850565b5090565b61287291905b8082111561286e576000816000905550600101612856565b5090565b905600a165627a7a7230582060a73b04bf4525db3fe46b36a2989dfba5b3b8bb2171717424f7a7f41bbb03a90029",
  "source": "//TODO: Different kind of slashings for different kind of situations\n//TODO: we now slash all voters, but perhaps we can slash those who propose a non-accepted votes as well?\n//TODO: we need different degrees of slashing, since now we take away all voting rights in one slash => not good :(\n\npragma solidity ^0.4.24;\n\nimport \"./VotingEngine.sol\";\n\nimport \"./../node_modules/openzeppelin-solidity/contracts/math/SafeMath.sol\";\n\n/**\n * @title Slasher\n * @author Rinke Hendriksen (rinkehendriksen@gmail.com)\n * @dev the Slasher allows for anybody to slash participants. The goal of this contract is to nudge participants of the DAO to vote in accordance with the rules and objectives.\n */\ncontract Slasher is VotingEngine {\n\n    using SafeMath for uint256;\n\n    event Slashed(\n        address indexed callee,\n        address indexed poorGuy,\n        uint256 amount\n    );\n\n    /**\n    * @dev can be called by anybody to slash a person if this person deserves slashing\n    * @param poorGuy The address which will be slashed\n    * @param proposalId the identifier of the vote to which the poorguy casted a 'wrong' vote\n    * @param poorGuyVote the non-blinded vote of the poorGuy\n    * @param poorGuyBlindedVote the blinded vote of the poorGuy\n    * @param poorGuySecret the secret which was used by the poorGuy to shield his blindedVote from the public\n    */\n    function slash(address poorGuy, bytes32 proposalId, bool poorGuyVote, bytes32 poorGuyBlindedVote, bytes32 poorGuySecret ) {\n        require(keccak256(abi.encodePacked(poorGuyVote, poorGuySecret)) == poorGuyBlindedVote);\n        if(poorGuyVote) {\n            require(proposalRegistry[proposalId].status == ProposalStatus.ProposalRejected);\n            decreaseBalance(poorGuy, vouchersOf(poorGuy));\n            emit Slashed(msg.sender, poorGuy, vouchersOf(poorGuy));\n        } else {\n            require(proposalRegistry[proposalId].status == ProposalStatus.Accepted);\n            decreaseBalance(poorGuy, vouchersOf(poorGuy));\n            emit Slashed(msg.sender, poorGuy, vouchersOf(poorGuy));\n\n\n        }\n    }\n\n}\n",
  "sourcePath": "/Users/rinke/Projects/Suber-DAO/contracts/Slasher.sol",
  "compiler": {
    "name": "solc",
    "version": "0.4.24+commit.e67f0147.Emscripten.clang"
  },
  "schemaVersion": "2.0.1",
  "updatedAt": "2018-09-15T12:18:58.958Z"
}