{
  "contractName": "SponsorRegistry",
  "abi": [
    {
      "constant": true,
      "inputs": [],
      "name": "whenClosed",
      "outputs": [
        {
          "name": "",
          "type": "uint256"
        }
      ],
      "payable": false,
      "stateMutability": "view",
      "type": "function"
    },
    {
      "constant": true,
      "inputs": [],
      "name": "isUpgraded",
      "outputs": [
        {
          "name": "",
          "type": "bool"
        }
      ],
      "payable": false,
      "stateMutability": "view",
      "type": "function"
    },
    {
      "anonymous": false,
      "inputs": [
        {
          "indexed": true,
          "name": "callee",
          "type": "address"
        },
        {
          "indexed": false,
          "name": "amount",
          "type": "uint256"
        }
      ],
      "name": "sponsorShipReceived",
      "type": "event"
    },
    {
      "constant": false,
      "inputs": [],
      "name": "payTribute",
      "outputs": [],
      "payable": true,
      "stateMutability": "payable",
      "type": "function"
    }
  ],
  "bytecode": "0x608060405234801561001057600080fd5b5061017e806100206000396000f300608060405260043610610057576000357c0100000000000000000000000000000000000000000000000000000000900463ffffffff1680632e1cfbed1461005c57806342c80fc914610087578063896b3555146100b6575b600080fd5b34801561006857600080fd5b506100716100c0565b6040518082815260200191505060405180910390f35b34801561009357600080fd5b5061009c6100c6565b604051808215151515815260200191505060405180910390f35b6100be6100d8565b005b60015481565b6000809054906101000a900460ff1681565b6000809054906101000a900460ff161515156100f357600080fd5b60003411151561010257600080fd5b3373ffffffffffffffffffffffffffffffffffffffff167fcdf6310f72131d7377a46454c5bc554e5f679007f5b7dbd8c1ab5b399e37d828346040518082815260200191505060405180910390a25600a165627a7a72305820b9a150e73fb150bb26d202630d94762224f90051c072a21828a2204095efb43d0029",
  "source": "pragma solidity ^0.4.24;\n\nimport \"./Upgradable.sol\";\n\n/**\n * @title SponsorRegistry\n * @author Rinke Hendriksen (rinkehendriksen@gmail.com)\n * @dev interested people can commit funds to the DAO via the SponsorRegistry. Afterwards, they will be able to produce a signature from the sponsorAddress, to make public their support to the cause of the DAO\n */\ncontract SponsorRegistry is Upgradable {\n\n    event sponsorShipReceived(address indexed callee, uint256 amount);\n\n    /**\n     * @dev sponsors can use this function to grant funds to the DAO\n     * @notice this is not the only way how funds can be given to the DAO. We have the possibilities selfdescruct or mining to the contract address\n     */\n    function payTribute() public payable whenNotUpgraded {\n        require(msg.value > 0);\n        emit sponsorShipReceived(msg.sender, msg.value);\n    }\n}\n",
  "sourcePath": "/home/rinke/DAPPS/SUBER/SuberDAO/contracts/SponsorRegistry.sol",
  "compiler": {
    "name": "solc",
    "version": "0.4.24+commit.e67f0147.Emscripten.clang"
  },
  "schemaVersion": "2.0.0",
  "updatedAt": "2018-08-27T16:14:28.018Z"
}