{
  "contractName": "TokenTreasury",
  "abi": [
    {
      "constant": true,
      "inputs": [],
      "name": "totalSupply",
      "outputs": [
        {
          "name": "",
          "type": "uint256"
        }
      ],
      "payable": false,
      "stateMutability": "view",
      "type": "function"
    },
    {
      "constant": true,
      "inputs": [
        {
          "name": "",
          "type": "address"
        }
      ],
      "name": "tokenAllowanceRegistry",
      "outputs": [
        {
          "name": "isAllowed",
          "type": "bool"
        },
        {
          "name": "allowance",
          "type": "uint256"
        },
        {
          "name": "whenUpdated",
          "type": "uint256"
        },
        {
          "name": "budgetPeriod",
          "type": "uint256"
        },
        {
          "name": "budget",
          "type": "uint256"
        }
      ],
      "payable": false,
      "stateMutability": "view",
      "type": "function"
    },
    {
      "constant": true,
      "inputs": [
        {
          "name": "_owner",
          "type": "address"
        }
      ],
      "name": "balanceOf",
      "outputs": [
        {
          "name": "",
          "type": "uint256"
        }
      ],
      "payable": false,
      "stateMutability": "view",
      "type": "function"
    },
    {
      "anonymous": false,
      "inputs": [
        {
          "indexed": true,
          "name": "callee",
          "type": "address"
        },
        {
          "indexed": false,
          "name": "newAllowance",
          "type": "uint256"
        }
      ],
      "name": "TokenAllowanceIncreased",
      "type": "event"
    },
    {
      "anonymous": false,
      "inputs": [
        {
          "indexed": true,
          "name": "callee",
          "type": "address"
        },
        {
          "indexed": true,
          "name": "to",
          "type": "address"
        },
        {
          "indexed": false,
          "name": "amount",
          "type": "uint256"
        }
      ],
      "name": "Minted",
      "type": "event"
    },
    {
      "constant": false,
      "inputs": [
        {
          "name": "to",
          "type": "address"
        },
        {
          "name": "amount",
          "type": "uint256"
        }
      ],
      "name": "mint",
      "outputs": [],
      "payable": false,
      "stateMutability": "nonpayable",
      "type": "function"
    },
    {
      "constant": false,
      "inputs": [],
      "name": "increaseTokenAllowance",
      "outputs": [],
      "payable": false,
      "stateMutability": "nonpayable",
      "type": "function"
    }
  ],
  "bytecode": "0x608060405234801561001057600080fd5b50610719806100206000396000f30060806040526004361061006d576000357c0100000000000000000000000000000000000000000000000000000000900463ffffffff16806318160ddd1461007257806340c10f191461009d578063413cea25146100ea5780635245b8011461016157806370a0823114610178575b600080fd5b34801561007e57600080fd5b506100876101cf565b6040518082815260200191505060405180910390f35b3480156100a957600080fd5b506100e8600480360381019080803573ffffffffffffffffffffffffffffffffffffffff169060200190929190803590602001909291905050506101d8565b005b3480156100f657600080fd5b5061012b600480360381019080803573ffffffffffffffffffffffffffffffffffffffff169060200190929190505050610329565b60405180861515151581526020018581526020018481526020018381526020018281526020019550505050505060405180910390f35b34801561016d57600080fd5b5061017661036c565b005b34801561018457600080fd5b506101b9600480360381019080803573ffffffffffffffffffffffffffffffffffffffff169060200190929190505050610612565b6040518082815260200191505060405180910390f35b60008054905090565b600073ffffffffffffffffffffffffffffffffffffffff168273ffffffffffffffffffffffffffffffffffffffff161415151561021457600080fd5b600260003373ffffffffffffffffffffffffffffffffffffffff1673ffffffffffffffffffffffffffffffffffffffff16815260200190815260200160002060010154811115151561026557600080fd5b80600260003373ffffffffffffffffffffffffffffffffffffffff1673ffffffffffffffffffffffffffffffffffffffff168152602001908152602001600020600101600082825403925050819055506102bf828261065b565b508173ffffffffffffffffffffffffffffffffffffffff163373ffffffffffffffffffffffffffffffffffffffff167f9d228d69b5fdb8d273a2336f8fb8612d039631024ea9bf09c424a9503aa078f0836040518082815260200191505060405180910390a35050565b60026020528060005260406000206000915090508060000160009054906101000a900460ff16908060010154908060020154908060030154908060040154905085565b600260003373ffffffffffffffffffffffffffffffffffffffff1673ffffffffffffffffffffffffffffffffffffffff16815260200190815260200160002060000160009054906101000a900460ff1615156103c757600080fd5b42600260003373ffffffffffffffffffffffffffffffffffffffff1673ffffffffffffffffffffffffffffffffffffffff16815260200190815260200160002060030154600260003373ffffffffffffffffffffffffffffffffffffffff1673ffffffffffffffffffffffffffffffffffffffff16815260200190815260200160002060020154011115151561045c57600080fd5b42600260003373ffffffffffffffffffffffffffffffffffffffff1673ffffffffffffffffffffffffffffffffffffffff1681526020019081526020016000206002018190555061053a600260003373ffffffffffffffffffffffffffffffffffffffff1673ffffffffffffffffffffffffffffffffffffffff16815260200190815260200160002060040154600260003373ffffffffffffffffffffffffffffffffffffffff1673ffffffffffffffffffffffffffffffffffffffff168152602001908152602001600020600101546106d190919063ffffffff16565b600260003373ffffffffffffffffffffffffffffffffffffffff1673ffffffffffffffffffffffffffffffffffffffff168152602001908152602001600020600101819055503373ffffffffffffffffffffffffffffffffffffffff167f6c789b5efdea0cb7e835f82832729dd034dc5f31ee5bc8d41a9386b8340e99c0600260003373ffffffffffffffffffffffffffffffffffffffff1673ffffffffffffffffffffffffffffffffffffffff168152602001908152602001600020600101546040518082815260200191505060405180910390a2565b6000600160008373ffffffffffffffffffffffffffffffffffffffff1673ffffffffffffffffffffffffffffffffffffffff168152602001908152602001600020549050919050565b60006106af82600160008673ffffffffffffffffffffffffffffffffffffffff1673ffffffffffffffffffffffffffffffffffffffff168152602001908152602001600020546106d190919063ffffffff16565b506106c5826000546106d190919063ffffffff16565b60008190555092915050565b600081830190508281101515156106e457fe5b809050929150505600a165627a7a7230582031e9fed2a9d7dc21089083bd540d3938212d640e5abcd10fc161815d701f66a20029",
  "source": "pragma solidity ^0.4.24;\n\nimport \"./TokenRegistry.sol\";\n\n/**\n * @title TokenTreasury\n * @author Rinke Hendriksen (rinkehendriksen@gmail.com)\n * @dev The token treasury registers who can mind voting tokens and according to which parameters\n */\ncontract TokenTreasury is TokenRegistry {\n\n    mapping(address => tokenAllowance) public tokenAllowanceRegistry;\n\n    struct tokenAllowance {\n        bool isAllowed;\n        uint256 allowance;\n        uint256 whenUpdated;\n        uint256 budgetPeriod;\n        uint256 budget;\n    }\n\n    event TokenAllowanceIncreased(\n        address indexed callee,\n        uint256 newAllowance\n    );\n    event Minted(\n        address indexed callee,\n        address indexed to,\n        uint256 amount\n    );\n\n\n    /**\n    * @dev can be called by an address with permission to mint voting tokens\n    * @param to The address to which the voting tokens will go.\n    * @param amount The amount of voting tokens which will be transferred.\n    * @notice the internal function mint resides in the TokenRegistry contract\n    */\n    function mint(address to, uint256 amount) public {\n        require(to != address(0));\n        require(amount <= tokenAllowanceRegistry[msg.sender].allowance);\n        tokenAllowanceRegistry[msg.sender].allowance -= amount;\n        mint_(to, amount);\n        emit Minted(msg.sender, to, amount);\n\n    }\n\n    /**\n    * @dev can be called by an address with permission to mint to top-up the periodic allowance\n    */\n    function increaseTokenAllowance() {\n        require(tokenAllowanceRegistry[msg.sender].isAllowed);\n        require(tokenAllowanceRegistry[msg.sender].whenUpdated + tokenAllowanceRegistry[msg.sender].budgetPeriod <= now);\n        tokenAllowanceRegistry[msg.sender].whenUpdated = now;\n        tokenAllowanceRegistry[msg.sender].allowance = tokenAllowanceRegistry[msg.sender].allowance.add(tokenAllowanceRegistry[msg.sender].budget);\n        emit TokenAllowanceIncreased(msg.sender, tokenAllowanceRegistry[msg.sender].allowance);\n    }\n}\n",
  "sourcePath": "/home/rinke/DAPPS/SUBER/SuberDAO/contracts/TokenTreasury.sol",
  "compiler": {
    "name": "solc",
    "version": "0.4.24+commit.e67f0147.Emscripten.clang"
  },
  "schemaVersion": "2.0.0",
  "updatedAt": "2018-08-27T16:14:28.020Z"
}