{
  "contractName": "TokenRegistry",
  "abi": [
    {
      "constant": true,
      "inputs": [
        {
          "name": "_owner",
          "type": "address"
        }
      ],
      "name": "balanceOf",
      "outputs": [
        {
          "name": "",
          "type": "uint256"
        }
      ],
      "payable": false,
      "stateMutability": "view",
      "type": "function"
    },
    {
      "constant": true,
      "inputs": [],
      "name": "totalSupply",
      "outputs": [
        {
          "name": "",
          "type": "uint256"
        }
      ],
      "payable": false,
      "stateMutability": "view",
      "type": "function"
    }
  ],
  "bytecode": "0x608060405234801561001057600080fd5b50610151806100206000396000f30060806040526004361061004c576000357c0100000000000000000000000000000000000000000000000000000000900463ffffffff16806318160ddd1461005157806370a082311461007c575b600080fd5b34801561005d57600080fd5b506100666100d3565b6040518082815260200191505060405180910390f35b34801561008857600080fd5b506100bd600480360381019080803573ffffffffffffffffffffffffffffffffffffffff1690602001909291905050506100dc565b6040518082815260200191505060405180910390f35b60008054905090565b6000600160008373ffffffffffffffffffffffffffffffffffffffff1673ffffffffffffffffffffffffffffffffffffffff1681526020019081526020016000205490509190505600a165627a7a72305820eb7877a7d34e40d98be1eca8b8bd895bdf6e99c9deb778a8d096ad383349df850029",
  "source": "pragma solidity ^0.4.24;\n\nimport \"./../node_modules/openzeppelin-solidity/contracts/math/SafeMath.sol\";\n\n/**\n * @title TokenRegistry\n * @author Rinke Hendriksen (rinkehendriksen@gmail.com)\n * @dev keeps track of the amount of voting tokens belonging to addresses and allows to modify these amounts\n */\ncontract TokenRegistry {\n\n    using SafeMath for uint256;\n\n    uint256 internal totalSupply_;\n    mapping(address => uint256) internal balances;\n\n    function balanceOf(address _owner) public view returns (uint256) {\n        return balances[_owner];\n    }\n\n    function totalSupply() public view returns (uint256) {\n        return totalSupply_;\n    }\n\n    /**\n     * @dev function can be called by the Slasher contract and substracts voting tokens from an address for a certain amount\n     */\n    function decreaseBalance(address poorGuy, uint256 amount) internal returns (bool) {\n        require(amount <= balances[poorGuy]);\n        balances[poorGuy] += balances[poorGuy].sub(amount);\n    }\n\n    /**\n     * @dev function can be called by the TokenTreasury contract and adds voting tokens to an address for a certain amount\n     */\n    function mint_(address to, uint256 amount) internal returns (bool) {\n        balances[to].add(amount);\n        totalSupply_ = totalSupply_.add(amount);\n    }\n}\n",
  "sourcePath": "/home/rinke/DAPPS/SUBER/SuberDAO/contracts/TokenRegistry.sol",
  "compiler": {
    "name": "solc",
    "version": "0.4.24+commit.e67f0147.Emscripten.clang"
  },
  "schemaVersion": "2.0.0",
  "updatedAt": "2018-08-27T16:14:28.018Z"
}