{
  "contractName": "Upgradable",
  "abi": [
    {
      "constant": true,
      "inputs": [],
      "name": "whenClosed",
      "outputs": [
        {
          "name": "",
          "type": "uint256"
        }
      ],
      "payable": false,
      "stateMutability": "view",
      "type": "function"
    },
    {
      "constant": true,
      "inputs": [],
      "name": "isUpgraded",
      "outputs": [
        {
          "name": "",
          "type": "bool"
        }
      ],
      "payable": false,
      "stateMutability": "view",
      "type": "function"
    }
  ],
  "bytecode": "0x608060405234801561001057600080fd5b5060e68061001f6000396000f3006080604052600436106049576000357c0100000000000000000000000000000000000000000000000000000000900463ffffffff1680632e1cfbed14604e57806342c80fc9146076575b600080fd5b348015605957600080fd5b50606060a2565b6040518082815260200191505060405180910390f35b348015608157600080fd5b50608860a8565b604051808215151515815260200191505060405180910390f35b60015481565b6000809054906101000a900460ff16815600a165627a7a723058200531ea5f256976bb1405abbfb72923ef97af8adafda4fb9c6185095c812b2e6a0029",
  "source": "pragma solidity ^0.4.24;\n\n/**\n * @title Upgradable\n * @author Rinke Hendriksen (rinkehendriksen@gmail.com)\n * @dev keeps track of whether the contract is in a upgraded state and includes modifiers to adjust the behavior of the DAO accordingly\n */\ncontract Upgradable {\n\n    bool public isUpgraded;\n    uint256 public whenClosed;\n\n    /**\n     * @dev reverts when in the upgraded state\n     */\n    modifier whenNotUpgraded {\n        require(!isUpgraded);\n        _;\n    }\n\n    /**\n     * @dev reverts when in the upgraded state and empty\n     */\n    modifier whenNotUpgradedAndNotEmpty {\n        require(!(isUpgraded && whenClosed <= now));\n        _;\n    }\n}\n",
  "sourcePath": "/Users/rinke/Projects/Suber-DAO/contracts/Upgradable.sol",
  "compiler": {
    "name": "solc",
    "version": "0.4.24+commit.e67f0147.Emscripten.clang"
  },
  "schemaVersion": "2.0.1",
  "updatedAt": "2018-09-15T12:18:58.959Z"
}