{
  "contractName": "VotingEngine",
  "abi": [
    {
      "constant": true,
      "inputs": [],
      "name": "assemblyDuration",
      "outputs": [
        {
          "name": "",
          "type": "uint256"
        }
      ],
      "payable": false,
      "stateMutability": "view",
      "type": "function"
    },
    {
      "constant": true,
      "inputs": [],
      "name": "totalSupply",
      "outputs": [
        {
          "name": "",
          "type": "uint256"
        }
      ],
      "payable": false,
      "stateMutability": "view",
      "type": "function"
    },
    {
      "constant": true,
      "inputs": [],
      "name": "majorityQuotum",
      "outputs": [
        {
          "name": "",
          "type": "uint256"
        }
      ],
      "payable": false,
      "stateMutability": "view",
      "type": "function"
    },
    {
      "constant": true,
      "inputs": [],
      "name": "referendumQuotum",
      "outputs": [
        {
          "name": "",
          "type": "uint256"
        }
      ],
      "payable": false,
      "stateMutability": "view",
      "type": "function"
    },
    {
      "constant": true,
      "inputs": [],
      "name": "votingWindow",
      "outputs": [
        {
          "name": "",
          "type": "uint256"
        }
      ],
      "payable": false,
      "stateMutability": "view",
      "type": "function"
    },
    {
      "constant": true,
      "inputs": [],
      "name": "lastAssembly",
      "outputs": [
        {
          "name": "",
          "type": "uint256"
        }
      ],
      "payable": false,
      "stateMutability": "view",
      "type": "function"
    },
    {
      "constant": true,
      "inputs": [
        {
          "name": "",
          "type": "address"
        }
      ],
      "name": "lastProposed",
      "outputs": [
        {
          "name": "",
          "type": "uint256"
        }
      ],
      "payable": false,
      "stateMutability": "view",
      "type": "function"
    },
    {
      "constant": true,
      "inputs": [],
      "name": "revealOrCancelWindow",
      "outputs": [
        {
          "name": "",
          "type": "uint256"
        }
      ],
      "payable": false,
      "stateMutability": "view",
      "type": "function"
    },
    {
      "constant": true,
      "inputs": [
        {
          "name": "",
          "type": "bytes32"
        }
      ],
      "name": "blindedVoteUsed",
      "outputs": [
        {
          "name": "",
          "type": "bool"
        }
      ],
      "payable": false,
      "stateMutability": "view",
      "type": "function"
    },
    {
      "constant": true,
      "inputs": [
        {
          "name": "",
          "type": "bytes32"
        }
      ],
      "name": "proposalRegistry",
      "outputs": [
        {
          "name": "tokensInFavor",
          "type": "uint256"
        },
        {
          "name": "tokensAgainst",
          "type": "uint256"
        },
        {
          "name": "subject",
          "type": "bytes32"
        },
        {
          "name": "status",
          "type": "uint8"
        },
        {
          "name": "closingTime",
          "type": "uint256"
        }
      ],
      "payable": false,
      "stateMutability": "view",
      "type": "function"
    },
    {
      "constant": true,
      "inputs": [
        {
          "name": "_owner",
          "type": "address"
        }
      ],
      "name": "vouchersOf",
      "outputs": [
        {
          "name": "",
          "type": "uint256"
        }
      ],
      "payable": false,
      "stateMutability": "view",
      "type": "function"
    },
    {
      "constant": true,
      "inputs": [],
      "name": "assemblyInterval",
      "outputs": [
        {
          "name": "",
          "type": "uint256"
        }
      ],
      "payable": false,
      "stateMutability": "view",
      "type": "function"
    },
    {
      "constant": true,
      "inputs": [],
      "name": "minimumVouchersToPropose",
      "outputs": [
        {
          "name": "",
          "type": "uint256"
        }
      ],
      "payable": false,
      "stateMutability": "view",
      "type": "function"
    },
    {
      "inputs": [],
      "payable": false,
      "stateMutability": "nonpayable",
      "type": "constructor"
    },
    {
      "anonymous": false,
      "inputs": [
        {
          "indexed": true,
          "name": "callee",
          "type": "address"
        }
      ],
      "name": "AssemblyDeclared",
      "type": "event"
    },
    {
      "anonymous": false,
      "inputs": [
        {
          "indexed": true,
          "name": "callee",
          "type": "address"
        }
      ],
      "name": "AssemblyCancelled",
      "type": "event"
    },
    {
      "anonymous": false,
      "inputs": [
        {
          "indexed": true,
          "name": "callee",
          "type": "address"
        },
        {
          "indexed": true,
          "name": "proposalId",
          "type": "bytes32"
        },
        {
          "indexed": false,
          "name": "newStatus",
          "type": "uint8"
        }
      ],
      "name": "ProposalStatusChanged",
      "type": "event"
    },
    {
      "anonymous": false,
      "inputs": [
        {
          "indexed": true,
          "name": "callee",
          "type": "address"
        },
        {
          "indexed": true,
          "name": "proposalId",
          "type": "bytes32"
        }
      ],
      "name": "ReferendumProposed",
      "type": "event"
    },
    {
      "anonymous": false,
      "inputs": [
        {
          "indexed": true,
          "name": "callee",
          "type": "address"
        },
        {
          "indexed": true,
          "name": "proposalId",
          "type": "bytes32"
        }
      ],
      "name": "ProposalProposed",
      "type": "event"
    },
    {
      "anonymous": false,
      "inputs": [
        {
          "indexed": true,
          "name": "callee",
          "type": "address"
        },
        {
          "indexed": true,
          "name": "proposalId",
          "type": "bytes32"
        }
      ],
      "name": "AcceptanceSignalled",
      "type": "event"
    },
    {
      "anonymous": false,
      "inputs": [
        {
          "indexed": true,
          "name": "callee",
          "type": "address"
        },
        {
          "indexed": true,
          "name": "proposalId",
          "type": "bytes32"
        },
        {
          "indexed": false,
          "name": "blindedVote",
          "type": "bytes32"
        }
      ],
      "name": "BallotCommitted",
      "type": "event"
    },
    {
      "anonymous": false,
      "inputs": [
        {
          "indexed": true,
          "name": "callee",
          "type": "address"
        },
        {
          "indexed": true,
          "name": "proposalId",
          "type": "bytes32"
        },
        {
          "indexed": false,
          "name": "vote",
          "type": "bool"
        },
        {
          "indexed": false,
          "name": "secret",
          "type": "bytes32"
        },
        {
          "indexed": false,
          "name": "amountOfVouchers",
          "type": "uint256"
        }
      ],
      "name": "BallotRevealed",
      "type": "event"
    },
    {
      "anonymous": false,
      "inputs": [
        {
          "indexed": true,
          "name": "callee",
          "type": "address"
        },
        {
          "indexed": true,
          "name": "proposalId",
          "type": "bytes32"
        },
        {
          "indexed": false,
          "name": "vote",
          "type": "bool"
        },
        {
          "indexed": false,
          "name": "secret",
          "type": "bytes32"
        },
        {
          "indexed": false,
          "name": "amountOfVouchers",
          "type": "uint256"
        }
      ],
      "name": "BallotCancelled",
      "type": "event"
    },
    {
      "constant": false,
      "inputs": [],
      "name": "declareAssembly",
      "outputs": [],
      "payable": false,
      "stateMutability": "nonpayable",
      "type": "function"
    },
    {
      "constant": false,
      "inputs": [],
      "name": "endAssembly",
      "outputs": [],
      "payable": false,
      "stateMutability": "nonpayable",
      "type": "function"
    },
    {
      "constant": false,
      "inputs": [
        {
          "name": "proposalId",
          "type": "bytes32"
        },
        {
          "name": "_subject",
          "type": "bytes32"
        },
        {
          "name": "_effect",
          "type": "bytes32[1]"
        }
      ],
      "name": "makeFromDefaultToReferendum",
      "outputs": [],
      "payable": false,
      "stateMutability": "nonpayable",
      "type": "function"
    },
    {
      "constant": false,
      "inputs": [
        {
          "name": "proposalId",
          "type": "bytes32"
        }
      ],
      "name": "makeFromReferendumToRejected",
      "outputs": [],
      "payable": false,
      "stateMutability": "nonpayable",
      "type": "function"
    },
    {
      "constant": false,
      "inputs": [
        {
          "name": "proposalId",
          "type": "bytes32"
        },
        {
          "name": "_subject",
          "type": "bytes32"
        },
        {
          "name": "_effect",
          "type": "bytes32[1]"
        }
      ],
      "name": "makeFromDefaultToCommit",
      "outputs": [],
      "payable": false,
      "stateMutability": "nonpayable",
      "type": "function"
    },
    {
      "constant": false,
      "inputs": [
        {
          "name": "proposalId",
          "type": "bytes32"
        }
      ],
      "name": "ballotSignal",
      "outputs": [],
      "payable": false,
      "stateMutability": "nonpayable",
      "type": "function"
    },
    {
      "constant": false,
      "inputs": [
        {
          "name": "proposalId",
          "type": "bytes32"
        }
      ],
      "name": "cancelSignal",
      "outputs": [],
      "payable": false,
      "stateMutability": "nonpayable",
      "type": "function"
    },
    {
      "constant": false,
      "inputs": [
        {
          "name": "proposalId",
          "type": "bytes32"
        }
      ],
      "name": "makeFromReferendumToCommit",
      "outputs": [],
      "payable": false,
      "stateMutability": "nonpayable",
      "type": "function"
    },
    {
      "constant": false,
      "inputs": [
        {
          "name": "proposalId",
          "type": "bytes32"
        },
        {
          "name": "blindedVote",
          "type": "bytes32"
        }
      ],
      "name": "ballotCommit",
      "outputs": [],
      "payable": false,
      "stateMutability": "nonpayable",
      "type": "function"
    },
    {
      "constant": false,
      "inputs": [
        {
          "name": "proposalId",
          "type": "bytes32"
        }
      ],
      "name": "makeFromCommitToRevealOrCancel",
      "outputs": [],
      "payable": false,
      "stateMutability": "nonpayable",
      "type": "function"
    },
    {
      "constant": false,
      "inputs": [
        {
          "name": "proposalId",
          "type": "bytes32"
        },
        {
          "name": "secret",
          "type": "bytes32"
        },
        {
          "name": "myVote",
          "type": "bool"
        }
      ],
      "name": "ballotReveal",
      "outputs": [],
      "payable": false,
      "stateMutability": "nonpayable",
      "type": "function"
    },
    {
      "constant": false,
      "inputs": [
        {
          "name": "proposalId",
          "type": "bytes32"
        }
      ],
      "name": "makeFromRevealOrCancelToAccepted",
      "outputs": [],
      "payable": false,
      "stateMutability": "nonpayable",
      "type": "function"
    },
    {
      "constant": false,
      "inputs": [
        {
          "name": "proposalId",
          "type": "bytes32"
        }
      ],
      "name": "makeFromRevealOrCancelToRejected",
      "outputs": [],
      "payable": false,
      "stateMutability": "nonpayable",
      "type": "function"
    },
    {
      "constant": false,
      "inputs": [
        {
          "name": "proposalId",
          "type": "bytes32"
        },
        {
          "name": "secret",
          "type": "bytes32"
        },
        {
          "name": "myVote",
          "type": "bool"
        }
      ],
      "name": "cancelBallot",
      "outputs": [],
      "payable": false,
      "stateMutability": "nonpayable",
      "type": "function"
    }
  ],
  "bytecode": "0x608060405262030d40600255620927c060035562180f606004556201dfb06005556202a300600655620151806007556000600855600060095534801561004457600080fd5b506124a9806100546000396000f30060806040526004361061015f576000357c0100000000000000000000000000000000000000000000000000000000900463ffffffff16806315b10b311461016457806318160ddd1461018f5780631e955399146101ba5780632d94a628146101e557806337a2c5161461021657806338a02d0c1461024157806338e5ba061461027257806357ad4c7f146102bd5780635905d5c5146102ee5780635cad0fc01461031f5780635e9c2699146103505780635e9da234146103675780636aa59717146103a657806372a6300a146103f1578063776486a41461041c5780637d6067c614610447578063843204621461049e5780638848e84b146104c95780638950ee2d1461053757806395cc40b914610580578063a1ea669c146105f7578063ae8887d614610628578063b4a0979b1461063f578063ce93da74146106ad578063d6811dbc14610704578063ec3f967414610735578063f918823f14610760575b600080fd5b34801561017057600080fd5b5061017961078b565b6040518082815260200191505060405180910390f35b34801561019b57600080fd5b506101a4610791565b6040518082815260200191505060405180910390f35b3480156101c657600080fd5b506101cf61079a565b6040518082815260200191505060405180910390f35b3480156101f157600080fd5b5061021460048036038101908080356000191690602001909291905050506107a0565b005b34801561022257600080fd5b5061022b6108e9565b6040518082815260200191505060405180910390f35b34801561024d57600080fd5b5061027060048036038101908080356000191690602001909291905050506108ef565b005b34801561027e57600080fd5b506102bb60048036038101908080356000191690602001909291908035600019169060200190929190803515159060200190929190505050610a74565b005b3480156102c957600080fd5b506102ec6004803603810190808035600019169060200190929190505050610f19565b005b3480156102fa57600080fd5b5061031d600480360381019080803560001916906020019092919050505061109d565b005b34801561032b57600080fd5b5061034e6004803603810190808035600019169060200190929190505050611282565b005b34801561035c57600080fd5b50610365611425565b005b34801561037357600080fd5b506103a4600480360381019080803560001916906020019092919080356000191690602001909291905050506114aa565b005b3480156103b257600080fd5b506103ef600480360381019080803560001916906020019092919080356000191690602001909291908035151590602001909291905050506117d1565b005b3480156103fd57600080fd5b50610406611b5d565b6040518082815260200191505060405180910390f35b34801561042857600080fd5b50610431611b63565b6040518082815260200191505060405180910390f35b34801561045357600080fd5b50610488600480360381019080803573ffffffffffffffffffffffffffffffffffffffff169060200190929190505050611b69565b6040518082815260200191505060405180910390f35b3480156104aa57600080fd5b506104b3611b81565b6040518082815260200191505060405180910390f35b3480156104d557600080fd5b50610535600480360381019080803560001916906020019092919080356000191690602001909291908060200190600180602002604051908101604052809291908260016020028082843782019150505050509192919290505050611b87565b005b34801561054357600080fd5b506105666004803603810190808035600019169060200190929190505050611d07565b604051808215151515815260200191505060405180910390f35b34801561058c57600080fd5b506105af6004803603810190808035600019169060200190929190505050611d27565b6040518086815260200185815260200184600019166000191681526020018360078111156105d957fe5b60ff1681526020018281526020019550505050505060405180910390f35b34801561060357600080fd5b506106266004803603810190808035600019169060200190929190505050611d6a565b005b34801561063457600080fd5b5061063d611f4d565b005b34801561064b57600080fd5b506106ab60048036038101908080356000191690602001909291908035600019169060200190929190806020019060018060200260405190810160405280929190826001602002808284378201915050505050919291929050505061201c565b005b3480156106b957600080fd5b506106ee600480360381019080803573ffffffffffffffffffffffffffffffffffffffff169060200190929190505050612259565b6040518082815260200191505060405180910390f35b34801561071057600080fd5b5061073360048036038101908080356000191690602001909291905050506122a2565b005b34801561074157600080fd5b5061074a6123c4565b6040518082815260200191505060405180910390f35b34801561076c57600080fd5b506107756123ca565b6040518082815260200191505060405180910390f35b60055481565b60008054905090565b60035481565b600260078111156107ad57fe5b600c6000836000191660001916815260200190815260200160002060040160009054906101000a900460ff1660078111156107e457fe5b1415156107f057600080fd5b42600c60008360001916600019168152602001908152602001600020600501541115151561081d57600080fd5b6007544201600c60008360001916600019168152602001908152602001600020600501819055506003600c6000836000191660001916815260200190815260200160002060040160006101000a81548160ff0219169083600781111561087f57fe5b021790555080600019163373ffffffffffffffffffffffffffffffffffffffff167f7cd3cb2d04af5d6a228dbe135cef8bd59865b1da6087526282b538e62e10be626003604051808260078111156108d357fe5b60ff16815260200191505060405180910390a350565b60025481565b600360078111156108fc57fe5b600c6000836000191660001916815260200190815260200160002060040160009054906101000a900460ff16600781111561093357fe5b14151561093f57600080fd5b42600c60008360001916600019168152602001908152602001600020600501541115151561096c57600080fd5b600354620f4240600c6000846000191660001916815260200190815260200160002060020154600c60008560001916600019168152602001908152602001600020600101548115156109ba57fe5b0402101515156109c957600080fd5b600460078111156109d657fe5b600c6000836000191660001916815260200190815260200160002060040160009054906101000a900460ff166007811115610a0d57fe5b505080600019163373ffffffffffffffffffffffffffffffffffffffff167f7cd3cb2d04af5d6a228dbe135cef8bd59865b1da6087526282b538e62e10be62600460405180826007811115610a5e57fe5b60ff16815260200191505060405180910390a350565b60036007811115610a8157fe5b600c6000856000191660001916815260200190815260200160002060040160009054906101000a900460ff166007811115610ab857fe5b141515610ac457600080fd5b600c6000846000191660001916815260200190815260200160002060000160003373ffffffffffffffffffffffffffffffffffffffff1673ffffffffffffffffffffffffffffffffffffffff168152602001908152602001600020600001546000191681836040516020018083151515157f01000000000000000000000000000000000000000000000000000000000000000281526001018260001916600019168152602001925050506040516020818303038152906040526040518082805190602001908083835b602083101515610bb25780518252602082019150602081019050602083039250610b8d565b6001836020036101000a038019825116818451168082178552505050505050905001915050604051809103902060001916141515610bef57600080fd5b60006004811115610bfc57fe5b600c6000856000191660001916815260200190815260200160002060000160003373ffffffffffffffffffffffffffffffffffffffff1673ffffffffffffffffffffffffffffffffffffffff16815260200190815260200160002060010160009054906101000a900460ff166004811115610c7357fe5b1480610d00575060016004811115610c8757fe5b600c6000856000191660001916815260200190815260200160002060000160003373ffffffffffffffffffffffffffffffffffffffff1673ffffffffffffffffffffffffffffffffffffffff16815260200190815260200160002060010160009054906101000a900460ff166004811115610cfe57fe5b145b80610d8c575060026004811115610d1357fe5b600c6000856000191660001916815260200190815260200160002060000160003373ffffffffffffffffffffffffffffffffffffffff1673ffffffffffffffffffffffffffffffffffffffff16815260200190815260200160002060010160009054906101000a900460ff166004811115610d8a57fe5b145b1515610d9757600080fd5b60036004811115610da457fe5b600c6000856000191660001916815260200190815260200160002060000160003373ffffffffffffffffffffffffffffffffffffffff1673ffffffffffffffffffffffffffffffffffffffff16815260200190815260200160002060010160009054906101000a900460ff166004811115610e1b57fe5b50508015610e6257610e5c610e2f33612259565b600c60008660001916600019168152602001908152602001600020600101546123d090919063ffffffff16565b50610e9d565b610e9b610e6e33612259565b600c60008660001916600019168152602001908152602001600020600201546123d090919063ffffffff16565b505b82600019163373ffffffffffffffffffffffffffffffffffffffff167f3e5d76c126ee95f97bc31144c4ee6f56154b3ef9591ccd0ee2ac9e8663b883ab8385610ee533612259565b60405180841515151581526020018360001916600019168152602001828152602001935050505060405180910390a3505050565b60036007811115610f2657fe5b600c6000836000191660001916815260200190815260200160002060040160009054906101000a900460ff166007811115610f5d57fe5b141515610f6957600080fd5b42600c600083600019166000191681526020019081526020016000206005015411151515610f9657600080fd5b600354620f4240600c6000846000191660001916815260200190815260200160002060020154600c6000856000191660001916815260200190815260200160002060010154811515610fe457fe5b0402101515610ff257600080fd5b60066007811115610fff57fe5b600c6000836000191660001916815260200190815260200160002060040160009054906101000a900460ff16600781111561103657fe5b505080600019163373ffffffffffffffffffffffffffffffffffffffff167f7cd3cb2d04af5d6a228dbe135cef8bd59865b1da6087526282b538e62e10be6260066040518082600781111561108757fe5b60ff16815260200191505060405180910390a350565b600160078111156110aa57fe5b600c6000836000191660001916815260200190815260200160002060040160009054906101000a900460ff1660078111156110e157fe5b1415156110ed57600080fd5b600060048111156110fa57fe5b600c6000836000191660001916815260200190815260200160002060000160003373ffffffffffffffffffffffffffffffffffffffff1673ffffffffffffffffffffffffffffffffffffffff16815260200190815260200160002060010160009054906101000a900460ff16600481111561117157fe5b14151561117d57600080fd5b6001600c6000836000191660001916815260200190815260200160002060000160003373ffffffffffffffffffffffffffffffffffffffff1673ffffffffffffffffffffffffffffffffffffffff16815260200190815260200160002060010160006101000a81548160ff021916908360048111156111f857fe5b021790555061123661120933612259565b600c60008460001916600019168152602001908152602001600020600101546123d090919063ffffffff16565b5080600019163373ffffffffffffffffffffffffffffffffffffffff167f98a9d348ac42ffcd4e388245eb19954bb535468e46278e4dba447caf74a88a3960405160405180910390a350565b6001600781111561128f57fe5b600c6000836000191660001916815260200190815260200160002060040160009054906101000a900460ff1660078111156112c657fe5b1415156112d257600080fd5b600160048111156112df57fe5b600c6000836000191660001916815260200190815260200160002060000160003373ffffffffffffffffffffffffffffffffffffffff1673ffffffffffffffffffffffffffffffffffffffff16815260200190815260200160002060010160009054906101000a900460ff16600481111561135657fe5b14151561136257600080fd5b61139b61136e33612259565b600c60008460001916600019168152602001908152602001600020600101546123ec90919063ffffffff16565b50600260048111156113a957fe5b600c6000836000191660001916815260200190815260200160002060000160003373ffffffffffffffffffffffffffffffffffffffff1673ffffffffffffffffffffffffffffffffffffffff16815260200190815260200160002060010160009054906101000a900460ff16600481111561142057fe5b505050565b4261143d6004546009546123d090919063ffffffff16565b1015151561144a57600080fd5b6001600a60006101000a81548160ff0219169083151502179055503373ffffffffffffffffffffffffffffffffffffffff167f5a9f3dca4f11ce5758212591c09fcbf4327907998551dfadf1eadafe2f66db5660405160405180910390a2565b600d6000826000191660001916815260200190815260200160002060009054906101000a900460ff161515156114df57600080fd5b600260078111156114ec57fe5b600c6000846000191660001916815260200190815260200160002060040160009054906101000a900460ff16600781111561152357fe5b14151561152f57600080fd5b6000600481111561153c57fe5b600c6000846000191660001916815260200190815260200160002060000160003373ffffffffffffffffffffffffffffffffffffffff1673ffffffffffffffffffffffffffffffffffffffff16815260200190815260200160002060010160009054906101000a900460ff1660048111156115b357fe5b14806116405750600160048111156115c757fe5b600c6000846000191660001916815260200190815260200160002060000160003373ffffffffffffffffffffffffffffffffffffffff1673ffffffffffffffffffffffffffffffffffffffff16815260200190815260200160002060010160009054906101000a900460ff16600481111561163e57fe5b145b806116cc57506002600481111561165357fe5b600c6000846000191660001916815260200190815260200160002060000160003373ffffffffffffffffffffffffffffffffffffffff1673ffffffffffffffffffffffffffffffffffffffff16815260200190815260200160002060010160009054906101000a900460ff1660048111156116ca57fe5b145b15156116d757600080fd5b80600c6000846000191660001916815260200190815260200160002060000160003373ffffffffffffffffffffffffffffffffffffffff1673ffffffffffffffffffffffffffffffffffffffff16815260200190815260200160002060000181600019169055506001600d6000836000191660001916815260200190815260200160002060006101000a81548160ff02191690831515021790555081600019163373ffffffffffffffffffffffffffffffffffffffff167f0dd26db24b4198de21f2d0c36186e6eb912563dd2afa9fe278fd51e9734964208360405180826000191660001916815260200191505060405180910390a35050565b600360078111156117de57fe5b600c6000856000191660001916815260200190815260200160002060040160009054906101000a900460ff16600781111561181557fe5b14151561182157600080fd5b600c6000846000191660001916815260200190815260200160002060000160003373ffffffffffffffffffffffffffffffffffffffff1673ffffffffffffffffffffffffffffffffffffffff168152602001908152602001600020600001546000191681836040516020018083151515157f01000000000000000000000000000000000000000000000000000000000000000281526001018260001916600019168152602001925050506040516020818303038152906040526040518082805190602001908083835b60208310151561190f57805182526020820191506020810190506020830392506118ea565b6001836020036101000a03801982511681845116808217855250505050505090500191505060405180910390206000191614151561194c57600080fd5b60048081111561195857fe5b600c6000856000191660001916815260200190815260200160002060000160003373ffffffffffffffffffffffffffffffffffffffff1673ffffffffffffffffffffffffffffffffffffffff16815260200190815260200160002060010160009054906101000a900460ff1660048111156119cf57fe5b141515156119dc57600080fd5b6004808111156119e857fe5b600c6000856000191660001916815260200190815260200160002060000160003373ffffffffffffffffffffffffffffffffffffffff1673ffffffffffffffffffffffffffffffffffffffff16815260200190815260200160002060010160009054906101000a900460ff166004811115611a5f57fe5b50508015611aa657611aa0611a7333612259565b600c60008660001916600019168152602001908152602001600020600101546123ec90919063ffffffff16565b50611ae1565b611adf611ab233612259565b600c60008660001916600019168152602001908152602001600020600201546123ec90919063ffffffff16565b505b82600019163373ffffffffffffffffffffffffffffffffffffffff167f87580b37240dceb6b95c73a689ac60d2fcffc6b561ae7b693a8db729fa6b857e8385611b2933612259565b60405180841515151581526020018360001916600019168152602001828152602001935050505060405180910390a3505050565b60065481565b60095481565b600b6020528060005260406000206000915090505481565b60075481565b60006007811115611b9457fe5b600c6000856000191660001916815260200190815260200160002060040160009054906101000a900460ff166007811115611bcb57fe5b141515611bd757600080fd5b600a60009054906101000a900460ff16151515611bf357600080fd5b6001600c6000856000191660001916815260200190815260200160002060040160006101000a81548160ff02191690836007811115611c2e57fe5b0217905550611c48600654426123d090919063ffffffff16565b600c60008560001916600019168152602001908152602001600020600501819055508160001916600c60008560001916600019168152602001908152602001600020505080600c60008560001916600019168152602001908152602001600020600601906001611cb9929190612405565b5082600019163373ffffffffffffffffffffffffffffffffffffffff167fafe7505848198c1b694b9c827456151aece16f9b6d3f45d1052c6fd2c9c13f5a60405160405180910390a3505050565b600d6020528060005260406000206000915054906101000a900460ff1681565b600c6020528060005260406000206000915090508060010154908060020154908060030154908060040160009054906101000a900460ff16908060050154905085565b60016007811115611d7757fe5b600c6000836000191660001916815260200190815260200160002060040160009054906101000a900460ff166007811115611dae57fe5b141515611dba57600080fd5b600c6000826000191660001916815260200190815260200160002060010154620f4240600c60008460001916600019168152602001908152602001600020600101540210151515611e0757fe5b600254611e12610791565b620f4240600c600085600019166000191681526020019081526020016000206001015402811515611e3f57fe5b0410151515611e4d57600080fd5b6000600c60008360001916600019168152602001908152602001600020600101819055506002600c6000836000191660001916815260200190815260200160002060040160006101000a81548160ff02191690836007811115611eac57fe5b0217905550611ec6600654426123d090919063ffffffff16565b600c600083600019166000191681526020019081526020016000206005018190555080600019163373ffffffffffffffffffffffffffffffffffffffff167f7cd3cb2d04af5d6a228dbe135cef8bd59865b1da6087526282b538e62e10be62600260405180826007811115611f3757fe5b60ff16815260200191505060405180910390a350565b600a60009054906101000a900460ff161515611f6857600080fd5b42611f94600554611f866004546009546123d090919063ffffffff16565b6123d090919063ffffffff16565b11151515611fa157600080fd5b6000600a60006101000a81548160ff021916908315150217905550611fd1600554426123ec90919063ffffffff16565b6009819055503373ffffffffffffffffffffffffffffffffffffffff167f9fa4027402e3e2b48eab6286f2d277af27e9a382ec15cde9e8745b237d11550a60405160405180910390a2565b6000600781111561202957fe5b600c6000856000191660001916815260200190815260200160002060040160009054906101000a900460ff16600781111561206057fe5b14151561206c57600080fd5b600a60009054906101000a900460ff16151561208757600080fd5b60085461209333612259565b11151561209f57600080fd5b426120f4600654600b60003373ffffffffffffffffffffffffffffffffffffffff1673ffffffffffffffffffffffffffffffffffffffff168152602001908152602001600020546123d090919063ffffffff16565b1115151561210157600080fd5b42600b60003373ffffffffffffffffffffffffffffffffffffffff1673ffffffffffffffffffffffffffffffffffffffff168152602001908152602001600020819055506002600c6000856000191660001916815260200190815260200160002060040160006101000a81548160ff0219169083600781111561218057fe5b021790555061219a600654426123d090919063ffffffff16565b600c60008560001916600019168152602001908152602001600020600501819055508160001916600c60008560001916600019168152602001908152602001600020505080600c6000856000191660001916815260200190815260200160002060060190600161220b929190612405565b5082600019163373ffffffffffffffffffffffffffffffffffffffff167f0391f4d187e48f1b0f3bd19f51f65d64633c54e93ef79dc56a56791587f88a0460405160405180910390a3505050565b6000600160008373ffffffffffffffffffffffffffffffffffffffff1673ffffffffffffffffffffffffffffffffffffffff168152602001908152602001600020549050919050565b600160078111156122af57fe5b600c6000836000191660001916815260200190815260200160002060040160009054906101000a900460ff1660078111156122e657fe5b1415156122f257600080fd5b42600c60008360001916600019168152602001908152602001600020600501541115151561231f57600080fd5b6007600c6000836000191660001916815260200190815260200160002060040160006101000a81548160ff0219169083600781111561235a57fe5b021790555080600019163373ffffffffffffffffffffffffffffffffffffffff167f7cd3cb2d04af5d6a228dbe135cef8bd59865b1da6087526282b538e62e10be626007604051808260078111156123ae57fe5b60ff16815260200191505060405180910390a350565b60045481565b60085481565b600081830190508281101515156123e357fe5b80905092915050565b60008282111515156123fa57fe5b818303905092915050565b828054828255906000526020600020908101928215612447579160200282015b82811115612446578251829060001916905591602001919060010190612425565b5b5090506124549190612458565b5090565b61247a91905b8082111561247657600081600090555060010161245e565b5090565b905600a165627a7a72305820ae233536aff82ab2aed0070296f8212c2db27179941e0ebeccaa4168de68ead40029",
  "source": "//TODO: get rid of the multiplication with 100000 (10)\n// TODO: set tokensInFavor / tokensAgainst default to 1\n\npragma solidity ^0.4.24;\n\nimport \"./VoucherRegistry.sol\";\n\nimport \"./../node_modules/openzeppelin-solidity/contracts/math/SafeMath.sol\";\n\n/**\n * @title VotingEngine\n * @author Rinke Hendriksen (rinkehendriksen@gmail.com)\n * @dev the VotingEngine contract makes sure proposals can be proposed and passed if there exists enough support from the community\n */\ncontract VotingEngine is VoucherRegistry {\n\n    using SafeMath for uint256;\n\n    event AssemblyDeclared(\n        address indexed callee\n    );\n\n    event AssemblyCancelled(\n        address indexed callee\n    );\n\n    event ProposalStatusChanged(\n        address indexed callee,\n        bytes32 indexed proposalId,\n        ProposalStatus newStatus\n    );\n\n    event ReferendumProposed(\n        address indexed callee,\n        bytes32 indexed proposalId\n    );\n\n    event ProposalProposed(\n        address indexed callee,\n        bytes32 indexed proposalId\n    );\n\n    event AcceptanceSignalled(\n        address indexed callee,\n        bytes32 indexed proposalId\n    );\n\n    event BallotCommitted(\n        address indexed callee,\n        bytes32 indexed proposalId,\n        bytes32 blindedVote\n    );\n\n    event BallotRevealed(\n        address indexed callee,\n        bytes32 indexed proposalId,\n        bool vote,\n        bytes32 secret,\n        uint256 amountOfVouchers\n    );\n    event BallotCancelled(\n        address indexed callee,\n        bytes32 indexed proposalId,\n        bool vote,\n        bytes32 secret,\n        uint256 amountOfVouchers\n    );\n\n    // can be changed via the master contract (by submitting a proposal)\n    uint256 public referendumQuotum = 200000; // 20% (1,000,000 = 100%)\n    uint256 public majorityQuotum = 600000; // 60%\n    uint256 public assemblyInterval = 1576800; // 6 months\n    uint256 public assemblyDuration = 122800; // 2 days TODO, see 6\n    uint256 public votingWindow = 172800; // 2 days\n    uint256 public revealOrCancelWindow = 86400; // 1 day\n    uint256 public minimumVouchersToPropose = 0; // a treshhold which is needed to propose a vote during the assembly\n    uint256 public lastAssembly = 0; // after deployment an assembly can be declared directly\n\n    // is set by the members via functions declareAssembly / endAssembly\n    bool assemblyActive;\n\n    // Used in the votes struct to keep track of ballot status per address\n    enum BallotStatus {\n        // Default status for a ballot\n        NotUsed,\n\n        // When used in the referendum\n        Signalled,\n\n        // When cancelled in the referendum\n        SignalCancelled,\n\n        // When ballot is revealed\n        BallotRevealed,\n\n        // When ballot is cancelled\n        BallotCancelled\n    }\n\n    struct ballot {\n        bytes32 blindedVote;\n        BallotStatus status;\n    }\n\n    enum ProposalStatus {\n        // INITIAL STAGE. Any possible proposalId is Default.\n        Default,\n\n        /**\n        * When there is no assembly, a proposal has to pass the referendum stage to be considered by the community.\n        */\n        Referendum,\n\n        /**\n        * After passing the referendum stage or during assembly, ballots must be committed. If not committed and/or revealed\n        * there will be a slash.\n        */\n        Commit,\n\n        /**\n        * After commitment, ballots must be revealed. The choice to use a commit/reveal pattern is that it is necesarry\n        * for the game-mechanics that all community members vote independently of each others votes. It is possible to cancel\n        * a ballot (making it non-effective) to prevent one entity to be able to buy votes (and be sure it will never be cancelled).\n        */\n        RevealOrCancel,\n\n        /**\n        * Accepted proposals can be used by the master contract to enact the change on which was voted\n        */\n        Accepted,\n\n        // FINAL STAGE. After being acted upon by the master contract, a proposal is InEffect.\n        InEffect,\n\n        /**\n        * FINAL STAGE. If after the revealOrCancel stage has passed there has not been a majorityQuotum votes in favor of the proposal\n        * the proposal ends up in the ProposalRejected stage.\n        */\n        ProposalRejected,\n\n        /**\n        * FINAL STAGE. If votingWindow time has passed since initialization of the Referendum stage, and the referendum has\n        * not achieved enough support, it ends up in the ReferendumRejected stage.\n        */\n        ReferendumRejected\n    }\n\n    // used in the mapping proposalRegistry; Every proposalId maps to one proposal structy\n    struct proposal {\n        mapping(address => ballot) ballotRegistry;\n        uint256 tokensInFavor;\n        uint256 tokensAgainst;\n        bytes32 subject; // subject is read by the master contract and defines how the proposal is being acted upon after acceptance\n        ProposalStatus status; // before a proposal\n        uint256 closingTime; // during different phases, we assign a closingTime to mark the end of the phase\n        bytes32[] effect; // the intended effect(s) of the proposal. i.e. budget (uint) per period for a specified entity (address)\n    }\n\n    mapping(address => uint256) public lastProposed; // we keep track of when an address last-proposed a vote in order to prevent spamming of the assembly\n    mapping(bytes32 => proposal) public proposalRegistry;\n    mapping(bytes32 => bool) public blindedVoteUsed; // we keep track of the blindedVotes used to prevent the possibility of secret re-use\n\n    constructor() {\n\n    }\n\n    /**\n    * @dev can be called by anybody once every assemblyPeriod and will activate the assembly\n    */\n    function declareAssembly() public {\n        require(lastAssembly.add(assemblyInterval) >= now); // only possible to declare one assembly per assemblyInterval\n        assemblyActive = true;\n        emit AssemblyDeclared(msg.sender);\n    }\n\n    /**\n    * @dev can be called by anybody while the assembly is active after the assemblyDuration has passed\n    */\n    function endAssembly() public {\n        require(assemblyActive);\n        require(lastAssembly.add(assemblyInterval).add(assemblyDuration) <= now);\n        assemblyActive = false;\n        lastAssembly = now.sub(assemblyDuration);\n        emit AssemblyCancelled(msg.sender);\n    }\n\n    /**\n    * @dev can be called by anybody if the assembly is not active to create a referendum\n    * @param proposalId the unique identifier of the proposal. Can be anything if not used before\n    * @param _subject the topic of the proposal (used in the master contract for interpretation of the effect)\n    * @param _effect the proposed effect of the proposal\n    */\n    function makeFromDefaultToReferendum(bytes32 proposalId, bytes32 _subject, bytes32[1] _effect) {\n        require(proposalRegistry[proposalId].status == ProposalStatus.Default);\n        require(!assemblyActive);\n        proposalRegistry[proposalId].status = ProposalStatus.Referendum;\n        proposalRegistry[proposalId].closingTime = now.add(votingWindow);\n        proposalRegistry[proposalId].subject == _subject;\n        proposalRegistry[proposalId].effect = _effect;\n        emit ReferendumProposed(msg.sender, proposalId);\n    }\n\n    /**\n    * @dev can be called by anybody if the votingWindow has passed after starting the refendum and there has not been referendumQuotum support for the proposal\n    * @param proposalId the unique identifier of the proposal. Can be anything if not used before\n    */\n    function makeFromReferendumToRejected(bytes32 proposalId) {\n        require(proposalRegistry[proposalId].status == ProposalStatus.Referendum);\n        require(proposalRegistry[proposalId].closingTime <= now);\n        proposalRegistry[proposalId].status = ProposalStatus.ReferendumRejected;\n        emit ProposalStatusChanged(msg.sender, proposalId, ProposalStatus.ReferendumRejected);\n    }\n\n    /**\n    * @dev can be called by anybody if the assembly is active to create a proposal which directly enters the commit stage and must be considered by the members\n    * @param proposalId the unique identifier of the proposal. Can be anything if not used before\n    * @param _subject the topic of the proposal (used in the master contract for interpretation of the effect)\n    * @param _effect the proposed effect of the proposal\n    * @notice every member can only propose one proposal every assemblyperiod to prevent too many votes which must be taken into consideration\n    */\n    function makeFromDefaultToCommit(bytes32 proposalId, bytes32 _subject, bytes32[1] _effect) {\n        require(proposalRegistry[proposalId].status == ProposalStatus.Default);\n        require(assemblyActive);\n        require(vouchersOf(msg.sender) > minimumVouchersToPropose);\n        require(lastProposed[msg.sender].add(votingWindow) <= now);\n        lastProposed[msg.sender] = now;\n        proposalRegistry[proposalId].status = ProposalStatus.Commit;\n        proposalRegistry[proposalId].closingTime = now.add(votingWindow);\n        proposalRegistry[proposalId].subject == _subject;\n        proposalRegistry[proposalId].effect = _effect;\n        emit ProposalProposed(msg.sender, proposalId);\n    }\n\n    /**\n    * @dev used by the members of the dao to signal support for the referendum (and hence request this refendum to enter the commit stage)\n    * @param proposalId the unique identifier of the proposal. Can be anything if not used before\n    */\n    function ballotSignal(bytes32 proposalId) {\n        require(proposalRegistry[proposalId].status == ProposalStatus.Referendum);\n        require(proposalRegistry[proposalId].ballotRegistry[msg.sender].status == BallotStatus.NotUsed);\n        proposalRegistry[proposalId].ballotRegistry[msg.sender].status = BallotStatus.Signalled;\n        proposalRegistry[proposalId].tokensInFavor.add(vouchersOf(msg.sender));\n        emit AcceptanceSignalled(msg.sender, proposalId);\n    }\n\n    /**\n    * @dev used by the members of the dao to cancel their support for the referendum\n    * @param proposalId the unique identifier of the proposal. Can be anything if not used before\n    * @notice this function is effectively an anti-bribery function, since vouchers are non-transferable and because of this function\n    * purchasing private keys with vouchers is also useless since it is never possible to purchase a key and be entirely sure that the original\n    * holder did not save the key somewhere else and use this function to make the signal (or ballot) of the purchaser ineffective\n    */\n    function cancelSignal(bytes32 proposalId) {\n        require(proposalRegistry[proposalId].status == ProposalStatus.Referendum);\n        require(proposalRegistry[proposalId].ballotRegistry[msg.sender].status == BallotStatus.Signalled);\n        proposalRegistry[proposalId].tokensInFavor.sub(vouchersOf(msg.sender));\n        proposalRegistry[proposalId].ballotRegistry[msg.sender].status == BallotStatus.SignalCancelled;\n    }\n\n    /**\n    * @dev if there is enough support for the proposal within the votingWindow timeframe, the proposal will enter the commit stage\n    * @param proposalId the unique identifier of the proposal. Can be anything if not used before\n    */\n    function makeFromReferendumToCommit(bytes32 proposalId) {\n        require(proposalRegistry[proposalId].status == ProposalStatus.Referendum);\n        //TODO: see 10\n        assert(proposalRegistry[proposalId].tokensInFavor * 1000000 >= proposalRegistry[proposalId].tokensInFavor);\n        require((proposalRegistry[proposalId].tokensInFavor * 1000000) / totalSupply()  >= referendumQuotum); // we multiply by 1000000 to implement decimal points calculation\n        proposalRegistry[proposalId].tokensInFavor = 0;\n        proposalRegistry[proposalId].status = ProposalStatus.Commit;\n        proposalRegistry[proposalId].closingTime = now.add(votingWindow);\n        emit ProposalStatusChanged(msg.sender, proposalId, ProposalStatus.Commit);\n    }\n\n    /**\n    * @dev if a proposal is in the commit stage, a blindedVote must be committed.\n    * @param proposalId the unique identifier of the proposal. Can be anything if not used before\n    * @param blindedVote the hash of the vote + password\n    * @notice if a member does not commit (and reveal afterwards) a vote on a proposal which is in this stage, he will be slashed\n    * @notice the commit-reveal pattern is needed to ensure that every member decides autonomously what to vote\n    */\n    function ballotCommit(bytes32 proposalId, bytes32 blindedVote) {\n        require(!blindedVoteUsed[blindedVote]);\n        require(proposalRegistry[proposalId].status == ProposalStatus.Commit);\n        require(\n            proposalRegistry[proposalId].ballotRegistry[msg.sender].status == BallotStatus.NotUsed ||\n            proposalRegistry[proposalId].ballotRegistry[msg.sender].status == BallotStatus.Signalled ||\n            proposalRegistry[proposalId].ballotRegistry[msg.sender].status == BallotStatus.SignalCancelled\n        );\n        proposalRegistry[proposalId].ballotRegistry[msg.sender].blindedVote = blindedVote;\n        blindedVoteUsed[blindedVote] = true;\n        emit BallotCommitted(msg.sender, proposalId, blindedVote);\n    }\n\n    /**\n    * @dev after passing of votingWindow time since the start of the commit phase, any member can set the proposal to the next (revealOrCancel) phase\n    * @param proposalId the unique identifier of the proposal. Can be anything if not used before\n    * @notice besides the regular revealing, in the revealOrCancel stage, it is also possible to cancel a previously commited (or revealed) ballot\n    */\n    function makeFromCommitToRevealOrCancel(bytes32 proposalId) {\n        require(proposalRegistry[proposalId].status == ProposalStatus.Commit);\n        require(proposalRegistry[proposalId].closingTime <= now);\n        proposalRegistry[proposalId].closingTime = now + revealOrCancelWindow;\n        proposalRegistry[proposalId].status = ProposalStatus.RevealOrCancel;\n        emit ProposalStatusChanged(msg.sender, proposalId, ProposalStatus.RevealOrCancel);\n    }\n\n    /**\n    * @dev if a proposal is in the reveal stage, the previously committed blindedVote must be revealed\n    * @param proposalId the unique identifier of the proposal. Can be anything if not used before\n    * @param secret the previously used secret to hide the vote in the ballotCommit function\n    * @param myVote the vote (true/false)\n    * @notice secret and myVote must hash to the committed blindedVote\n    * @notice if a member does not commit (and reveal afterwards) a vote on a proposal which is in this stage, he will be slashed\n    * @notice the commit-reveal pattern is needed to ensure that every member decides autonomously what to vote\n    */\n    function ballotReveal(bytes32 proposalId, bytes32 secret, bool myVote) {\n        require(proposalRegistry[proposalId].status == ProposalStatus.RevealOrCancel);\n        require(keccak256(abi.encodePacked(myVote,secret)) == proposalRegistry[proposalId].ballotRegistry[msg.sender].blindedVote);\n        require(\n            proposalRegistry[proposalId].ballotRegistry[msg.sender].status == BallotStatus.NotUsed ||\n            proposalRegistry[proposalId].ballotRegistry[msg.sender].status == BallotStatus.Signalled ||\n            proposalRegistry[proposalId].ballotRegistry[msg.sender].status == BallotStatus.SignalCancelled\n        );\n        proposalRegistry[proposalId].ballotRegistry[msg.sender].status == BallotStatus.BallotRevealed;\n        if(myVote) {\n            proposalRegistry[proposalId].tokensInFavor.add(vouchersOf(msg.sender));\n        } else {\n            proposalRegistry[proposalId].tokensAgainst.add(vouchersOf(msg.sender));\n        }\n        emit BallotRevealed(msg.sender, proposalId, myVote, secret, vouchersOf(msg.sender));\n    }\n\n    /**\n    * @dev after revealOrCancelWindow time has passed since the proposal entered the revealOrCancelWindow and there has be a majorityQuotum of votes or more in favor of the proposal\n    * any member can call this function to make the proposal accepted (hence allow the master contract to make the vote into effect)\n    * @param proposalId the unique identifier of the proposal. Can be anything if not used before\n    */\n    function makeFromRevealOrCancelToAccepted(bytes32 proposalId) {\n        require(proposalRegistry[proposalId].status == ProposalStatus.RevealOrCancel);\n        require(proposalRegistry[proposalId].closingTime <= now);\n        require(((proposalRegistry[proposalId].tokensInFavor / proposalRegistry[proposalId].tokensAgainst) * 1000000) >= majorityQuotum); // TODO: see 5,\n        proposalRegistry[proposalId].status == ProposalStatus.Accepted;\n        emit ProposalStatusChanged(msg.sender, proposalId, ProposalStatus.Accepted);\n    }\n\n    /**\n    * @dev after revealOrCancelWindow time has passed since the proposal entered the revealOrCancelWindow and there has be a majorityQuotum of votes or more in favor of the proposal\n    * any member can call this function to make the proposal accepted (hence allow the master contract to make the vote into effect)\n    * @param proposalId the unique identifier of the proposal. Can be anything if not used before\n    */\n    function makeFromRevealOrCancelToRejected(bytes32 proposalId) {\n        require(proposalRegistry[proposalId].status == ProposalStatus.RevealOrCancel);\n        require(proposalRegistry[proposalId].closingTime <= now);\n        require(((proposalRegistry[proposalId].tokensInFavor / proposalRegistry[proposalId].tokensAgainst) * 1000000) < majorityQuotum); // TODO: see 5,\n        proposalRegistry[proposalId].status == ProposalStatus.ProposalRejected;\n        emit ProposalStatusChanged(msg.sender, proposalId, ProposalStatus.ProposalRejected);\n    }\n\n    /**\n    * @dev used by the members of the dao to cancel their ballot commit or ballot reveal for the proposal\n    * @param secret the previously used secret to hide the vote in the ballotCommit function\n    * @param myVote the vote (true/false)\n    * @notice this function is effectively an anti-bribery function, since vouchers are non-transferable and because of this function\n    * purchasing private keys with vouchers is also useless since it is never possible to purchase a key and be entirely sure that the original\n    * holder did not save the key somewhere else and use this function to make the signal (or ballot) of the purchaser ineffective\n    */\n    function cancelBallot(bytes32 proposalId, bytes32 secret, bool myVote) {\n        require(proposalRegistry[proposalId].status == ProposalStatus.RevealOrCancel);\n        require(keccak256(abi.encodePacked(myVote,secret)) == proposalRegistry[proposalId].ballotRegistry[msg.sender].blindedVote);\n        require(proposalRegistry[proposalId].ballotRegistry[msg.sender].status != BallotStatus.BallotCancelled);\n        proposalRegistry[proposalId].ballotRegistry[msg.sender].status == BallotStatus.BallotCancelled;\n        if(myVote) {\n            proposalRegistry[proposalId].tokensInFavor.sub(vouchersOf(msg.sender));\n        } else {\n            proposalRegistry[proposalId].tokensAgainst.sub(vouchersOf(msg.sender));\n        }\n        emit BallotCancelled(msg.sender, proposalId, myVote, secret, vouchersOf(msg.sender));\n    }\n}\n",
  "sourcePath": "/Users/rinke/Projects/Suber-DAO/contracts/VotingEngine.sol",
  "compiler": {
    "name": "solc",
    "version": "0.4.24+commit.e67f0147.Emscripten.clang"
  },
  "schemaVersion": "2.0.1",
  "updatedAt": "2018-09-15T12:18:58.964Z"
}