{
  "contractName": "VotingEngine",
  "abi": [
    {
      "constant": true,
      "inputs": [],
      "name": "totalSupply",
      "outputs": [
        {
          "name": "",
          "type": "uint256"
        }
      ],
      "payable": false,
      "stateMutability": "view",
      "type": "function"
    },
    {
      "constant": true,
      "inputs": [],
      "name": "majorityQuotum",
      "outputs": [
        {
          "name": "",
          "type": "uint256"
        }
      ],
      "payable": false,
      "stateMutability": "view",
      "type": "function"
    },
    {
      "constant": true,
      "inputs": [],
      "name": "referendumQuotum",
      "outputs": [
        {
          "name": "",
          "type": "uint256"
        }
      ],
      "payable": false,
      "stateMutability": "view",
      "type": "function"
    },
    {
      "constant": true,
      "inputs": [
        {
          "name": "_owner",
          "type": "address"
        }
      ],
      "name": "balanceOf",
      "outputs": [
        {
          "name": "",
          "type": "uint256"
        }
      ],
      "payable": false,
      "stateMutability": "view",
      "type": "function"
    },
    {
      "constant": true,
      "inputs": [],
      "name": "votingWindow",
      "outputs": [
        {
          "name": "",
          "type": "uint256"
        }
      ],
      "payable": false,
      "stateMutability": "view",
      "type": "function"
    },
    {
      "constant": true,
      "inputs": [],
      "name": "lastAssembly",
      "outputs": [
        {
          "name": "",
          "type": "uint256"
        }
      ],
      "payable": false,
      "stateMutability": "view",
      "type": "function"
    },
    {
      "constant": true,
      "inputs": [
        {
          "name": "",
          "type": "address"
        }
      ],
      "name": "lastProposed",
      "outputs": [
        {
          "name": "",
          "type": "uint256"
        }
      ],
      "payable": false,
      "stateMutability": "view",
      "type": "function"
    },
    {
      "constant": true,
      "inputs": [
        {
          "name": "",
          "type": "bytes32"
        }
      ],
      "name": "blindedVoteUsed",
      "outputs": [
        {
          "name": "",
          "type": "bool"
        }
      ],
      "payable": false,
      "stateMutability": "view",
      "type": "function"
    },
    {
      "constant": true,
      "inputs": [
        {
          "name": "",
          "type": "bytes32"
        }
      ],
      "name": "acceptanceRegistry",
      "outputs": [
        {
          "name": "tokensInFavor",
          "type": "uint256"
        },
        {
          "name": "closingTime",
          "type": "uint256"
        }
      ],
      "payable": false,
      "stateMutability": "view",
      "type": "function"
    },
    {
      "constant": true,
      "inputs": [],
      "name": "assemblyPeriod",
      "outputs": [
        {
          "name": "",
          "type": "uint256"
        }
      ],
      "payable": false,
      "stateMutability": "view",
      "type": "function"
    },
    {
      "constant": true,
      "inputs": [
        {
          "name": "",
          "type": "bytes32"
        }
      ],
      "name": "voteRegistry",
      "outputs": [
        {
          "name": "tokensInFavor",
          "type": "uint256"
        },
        {
          "name": "tokensAgainst",
          "type": "uint256"
        },
        {
          "name": "subject",
          "type": "bytes32"
        },
        {
          "name": "accepted",
          "type": "bool"
        },
        {
          "name": "inEffect",
          "type": "bool"
        },
        {
          "name": "closingTime",
          "type": "uint256"
        }
      ],
      "payable": false,
      "stateMutability": "view",
      "type": "function"
    },
    {
      "inputs": [
        {
          "name": "_lastVote",
          "type": "uint256"
        }
      ],
      "payable": false,
      "stateMutability": "nonpayable",
      "type": "constructor"
    },
    {
      "anonymous": false,
      "inputs": [
        {
          "indexed": true,
          "name": "callee",
          "type": "address"
        }
      ],
      "name": "AssemblyDeclared",
      "type": "event"
    },
    {
      "anonymous": false,
      "inputs": [
        {
          "indexed": true,
          "name": "callee",
          "type": "address"
        },
        {
          "indexed": true,
          "name": "voteId",
          "type": "bytes32"
        }
      ],
      "name": "VoteProposed",
      "type": "event"
    },
    {
      "anonymous": false,
      "inputs": [
        {
          "indexed": true,
          "name": "callee",
          "type": "address"
        },
        {
          "indexed": true,
          "name": "voteId",
          "type": "bytes32"
        }
      ],
      "name": "AcceptanceSignalled",
      "type": "event"
    },
    {
      "anonymous": false,
      "inputs": [
        {
          "indexed": true,
          "name": "callee",
          "type": "address"
        },
        {
          "indexed": true,
          "name": "voteId",
          "type": "bytes32"
        }
      ],
      "name": "VoteAccepted",
      "type": "event"
    },
    {
      "anonymous": false,
      "inputs": [
        {
          "indexed": true,
          "name": "callee",
          "type": "address"
        },
        {
          "indexed": true,
          "name": "voteId",
          "type": "bytes32"
        },
        {
          "indexed": false,
          "name": "blindedVote",
          "type": "bytes32"
        }
      ],
      "name": "Voted",
      "type": "event"
    },
    {
      "anonymous": false,
      "inputs": [
        {
          "indexed": true,
          "name": "callee",
          "type": "address"
        },
        {
          "indexed": true,
          "name": "voteId",
          "type": "bytes32"
        },
        {
          "indexed": true,
          "name": "vote",
          "type": "bool"
        },
        {
          "indexed": false,
          "name": "secret",
          "type": "bytes32"
        },
        {
          "indexed": false,
          "name": "amountOfTokens",
          "type": "uint256"
        }
      ],
      "name": "VoteRevealed",
      "type": "event"
    },
    {
      "anonymous": false,
      "inputs": [
        {
          "indexed": true,
          "name": "callee",
          "type": "address"
        },
        {
          "indexed": true,
          "name": "voteId",
          "type": "bytes32"
        }
      ],
      "name": "VoteCancelled",
      "type": "event"
    },
    {
      "constant": false,
      "inputs": [],
      "name": "declareAssembly",
      "outputs": [],
      "payable": false,
      "stateMutability": "nonpayable",
      "type": "function"
    },
    {
      "constant": false,
      "inputs": [
        {
          "name": "voteId",
          "type": "bytes32"
        },
        {
          "name": "_subject",
          "type": "bytes32"
        },
        {
          "name": "_effect",
          "type": "bytes32[1]"
        }
      ],
      "name": "proposeReferendum",
      "outputs": [],
      "payable": false,
      "stateMutability": "nonpayable",
      "type": "function"
    },
    {
      "constant": false,
      "inputs": [
        {
          "name": "voteId",
          "type": "bytes32"
        }
      ],
      "name": "signalAcceptance",
      "outputs": [],
      "payable": false,
      "stateMutability": "nonpayable",
      "type": "function"
    },
    {
      "constant": false,
      "inputs": [
        {
          "name": "voteId",
          "type": "bytes32"
        }
      ],
      "name": "cancelAcceptance",
      "outputs": [],
      "payable": false,
      "stateMutability": "nonpayable",
      "type": "function"
    },
    {
      "constant": false,
      "inputs": [
        {
          "name": "voteId",
          "type": "bytes32"
        }
      ],
      "name": "makeAccepted",
      "outputs": [],
      "payable": false,
      "stateMutability": "nonpayable",
      "type": "function"
    },
    {
      "constant": false,
      "inputs": [
        {
          "name": "voteId",
          "type": "bytes32"
        },
        {
          "name": "blindedVote",
          "type": "bytes32"
        }
      ],
      "name": "vote",
      "outputs": [],
      "payable": false,
      "stateMutability": "nonpayable",
      "type": "function"
    },
    {
      "constant": false,
      "inputs": [
        {
          "name": "voteId",
          "type": "bytes32"
        },
        {
          "name": "secret",
          "type": "bytes32"
        },
        {
          "name": "myVote",
          "type": "bool"
        }
      ],
      "name": "revealVote",
      "outputs": [],
      "payable": false,
      "stateMutability": "nonpayable",
      "type": "function"
    },
    {
      "constant": false,
      "inputs": [
        {
          "name": "voteId",
          "type": "bytes32"
        },
        {
          "name": "secret",
          "type": "bytes32"
        },
        {
          "name": "myVote",
          "type": "bool"
        }
      ],
      "name": "cancelVote",
      "outputs": [],
      "payable": false,
      "stateMutability": "nonpayable",
      "type": "function"
    }
  ],
  "bytecode": "0x608060405262030d40600255620927c060035562180f606004556202a30060055534801561002c57600080fd5b5060405160208061198f83398101806040528101908080519060200190929190505050806006819055506040516020018060000190506040516020818303038152906040526040518082805190602001908083835b6020831015156100a65780518252602082019150602081019050602083039250610081565b6001836020036101000a038019825116818451168082178552505050505050905001915050604051809103902060078160001916905550506118a2806100ed6000396000f300608060405260043610610107576000357c0100000000000000000000000000000000000000000000000000000000900463ffffffff16806302de47d81461010c5780630d4a2bc81461015757806318160ddd146101885780631e955399146101b357806337a2c516146101de5780635e9c2699146102095780636c5416a71461022057806370a08231146102515780637167eef6146102a857806372a6300a14610316578063776486a4146103415780637d6067c61461036c5780638950ee2d146103c3578063ac200ff51461040c578063b6e4551e14610458578063c9bec7b614610489578063e350b10e146104b4578063e422e4401461052c578063eeaaf19d14610577575b600080fd5b34801561011857600080fd5b50610155600480360381019080803560001916906020019092919080356000191690602001909291908035151590602001909291905050506105b6565b005b34801561016357600080fd5b5061018660048036038101908080356000191690602001909291905050506109a6565b005b34801561019457600080fd5b5061019d6109a9565b6040518082815260200191505060405180910390f35b3480156101bf57600080fd5b506101c86109b2565b6040518082815260200191505060405180910390f35b3480156101ea57600080fd5b506101f36109b8565b6040518082815260200191505060405180910390f35b34801561021557600080fd5b5061021e6109be565b005b34801561022c57600080fd5b5061024f6004803603810190808035600019169060200190929190505050610a2f565b005b34801561025d57600080fd5b50610292600480360381019080803573ffffffffffffffffffffffffffffffffffffffff169060200190929190505050610b72565b6040518082815260200191505060405180910390f35b3480156102b457600080fd5b50610314600480360381019080803560001916906020019092919080356000191690602001909291908060200190600180602002604051908101604052809291908260016020028082843782019150505050509192919290505050610bbb565b005b34801561032257600080fd5b5061032b610e71565b6040518082815260200191505060405180910390f35b34801561034d57600080fd5b50610356610e77565b6040518082815260200191505060405180910390f35b34801561037857600080fd5b506103ad600480360381019080803573ffffffffffffffffffffffffffffffffffffffff169060200190929190505050610e7d565b6040518082815260200191505060405180910390f35b3480156103cf57600080fd5b506103f26004803603810190808035600019169060200190929190505050610e95565b604051808215151515815260200191505060405180910390f35b34801561041857600080fd5b5061043b6004803603810190808035600019169060200190929190505050610eb5565b604051808381526020018281526020019250505060405180910390f35b34801561046457600080fd5b506104876004803603810190808035600019169060200190929190505050610ed9565b005b34801561049557600080fd5b5061049e6110d9565b6040518082815260200191505060405180910390f35b3480156104c057600080fd5b506104e360048036038101908080356000191690602001909291905050506110df565b6040518087815260200186815260200185600019166000191681526020018415151515815260200183151515158152602001828152602001965050505050505060405180910390f35b34801561053857600080fd5b5061057560048036038101908080356000191690602001909291908035600019169060200190929190803515159060200190929190505050611135565b005b34801561058357600080fd5b506105b4600480360381019080803560001916906020019092919080356000191690602001909291905050506114fe565b005b426009600085600019166000191681526020019081526020016000206005015410158015610616575042610613600554600960008760001916600019168152602001908152602001600020600501546117c990919063ffffffff16565b11155b151561062157600080fd5b60096000846000191660001916815260200190815260200160002060000160003373ffffffffffffffffffffffffffffffffffffffff1673ffffffffffffffffffffffffffffffffffffffff168152602001908152602001600020600001546000191681836040516020018083151515157f01000000000000000000000000000000000000000000000000000000000000000281526001018260001916600019168152602001925050506040516020818303038152906040526040518082805190602001908083835b60208310151561070f57805182526020820191506020810190506020830392506106ea565b6001836020036101000a03801982511681845116808217855250505050505090500191505060405180910390206000191614151561074c57600080fd5b60096000846000191660001916815260200190815260200160002060000160003373ffffffffffffffffffffffffffffffffffffffff1673ffffffffffffffffffffffffffffffffffffffff16815260200190815260200160002060010160009054906101000a900460ff161515156107c457600080fd5b60096000846000191660001916815260200190815260200160002060000160003373ffffffffffffffffffffffffffffffffffffffff1673ffffffffffffffffffffffffffffffffffffffff16815260200190815260200160002060010160019054906101000a900460ff1615151561083c57600080fd5b600160096000856000191660001916815260200190815260200160002060000160003373ffffffffffffffffffffffffffffffffffffffff1673ffffffffffffffffffffffffffffffffffffffff16815260200190815260200160002060010160016101000a81548160ff02191690831515021790555080156108f8576108f26108c533610b72565b600960008660001916600019168152602001908152602001600020600101546117c990919063ffffffff16565b50610933565b61093161090433610b72565b600960008660001916600019168152602001908152602001600020600201546117c990919063ffffffff16565b505b80151583600019163373ffffffffffffffffffffffffffffffffffffffff167fcc0838ab811a958e5f4f2edaa7688c07c16d318ae871171c8d829bcc3a834b868561097d33610b72565b6040518083600019166000191681526020018281526020019250505060405180910390a4505050565b50565b60008054905090565b60035481565b60025481565b426109d66004546006546117c990919063ffffffff16565b101515156109e357600080fd5b426006819055503373ffffffffffffffffffffffffffffffffffffffff167f5a9f3dca4f11ce5758212591c09fcbf4327907998551dfadf1eadafe2f66db5660405160405180910390a2565b60096000826000191660001916815260200190815260200160002060040160009054906101000a900460ff16151515610a6757600080fd5b600254610a726109a9565b620f4240600a600085600019166000191681526020019081526020016000206000015402811515610a9f57fe5b0410151515610aad57600080fd5b600160096000836000191660001916815260200190815260200160002060040160006101000a81548160ff021916908315150217905550610b056002600554811515610af557fe5b04426117c990919063ffffffff16565b6009600083600019166000191681526020019081526020016000206005018190555080600019163373ffffffffffffffffffffffffffffffffffffffff167fa8c7fa23af7412355a57b6bb8eaf1dae9273a307f5b020add12c63d1234a473b60405160405180910390a350565b6000600160008373ffffffffffffffffffffffffffffffffffffffff1673ffffffffffffffffffffffffffffffffffffffff168152602001908152602001600020549050919050565b6000801916826000191614151515610bd257600080fd5b60008019166009600085600019166000191681526020019081526020016000206003015460001916141515610c0657600080fd5b8160001916600960008560001916600019168152602001908152602001600020505080600960008560001916600019168152602001908152602001600020600601906001610c559291906117fe565b5042610c6e6005546006546117c990919063ffffffff16565b101515610dec576000610c8033610b72565b14151515610c8d57600080fd5b42610ce2600554600860003373ffffffffffffffffffffffffffffffffffffffff1673ffffffffffffffffffffffffffffffffffffffff168152602001908152602001600020546117c990919063ffffffff16565b11151515610cef57600080fd5b42600860003373ffffffffffffffffffffffffffffffffffffffff1673ffffffffffffffffffffffffffffffffffffffff1681526020019081526020016000205050600160096000856000191660001916815260200190815260200160002060040160006101000a81548160ff021916908315150217905550610d7d600554426117c990919063ffffffff16565b6009600085600019166000191681526020019081526020016000206005018190555082600019163373ffffffffffffffffffffffffffffffffffffffff167fa8c7fa23af7412355a57b6bb8eaf1dae9273a307f5b020add12c63d1234a473b60405160405180910390a3610e6c565b610e01600554426117c990919063ffffffff16565b600a600085600019166000191681526020019081526020016000206002018190555082600019163373ffffffffffffffffffffffffffffffffffffffff167f49d5296759dd2d75f95fe5c9b103a193da4551b25ae5f58195f95c17b91c276b60405160405180910390a35b505050565b60055481565b60065481565b60086020528060005260406000206000915090505481565b600b6020528060005260406000206000915054906101000a900460ff1681565b600a6020528060005260406000206000915090508060000154908060020154905082565b6000801916600960008360001916600019168152602001908152602001600020600301546000191614151515610f0e57600080fd5b60096000826000191660001916815260200190815260200160002060040160009054906101000a900460ff16151515610f4657600080fd5b42600a600083600019166000191681526020019081526020016000206002015411151515610f7357600080fd5b600a6000826000191660001916815260200190815260200160002060010160003373ffffffffffffffffffffffffffffffffffffffff1673ffffffffffffffffffffffffffffffffffffffff16815260200190815260200160002060009054906101000a900460ff16151515610fe857600080fd5b60011515600a6000836000191660001916815260200190815260200160002060010160003373ffffffffffffffffffffffffffffffffffffffff1673ffffffffffffffffffffffffffffffffffffffff16815260200190815260200160002060009054906101000a9050505061108d61106033610b72565b600a60008460001916600019168152602001908152602001600020600001546117c990919063ffffffff16565b5080600019163373ffffffffffffffffffffffffffffffffffffffff167f98a9d348ac42ffcd4e388245eb19954bb535468e46278e4dba447caf74a88a3960405160405180910390a350565b60045481565b60096020528060005260406000206000915090508060010154908060020154908060030154908060040160009054906101000a900460ff16908060040160019054906101000a900460ff16908060050154905086565b426009600085600019166000191681526020019081526020016000206005015410158015611195575042611192600554600960008760001916600019168152602001908152602001600020600501546117c990919063ffffffff16565b11155b15156111a057600080fd5b60096000846000191660001916815260200190815260200160002060000160003373ffffffffffffffffffffffffffffffffffffffff1673ffffffffffffffffffffffffffffffffffffffff168152602001908152602001600020600001546000191681836040516020018083151515157f01000000000000000000000000000000000000000000000000000000000000000281526001018260001916600019168152602001925050506040516020818303038152906040526040518082805190602001908083835b60208310151561128e5780518252602082019150602081019050602083039250611269565b6001836020036101000a0380198251168184511680821785525050505050509050019150506040518091039020600019161415156112cb57600080fd5b60096000846000191660001916815260200190815260200160002060000160003373ffffffffffffffffffffffffffffffffffffffff1673ffffffffffffffffffffffffffffffffffffffff16815260200190815260200160002060010160009054906101000a900460ff1615151561134357600080fd5b60096000846000191660001916815260200190815260200160002060000160003373ffffffffffffffffffffffffffffffffffffffff1673ffffffffffffffffffffffffffffffffffffffff16815260200190815260200160002060010160019054906101000a900460ff1615156113ba57600080fd5b600160096000856000191660001916815260200190815260200160002060000160003373ffffffffffffffffffffffffffffffffffffffff1673ffffffffffffffffffffffffffffffffffffffff16815260200190815260200160002060010160006101000a81548160ff02191690831515021790555080156114765761147061144333610b72565b600960008660001916600019168152602001908152602001600020600101546117e590919063ffffffff16565b506114b1565b6114af61148233610b72565b600960008660001916600019168152602001908152602001600020600201546117e590919063ffffffff16565b505b82600019163373ffffffffffffffffffffffffffffffffffffffff167fc5a00d8e98da81cf8ba11869739651725f14e3e8dcc70856868da19061cc10ef60405160405180910390a3505050565b600b6000826000191660001916815260200190815260200160002060009054906101000a900460ff1615151561153357600080fd5b60075460001916600960008460001916600019168152602001908152602001600020600301546040516020018082600019166000191681526020019150506040516020818303038152906040526040518082805190602001908083835b6020831015156115b55780518252602082019150602081019050602083039250611590565b6001836020036101000a038019825116818451168082178552505050505050905001915050604051809103902060001916141515156115f357600080fd5b60096000836000191660001916815260200190815260200160002060040160009054906101000a900460ff16151561162a57600080fd5b60006001026000191660096000846000191660001916815260200190815260200160002060000160003373ffffffffffffffffffffffffffffffffffffffff1673ffffffffffffffffffffffffffffffffffffffff16815260200190815260200160002060000154600019161415156116a257600080fd5b4260096000846000191660001916815260200190815260200160002060050154101515156116cf57600080fd5b8060096000846000191660001916815260200190815260200160002060000160003373ffffffffffffffffffffffffffffffffffffffff1673ffffffffffffffffffffffffffffffffffffffff16815260200190815260200160002060000181600019169055506001600b6000836000191660001916815260200190815260200160002060006101000a81548160ff02191690831515021790555081600019163373ffffffffffffffffffffffffffffffffffffffff167f0a51713c76a3d455999e2c765be7c2638c7b06efe8099dc35c4a40d6cdc42dc38360405180826000191660001916815260200191505060405180910390a35050565b600081830190508281101515156117dc57fe5b80905092915050565b60008282111515156117f357fe5b818303905092915050565b828054828255906000526020600020908101928215611840579160200282015b8281111561183f57825182906000191690559160200191906001019061181e565b5b50905061184d9190611851565b5090565b61187391905b8082111561186f576000816000905550600101611857565b5090565b905600a165627a7a723058201f66e5da04dc25a34b37fc7a6086aa241a6c46aea9372cae97313061a355b2c00029",
  "source": "// TODO: add natspec documentation\n// TODO: make the whole acceptance / reveal / votingWindow thing dependent on enums, which can be set by the community via a seperate function (1)\n// TODO: check cancelVote logic, since there might be an overlap in slashing / bringing votes in effect / cancelling them (2)\n// TODO: implement cancelAcceptance (4)\n//TODO: check for overflow (5)\n\npragma solidity ^0.4.24;\n\nimport \"./TokenRegistry.sol\";\n\nimport \"./../node_modules/openzeppelin-solidity/contracts/math/SafeMath.sol\";\n\ncontract VotingEngine is TokenRegistry {\n\n    using SafeMath for uint256;\n\n    event AssemblyDeclared(\n        address indexed callee\n    );\n    event VoteProposed(\n        address indexed callee,\n        bytes32 indexed voteId\n    );\n    event AcceptanceSignalled(\n        address indexed callee,\n        bytes32 indexed voteId\n    );\n    event VoteAccepted(\n        address indexed callee,\n        bytes32 indexed voteId\n    );\n    event Voted(\n        address indexed callee,\n        bytes32 indexed voteId,\n        bytes32 blindedVote\n    );\n    event VoteRevealed(\n        address indexed callee,\n        bytes32 indexed voteId,\n        bool indexed vote,\n        bytes32 secret,\n        uint256 amountOfTokens\n    );\n    event VoteCancelled(\n        address indexed callee,\n        bytes32 indexed voteId\n    );\n\n    uint256 public referendumQuotum = 200000; // 20% (1,000,000 = 100%)\n    uint256 public majorityQuotum = 600000; // 60%\n    uint256 public assemblyPeriod = 1576800; // 6 months\n    uint256 public votingWindow = 172800; // 2 days\n    uint256 public lastAssembly;\n    bytes32 emptyStringHash;\n\n    struct ballot {\n        bytes32 blindedVote;\n        //TODO: see 1\n        bool cancelled;\n        bool used;\n    }\n\n    struct votes {\n        mapping(address => ballot) blindedVoteRegistry;\n        uint256 tokensInFavor;\n        uint256 tokensAgainst;\n        bytes32 subject;\n        //TODO see 1\n        bool accepted;\n        bool inEffect;\n        uint256 closingTime;\n        bytes32[] effect;\n    }\n\n    struct referendumAcceptance {\n        uint256 tokensInFavor;\n        mapping(address => bool) signalled;\n        uint256 closingTime;\n    }\n\n    mapping(address => uint256) public lastProposed;\n    mapping(bytes32 => votes) public voteRegistry;\n    mapping(bytes32 => referendumAcceptance) public acceptanceRegistry;\n    mapping(bytes32 => bool) public blindedVoteUsed;\n\n\n    constructor(uint256 _lastVote) {\n        lastAssembly = _lastVote;\n        emptyStringHash = keccak256(abi.encodePacked(\"\"));\n\n    }\n\n    function declareAssembly() {\n        require(lastAssembly.add(assemblyPeriod) >= now);\n        lastAssembly = now;\n        emit AssemblyDeclared(msg.sender);\n    }\n\n    function proposeReferendum(bytes32 voteId, bytes32 _subject, bytes32[1] _effect) {\n        require(_subject != bytes32(\"\"));\n        require(voteRegistry[voteId].subject == bytes32(\"\"));\n        voteRegistry[voteId].subject == _subject;\n        voteRegistry[voteId].effect = _effect;\n        if(lastAssembly.add(votingWindow) >= now) {\n            // during assembly we don't want anyone to spam the organisation with votes which have to be considered\n            require(balanceOf(msg.sender) != 0);\n            require(lastProposed[msg.sender].add(votingWindow) <= now);\n            lastProposed[msg.sender] == now;\n            voteRegistry[voteId].accepted = true;\n            voteRegistry[voteId].closingTime = now.add(votingWindow);\n            emit VoteAccepted(msg.sender, voteId);\n        } else {\n            acceptanceRegistry[voteId].closingTime = now.add(votingWindow);\n            emit VoteProposed(msg.sender, voteId);\n        }\n\n    }\n\n    function signalAcceptance(bytes32 voteId) {\n        require(voteRegistry[voteId].subject != bytes32(\"\"));\n        require(!voteRegistry[voteId].accepted);\n        require(acceptanceRegistry[voteId].closingTime <= now);\n        require(!acceptanceRegistry[voteId].signalled[msg.sender]);\n        acceptanceRegistry[voteId].signalled[msg.sender] == true;\n        acceptanceRegistry[voteId].tokensInFavor.add(balanceOf(msg.sender));\n        emit AcceptanceSignalled(msg.sender, voteId);\n    }\n\n    function cancelAcceptance(bytes32 voteId) {\n        //TODO, see 3\n    }\n\n    function makeAccepted(bytes32 voteId) {\n        require(!voteRegistry[voteId].accepted);\n        //TODO, see 5\n        require((acceptanceRegistry[voteId].tokensInFavor * 1000000) / totalSupply()  >= referendumQuotum);\n        voteRegistry[voteId].accepted = true;\n        voteRegistry[voteId].closingTime = now.add(votingWindow / 2);\n        emit VoteAccepted(msg.sender, voteId);\n    }\n\n    function vote(bytes32 voteId, bytes32 blindedVote) {\n        require(!blindedVoteUsed[blindedVote]);\n        require(keccak256(abi.encodePacked(voteRegistry[voteId].subject)) != emptyStringHash);\n        require(voteRegistry[voteId].accepted);\n        require(voteRegistry[voteId].blindedVoteRegistry[msg.sender].blindedVote == bytes32(0));\n        require(voteRegistry[voteId].closingTime >= now);\n        voteRegistry[voteId].blindedVoteRegistry[msg.sender].blindedVote = blindedVote;\n        blindedVoteUsed[blindedVote] = true;\n        emit Voted(msg.sender, voteId, blindedVote);\n    }\n\n    function revealVote(bytes32 voteId, bytes32 secret, bool myVote) {\n        //TODO, see 1\n        require(voteRegistry[voteId].closingTime >= now && voteRegistry[voteId].closingTime.add(votingWindow) <= now);\n        require(keccak256(abi.encodePacked(myVote,secret)) == voteRegistry[voteId].blindedVoteRegistry[msg.sender].blindedVote);\n        require(!voteRegistry[voteId].blindedVoteRegistry[msg.sender].cancelled);\n        require(!voteRegistry[voteId].blindedVoteRegistry[msg.sender].used);\n        voteRegistry[voteId].blindedVoteRegistry[msg.sender].used = true;\n        if(myVote) {\n            voteRegistry[voteId].tokensInFavor.add(balanceOf(msg.sender));\n        } else {\n            voteRegistry[voteId].tokensAgainst.add(balanceOf(msg.sender));\n        }\n        emit VoteRevealed(msg.sender, voteId, myVote, secret, balanceOf(msg.sender));\n    }\n\n    function cancelVote(bytes32 voteId, bytes32 secret, bool myVote) {\n        //TODO, see 2\n        require(voteRegistry[voteId].closingTime >= now && voteRegistry[voteId].closingTime.add(votingWindow) <= now);\n        require(keccak256(abi.encodePacked(myVote,secret)) == voteRegistry[voteId].blindedVoteRegistry[msg.sender].blindedVote);\n        require(!voteRegistry[voteId].blindedVoteRegistry[msg.sender].cancelled);\n        require(voteRegistry[voteId].blindedVoteRegistry[msg.sender].used);\n        voteRegistry[voteId].blindedVoteRegistry[msg.sender].cancelled = true;\n        if(myVote) {\n            voteRegistry[voteId].tokensInFavor.sub(balanceOf(msg.sender));\n        } else {\n            voteRegistry[voteId].tokensAgainst.sub(balanceOf(msg.sender));\n        }\n        emit VoteCancelled(msg.sender, voteId);\n    }\n}\n",
  "sourcePath": "/home/rinke/DAPPS/SUBER/SuberDAO/contracts/VotingEngine.sol",
  "compiler": {
    "name": "solc",
    "version": "0.4.24+commit.e67f0147.Emscripten.clang"
  },
  "schemaVersion": "2.0.0",
  "updatedAt": "2018-08-27T16:14:28.025Z"
}